:020000040801F1
:10000000286E0020BD030108C5030108F925010879
:10001000C9030108CB030108CD030108000000005B
:100020008F9E939B08999697FE000000D1020108CD
:10003000D1030108F8BF010859030108A903010809
:10004000D7030108D7030108D7030108D703010824
:10005000D7030108D7030108D7030108D703010814
:10006000D7030108D7030108D7030108D703010804
:10007000D7030108D7030108D7030108D7030108F4
:10008000D7030108D7030108D7030108D7030108E4
:10009000D7030108D7030108D7030108D7030108D4
:1000A000D7030108D7030108D7030108D7030108C4
:1000B000D7030108D7030108D7030108D7030108B4
:1000C000D7030108D7030108D7030108D7030108A4
:1000D000D7030108D7030108AD350108D70301088C
:1000E000D7030108D7030108D7030108D703010884
:1000F000D7030108D7030108D7030108D703010874
:10010000D7030108D7030108D7030108D703010863
:10011000D7030108D7030108D7030108D703010853
:10012000D7030108D7030108D7030108D703010843
:10013000D7030108D7030108D7030108D703010833
:10014000D7030108D7030108D7030108D703010823
:10015000D7030108D7030108D7030108D703010813
:10016000D7030108D70301083D270108112701081B
:10017000D703010869270108D70301080000000020
:10018000D7030108D703010800F002F800F05CF87B
:100190000AA090E8000C82448344AAF10107DA45E2
:1001A00001D100F051F8AFF2090EBAE80F0013F0D8
:1001B000010F18BFFB1A43F00103184730D40000A9
:1001C00050D400000A444FF0000C10F8013B13F02B
:1001D000070408BF10F8014B1D1108BF10F8015BA0
:1001E000641E05D010F8016B641E01F8016BF9D193
:1001F00013F0080F1EBF10F8014BAD1C0C1B09D1EA
:100200006D1E58BF01F801CBFAD505E014F8016B5B
:1002100001F8016B6D1EF9D59142D6D370470000ED
:100220000023002400250026103A28BF78C1FBD8FF
:10023000520728BF30C148BF0B6070471FB50BF095
:10024000D6FE1FBD10B510BD00F03FFB1146FFF7F5
:10025000F5FF07F06BFA00F05DFB03B4FFF7F2FF68
:1002600003BC00F061FB000080F309887047EFF3E6
:1002700009807047684680F3098804480078C00701
:1002800014BF0220032080F31488704774C901084A
:10029000DFF818C0EFF305831B0618BF6047EFF3C4
:1002A0001483DB0708BF604700DF70473186010811
:1002B000DFF818C0EFF305831B0618BF6047EFF3A4
:1002C0001483DB0708BF604700DF70473D880108E3
:1002D000EFF30980816911F8021C39BB90E80F1017
:1002E000E047EFF3098C194B93E80600914218D0D0
:1002F00059B10CB44FF0010381F821302CE9F00F13
:10030000C1F824C008F032FD0CBC1A60D2F824C039
:10031000BCE8F00F92F821308CF309881BB192F8F9
:100320002000CCF800006FF0020E704710B5084AAC
:100330001268914209D8074C54F8214090E80F10F8
:10034000A047EFF3098C8CE80F0010BD14040020C7
:10035000380901083809010808F0F2FB114B93E84D
:10036000060091421BD00CB44FF0000381F82130FD
:10037000EFF3098C2CE9F00FC1F824C008F0F6FC6B
:100380000CBC1A60D2F824C0BCE8F00F8CF30988CA
:1003900092F821301BB192F82030CCF800306FF089
:1003A000020E70471404002008F0A4FDD6E70000F8
:1003B00007F036FC08F09EFDD0E7000009488047B2
:1003C00009480047FEE7FEE7FEE7FEE7FEE7FEE737
:1003D000FEE7FEE7FEE7FEE704480549054A064B4F
:1003E000704700009D31010889010108286800203C
:1003F000286E0020286A0020286A002000487047E4
:10040000C467002053EA020C00F069802DE9F04B2C
:100410004FF00006002B1FBFB3FA83F503FA05F473
:1004200024FA05F65E4012BF1643B2FA82F502FACC
:1004300005F4C5F120051EBF22FA05FC44EA0C04B0
:10044000203556EA044C4FEA144418BF641C4FF0A0
:1004500000084FF00009904271EB030C39D30029DA
:1004600019BFB1FA81F701FA07F6B0FA80F700FA7E
:1004700007F6C7F120071EBF20FA07FC46EA0C0664
:100480002037B6FBF4FCA7EB0507103F07F01F0B66
:10049000CBF120060CFA0BFB2CFA06F644BFB34650
:1004A0000026202FA4BF5E464FF0000B5BEA060C2F
:1004B00008BF4FF0010B19EB0B09ABFB027C48EBBB
:1004C0000608C01B06FB02CC0BFB03CC71EB0C0136
:1004D000C1E70B46024641464846BDE8F08B13B5DE
:1004E0004FF000004FF00001AFF30080BDE81C406A
:1004F000704740EA010310B59B070FD1042A0DD3C2
:1005000010C808C9121F9C42F8D020BA19BA8842F4
:1005100001D9012010BD4FF0FF3010BD1AB1D30733
:1005200003D0521C07E0002010BD10F8013B11F869
:10053000014B1B1B07D110F8013B11F8014B1B1B92
:1005400001D1921EF1D1184610BD10B5431C02E036
:1005500010F8011B71B18107FAD14FF0013202C8C6
:100560008C1A8C4314EAC211F9D0C01A0A0603D0BF
:10057000C01E10BDC01A10BD0A0401D0801E10BDDF
:100580000902FCD0401E10BD40EA010370B59B0774
:100590002ED14FF00136042A2AD308C810C99D1B5A
:1005A0009D43121F15EAC61517D0D8B2E1B2401A02
:1005B00050EA056110D198B2A1B2401A50EA054143
:1005C0000AD123F07F4024F07F41401A50EA0521F0
:1005D00002D1180EA0EB146070BDA342DBD018BA94
:1005E00021BA884201D9012070BD4FF0FF3070BDA3
:1005F0000AB9002070BD10F8013B11F8014B63B13E
:10060000A3420AD1521E08D010F8013B11F8014B49
:100610001BB1A34201D1521EEDD1181B70BD421E69
:1006200012F8013F002BFBD111F8013B002B02F81F
:10063000013BF9D17047032A40F2308010F0030CDF
:1006400000F0158011F8013BBCF1020F624498BF25
:1006500011F801CB00F8013B38BF11F8013BA2F1C2
:10066000040298BF00F801CB38BF00F8013B11F03D
:10067000030300F06780083AC0F0088051F8043B9B
:10068000083A51F804CBA0E80810F5E7121D5CBF4A
:1006900051F8043B40F8043BAFF30080D20724BF7D
:1006A00011F8013B11F801CB48BF11F8012B24BF11
:1006B00000F8013B00F801CB48BF00F8012B704760
:1006C000431A28BF9A427FF6B6AF032A104411445A
:1006D00040F2268010F0030F1EBF11F8013D521E9C
:1006E00000F8013D10F0030F7FF4F6AF11F00303A3
:1006F00000F0C180083AC0F00B8051F8043D083A80
:1007000051F804CD40F8043D40F804CDFFF7F3BFA5
:10071000121D5CBF51F8043D40F8043DAFF300806A
:10072000D20724BF11F8013D11F801CD48BF11F8DF
:10073000012C24BF00F8013D00F801CD48BF00F8AE
:10074000012C704710B5203AC0F00B80B1E818506A
:10075000203AA0E81850B1E81850A0E81850BFF4AB
:10076000F5AF5FEA027C24BFB1E81850A0E818504A
:1007700044BF18C918C0BDE810405FEA827C24BF9E
:1007800051F8043B40F8043B08BF7047D20728BF2C
:1007900031F8023B48BF11F8012B28BF20F8023B7B
:1007A00048BF00F8012B704702F0FF0343EA032221
:1007B00042EA024200F002B84FF000020429C0F001
:1007C000128010F0030C00F01B80CCF1040CBCF183
:1007D000020F18BF00F8012BA8BF20F8022BA1EBD5
:1007E0000C0100F00DB85FEAC17C24BF00F8012BBA
:1007F00000F8012B48BF00F8012B70474FF00002B2
:1008000000B5134694469646203922BFA0E80C5006
:10081000A0E80C50B1F12001BFF4F7AF090728BFE1
:10082000A0E80C5048BF0CC05DF804EB890028BF5D
:1008300040F8042B08BF704748BF20F8022B11F086
:10084000804F18BF00F8012B704770477047704702
:10085000431A28BF9A427FF675AF104410F0030F79
:1008600011441EBF11F8013D521E00F8013D10F069
:10087000030F7FF4F6AF103AC0F00A8010B531E9EB
:100880001850103A20E91850BFF4F9AFBDE81040F5
:10089000530724BF31E9081020E9081044BF51F87C
:1008A000043D40F8043D12F0030F08BF7047D20723
:1008B00028BF31F8023D48BF11F8012C28BF20F8AD
:1008C000023D48BF00F8012C70477546FFF796FDC2
:1008D000AE4605006946534620F00700854618B02D
:1008E00020B5FFF779FDBDE820404FF000064FF03E
:1008F00000074FF000084FF0000B21F00701AC4655
:10090000ACE8C009ACE8C009ACE8C009ACE8C00973
:100910008D46704710B50446AFF300802046BDE811
:100920001040FFF79ABC000001491820ABBEFEE75B
:100930002600020070470000000000002DE9F04191
:1009400002787F2A03D0BDE8F04100F057B801F8E3
:10095000012B457801F8015B861C0C464FF002170D
:1009600008E02146304600F049F8074406EB1046FF
:1009700014FA80F46D1EF4D23846BDE8F08170B5EB
:10098000024600200346062A16D006DC052A13D2AA
:10099000DFE802F01212121B1F004024FD2A0BD0C8
:1009A0000BDCF02A24D0F12A06D10C7042204870CA
:1009B0000F208870CB70042070BDFE2A1AD0FF2A49
:1009C000FAD10C704B70022070BD0D4606F044FD4C
:1009D00002E00D4606F048FD0646FFF7B6FD401C56
:1009E000C4B2224631462846FFF725FE204670BD98
:1009F000312000E004200870012070BD2DE9F84F7F
:100A00000278A2F180031F2B03D800F03DF9BDE866
:100A1000F88FA2F1A0035E2B02D800F0C7F9F6E729
:100A200001F8012B0C4610F801CBDFF844B2002688
:100A30008F4FFF218F4B904ADFF840A24FF0010902
:100A4000ABF1180B4FF00115BCF11E0F71D2DFE8AE
:100A50000CF00F17274DB6BFD970F661717070702A
:100A6000707075797D8D9AB1B47070707070709679
:100A70000078611CFFF783FF207000F10210C6E7C9
:100A8000027822B1012A52D021701846DCE0407869
:100A9000C00702D04FF4800000E04020386046E0FC
:100AA00006782EB1012E04D0002626702846CBE011
:100AB0000126C84682F800900D21584607F074FAC6
:100AC0004FF4005038600B21584607F06DFA4FF490
:100AD0000060386001220C21584607F02FFA0021EF
:100AE000584607F091FAC7F80080DEE7167000223A
:100AF0000D215D46584607F021FA00220B212846B9
:100B000007F01CFA00220C21284607F017FA26707D
:100B1000484699E001885A485A4A0068B0FBF2F00A
:100B20000322801CB0FBF2F04843401EFDD126702A
:100B3000ABE798E066702670022085E0214600F061
:100B400067FC81E0214600F039FC7DE010F8015B94
:100B500001460DB94FF48075284602F0B9FAED1D33
:100B60002670E808000400F101106DE0007800F044
:100B70000301491C1176C0F38000507695E72146A9
:100B800000F062F960E0217001210C4610F8013B91
:100B90000BE000BF10F8012B12F03F0200D1402201
:100BA000D21DD20811441044491C5B1EF2D244EA03
:100BB000014049E000782170D4E7217076E70178A0
:100BC0001173B0F801101182B0F80300508248E0B0
:100BD00012782146012A12D0421C12F8013B43B17F
:100BE00012F8014BA50701D5E40600D5121D5B1EC6
:100BF000F6D1101A0E7000044E70801C24E000F034
:100C00006FF921E0054610782146012809D00E70C1
:100C10004E70A6700321E878800707D541F4802044
:100C200012E0284600F038FB0146F4E7B5F8010071
:100C30004FF4802202EB8040084305E0FFE7127882
:100C4000012A04D02170504600F10110DFE601793D
:100C5000D0F8010061F31F6000906946002001F0A8
:100C60005DFE2670EFE704F8011C2846CFE6000081
:100C700018040240010002004405002001000500A4
:100C8000D402002040420F002DE9FC47027801F811
:100C9000012B0D4610F8011B4FF0011406460020F1
:100CA000670080394FF0010804F101090E296FD265
:100CB000DFE801F0071722313A6E6E6E42525C6037
:100CC000647106F0C9FB0646FFF73FFCC4B22C7006
:100CD000681C22463146FFF7AEFC04F58034A41CA4
:100CE00056E00724684602F00DFE22466946284673
:100CF000FFF7A1FC2B4C4BE0684602F003FE306886
:100D00000090684602F01AFE002002F08DFE85F881
:100D10000080254C3CE03E21681C09F0F5FD00F503
:100D200080342870A41C33E03778701C394609F0F1
:100D300089FE85F8008027E085F80080317811B1C0
:100D4000012902D005E0002000E0012006F080FE2D
:100D500000E028703C461BE085F8008005F058F95B
:100D600010B9022009F08CFB4C4611E0307808F0F5
:100D700091FBEEE708F060FB2870F5E73778701C10
:100D8000394608F021FC287004EB074404F10114F3
:100D90002046BDE8FC872870307800B1012006F0BD
:100DA000FBF8D7E70900010002000500FF200870EA
:100DB0004FF001107047000038B52148016841F03C
:100DC00001010160016801F001010091016841F039
:100DD00002010160016801F002010091016841F027
:100DE00004010160016801F004010091016841F013
:100DF000080101600068134D00F0080000900D210B
:100E0000284607F0D1F80F4C4FF4005018342060FA
:100E10000B21284607F0C8F8E014206001220C21BD
:100E2000284607F08BF80021284607F0EDF801204E
:100E300020600621284607F0B7F84020206038BD22
:100E400030380240000402402DE9F05F002201F832
:100E5000012B012510F8016B8A46A9460446DFF8EC
:100E60007CB035E014F8017B17F03F0000D1402042
:100E7000C01D4FEAD00838060AD54FF40061CBF800
:100E80000010164801220B21183807F057F808E027
:100E900012480B21183807F087F84FF00060CBF8A4
:100EA000000052462146384601F0E2FC46B90B48A4
:100EB0000B21183807F078F84FF00060CBF80000ED
:100EC000380602D5C244C14401E0444445446D1C87
:100ED000761EC7D249EA0540BDE8F09F18040240DB
:100EE0002DE9F04F87B08B4601F1020804460590CA
:100EF000E74900200290087001906678A41C8146A2
:100F0000002E71D0DFF88CA314F8015BA9076CD513
:100F1000B9F1000F50D0BAF8107005F01100012897
:100F20000AD0DFF86C9369460E2001F0F7FC022826
:100F300012D04FF0000905E06946284601F0EEFCAA
:100F4000022802D0012806D10FE07F1E03D3D0492A
:100F500009780029F0D047E17F1E03D399F80010EB
:100F60000029E0D04FF000093EE1009988F8001018
:100F7000009A08F10101120A01F8012B009A120CE3
:100F800001F8012B009A120E01F8012B8846B9F1E5
:100F9000000F11D029060FD5DAF8081008F1010268
:100FA00088F800100B0A02F8013B0B0C02F8013B19
:100FB000090E02F8011B9046E9064DD5E17854F878
:100FC000040B61F31F600490BAF812000390E80765
:100FD00014D0BAF810700021284601F09FFC0228B6
:100FE00004D00128B7D109E01FE197E07F1E791CEA
:100FF000B1D0A74909780029EDD0F5E0BAF8107012
:101000006946284601F08AFC022802D0012817D13F
:1010100006E07F1E14D39E4909780029F0D00FE026
:10102000DAF8142000990A4004998A4208D00399FA
:10103000491E0391491C03D0954909780029DDD048
:10104000DAF81410009A1140049A914201D040F04D
:101050001000012816D15FE0BAF81070E90727D018
:10106000B9F1000F58D10021284601F057FC0228A1
:1010700002D0012806D106E07F1E03D384490978F7
:101080000029F0D0B0E029060FD5DAF8082008F1E1
:10109000010188F80020130A01F8013B130C01F844
:1010A000013B120E01F8012B88464FF0010933E095
:1010B0006946284601F032FC022802D0012806D1F8
:1010C00006E07F1E03D3724909780029F0D08BE037
:1010D00029060FD5DAF8081008F1010288F8001087
:1010E0000B0A02F8013B0B0C02F8013B090E02F857
:1010F000011B9046009988F80010009A08F1010140
:10110000120A01F8012B009A120C01F8012B009A27
:10111000120E01F8012B884600215AE0B9F1000FA8
:1011200025D0BAF8107069460E2001F0F7FB0228AE
:1011300002D0012858D106E07F1E55D354490978C2
:101140000029F0D050E0009888F80000009908F1DC
:101150000100090A00F8011B00994FF00009090C71
:1011600000F8011B0099090E00F8011B8046E17888
:1011700054F8040B61F31F600090A90603D5CAF868
:101180001400012026E0BAF810706946284601F0E4
:10119000C5FB022802D0012826D107E07F1E791C5A
:1011A00022D03B4909780029EFD01DE029060FD550
:1011B000DAF8081008F1010288F800100B0A02F8AA
:1011C000013B0B0C02F8013B090E02F8011B904693
:1011D000012101910299491C02912D49097819B9FF
:1011E000761E7FF491AE09E046B114F8011B8A0720
:1011F00001D5C90600D5241D761EF5E7012839D191
:10120000B9F1000F25D0BAF81050214E69460E20D2
:1012100001F084FB022802D001282BD106E06D1ECC
:10122000691C27D031780029F0D023E0009988F894
:101230000010009A08F10101120A01F8012B009A2E
:10124000120C01F8012B009A120E01F8012B8846AE
:1012500010E0019971B1BAF810500D4E00210E2026
:1012600001F05CFB022805D16D1E691C02D03178AB
:101270000029F3D002998BF800108BF80100059833
:10128000A8EB0B01201A07B041EA0040BDE8F08F3F
:1012900000000020440500202DE9F84FDFF81481FC
:1012A0000027044638460D4601F1030A88F800700D
:1012B000B4F80160E41C002E73D014F8019BDFF831
:1012C000F8B05FEA89715CD55FEAC9713CD0BBF8C0
:1012D00010400021484601F021FB022802D00128DD
:1012E0005FD131E0641E5CD398F800100029F0D083
:1012F00057E026B95FEAC97001D04FF00E09BBF87C
:1013000010406946484601F009FB022802D0012836
:1013100047D106E0641E44D398F800100029F0D0AD
:101320003FE000998AF80010009A0AF10101120AC0
:1013300001F8012B009A120C01F8012B009A120EF1
:1013400001F8012B8A467F1C761ED2D229E0E17873
:1013500054F8040B61F31F600090BBF810806946DD
:10136000484601F0DBFA022802D0012819D107E033
:10137000B8F1010815D30F4909780029EFD010E022
:101380007F1C761EE3D2BBF810400A4E00210E20CF
:1013900001F0C4FA022804D1641E02D33178002976
:1013A000F4D02F70390A6970A870AAEB0500BDE867
:1013B000F88F0000000000204405002030B5C278FE
:1013C0000368104862F31F634BB10F4A002415688D
:1013D0000E4AB3EB950F05D3012353700FE0FF22A4
:1013E0000A7030BD03EB55056D1EB5FBF3F3547069
:1013F000022B03D90325B3FBF5F300E0012353606F
:101400000C7030BD01000400D4020020440500200F
:101410002DE9F0478A464179D0F802600578447892
:1014200061F31F663348E10707D0E90702D04FF4A4
:10143000005101E04FF000510160A10707D5A90755
:1014400002D54FF4006101E04FF000610160210618
:1014500007D5E909C90701D0012101E04FF4803126
:101460000160DFF89090A9F10409A9F104086EB3B6
:101470002148864200D9064601F0B0FE0746E00743
:1014800005D0D9F80000C0F34030A84219D1A00718
:1014900006D5D8F80000C0F30030B0EB550F10D1DE
:1014A000600701D5A8080CD1A00601D5680908D1AC
:1014B00020060BD5D8F8000000F00100B0EBD51FD6
:1014C00004D001F08BFEC01BB042D8D3D9F8000085
:1014D000D8F80020C0F34031C2F30032D8F8000041
:1014E00041EA420141EAC0108AF800000348BDE821
:1014F000F087000018040240C0C62D00010006005D
:101500000A4800210A4A017041701268094BB2FB77
:10151000F3F2921E42600173642202824182012230
:10152000416102764176FFF747BC00004405002088
:10153000D40200208096980070B50446D0F80801C7
:101540001D460E4600282AD0402A00DD4022401EBB
:10155000C4F80801D4F8100104EB8010FFF76BF811
:10156000D4F8100104EB80113046FFF7E7F9D4F806
:10157000101104EB4101A1F80001D4F8100104EBB3
:101580008010286094F81001401C00F00300C4F89B
:101590001001D4F80C01401CC4F80C01012070BDEE
:1015A000D0F80C31E3B15B1EC0F80C31D0F8143127
:1015B00000EB83130B60D0F8141100EB4101B1F87C
:1015C0000011116090F81411491C01F00301C0F8DA
:1015D0001411D0F80811491CC0F8081101207047F7
:1015E000002070470022C0F810210421C0F8142107
:1015F000C0E942127047000010B586B0002400F028
:1016000019FA14216846FFF7F9F8002000900948FC
:101610000069C06800F01CF902900120039005A940
:10162000684600F073F900B1012400F0BBF906B080
:10163000204610BDF8BF0108002229B101291AD0A7
:1016400002291BD04FF440720E490B6823F44073FB
:101650000B600B6813430B600A6822F0F8020A6003
:101660000A68022303EBC00002430A60086840F4E2
:101670008030086070474FF48072E5E74FF40072E5
:10168000E2E70000103C02401348016889050FD5CD
:10169000016821F400710160016841F4006101609A
:1016A000016821F400610160016841F4007101608A
:1016B000016849050FD5016821F480610160016866
:1016C00041F480510160016821F48051016001689A
:1016D00041F4806101607047003C024008490A689B
:1016E00022F440720A600A6842F004020A600A6842
:1016F0004FF4803343EA002002430A607047000041
:10170000103C0240064A136823F4407313601368C8
:101710001360136843F00103136001707047000009
:10172000103C0240094910B50C6824F440740C6068
:101730000C6844F440740C600C6844F001040C60C4
:101740000260BFF36F8F436010BD0000103C024089
:10175000074A136823F440731360136843F48073DB
:101760001360136843F001031360018070470000A9
:10177000103C0240074A136823F440731360136857
:1017800043F400731360136843F0010313600160B6
:1017900070470000103C024017490868C20617480D
:1017A00005D5C26942F01002C26110220A600A68BF
:1017B000920605D5C26942F00802C26120220A6081
:1017C0000A68520605D5C26942F00402C26140228D
:1017D0000A600A68120605D5C26942F00202C261B7
:1017E00080220A600A68920705D5C26942F0200289
:1017F000C2610220086070470C3C02401C59002066
:1018000070B5114904460020C86100F00BFA064685
:101810000E4D09E0601C07D024B100F003FA801BD4
:10182000A04201D9032070BD2868C003F2D4286803
:10183000C00701D001202860286810F0F200F2D023
:10184000FFF7AAFF012070BD1C5900200C3C02408C
:101850000021A0F100634FF4804293423FD321491D
:101860000144914201D2012139E01F4901449142D2
:1018700001D2022133E01D490144914201D20321EA
:101880002DE01B490144B1F5803F01D2042126E03F
:10189000184942184FF400318A4201D205211EE056
:1018A000154A02448A4201D2062118E0134A024432
:1018B0008A4201D2072112E0114A02448A4201D22F
:1018C00008210CE00F4A02448A4201D2092106E0B5
:1018D0000D4A1044884201D20A2100E00B2108463B
:1018E0007047000000C0FFF70080FFF70040FFF7DF
:1018F0000000FFF70000FEF70000FCF70000FAF719
:101900000000F8F70000F6F70000F4F72DE9F047C3
:10191000044622480F46017E01290AD00121804653
:1019200001764CF250394846FFF76AFF020003D0B7
:101930002FE00220BDE8F0874FF0FF3038602068CC
:10194000174D012801D0A6681CE0207C6168FFF7D4
:10195000C5FE4846FFF754FF0246286820F0040001
:10196000286014E0217C3046FFF766FE4846FFF70A
:1019700047FF0200286820F0FA00286001D03E608E
:1019800005E0761CD4E902100844B042EAD8FFF71B
:101990007BFE002188F818101046CBE71C59002068
:1019A000103C02400348016841F000410160002002
:1019B00070470000103C02402DE9F0471B4E0546E1
:1019C0001446307E1F468946012808D00120307613
:1019D0004CF250384046FFF713FF18B114E00220D4
:1019E000BDE8F0879DB1012D16D0022D19D02246F9
:1019F0003B464846FFF796FE4046FFF701FF0C497D
:101A00000A6822F001020A6000213176E8E7E1B2BB
:101A10004846FFF777FEEFE7A1B24846FFF798FE8A
:101A2000EAE721464846FFF7A5FEE5E71C590020F6
:101A3000103C0240074900200A68002A09DA054ADA
:101A4000054B0C3A1360054B13600968002900DA56
:101A500001207047103C024023016745AB89EFCD60
:101A60002DE9F84F00224FF0010803254FF00F0E2B
:101A70000B6808FA02F42340A3426ED14E68012E8F
:101A800005D0022E03D0112E01D0122E12D186685D
:101A90004FEA420C05FA0CF7BE43CF6807FA0CF781
:101AA000374387604668A6430C79C4F3001494401A
:101AB00034434460C668570005FA07FC8C6826EA80
:101AC0000C06BC403443C4604C68022C01D0122C7C
:101AD00013D1D40800EB8404A346D4F82090540713
:101AE0004FEAD46A0EFA0AF629EA06090E6906FADE
:101AF0000AF646EA0906CBF8206006680C7926EA61
:101B00000C0604F00304BC40344304604C68E40059
:101B100065D5364C266846F480462660246822F057
:101B2000030604F480440094314C3444A446D4F8B1
:101B300008489607370F0EFA07F6B4432D4EB04209
:101B400001D1002624E02C4EB04201D101261FE035
:101B50002A4EB04202D102261AE040E0284EB0429E
:101B600001D1032614E0274EB04201D104260FE034
:101B7000254EB04201D105260AE0244EB04201D1E3
:101B8000062605E0224EB04201D1072600E00826D5
:101B9000BE402643CCF808681E4E34684F689C430C
:101BA000FF0300D51C4334601A4C241D26684F687F
:101BB0009E43BF0300D51E432660164E0836346888
:101BC0004F689C43FF0200D51C433460114E0C3615
:101BD00034684F689C43BF0200D51C433460521CDC
:101BE000102AFFF445AFBDE8F88F000044380240EA
:101BF00000300140000002400004024000080240A2
:101C0000000C024000100240001402400018024084
:101C1000001C0240003C01400AB181617047090488
:101C2000FBE70000EFF3108010F0010F72B60748D9
:101C30000068406A064A1368C3EB9000C0F30D00C9
:101C40001844106000D162B6704700007C59002033
:101C5000E40200200B4810B5016841F400710160F6
:101C6000016841F480610160016841F480710160A4
:101C7000032000F09BF80F2000F006F800F056F863
:101C8000002010BD003C024010B588B006A901A894
:101C900000F038F90498B0F5805F08D0B0F5A05F87
:101CA00035D0B0F5C05F34D0B0F5E05F33D001205F
:101CB0001A494FF0804200240968B1FBF0F04FF45C
:101CC0007A61B0FBF1F11648491E02604FF6FF72CF
:101CD000C0E90324C0E9011444611248016841F0DD
:101CE00001010160006800F0010000900C4800F064
:101CF00029FB002809D10C480460094800F03EFB8C
:101D0000002802D1064800F056FB08B010BD0220A2
:101D1000CEE70420CCE70820CAE70000D402002068
:101D20007C59002040380240E4020020704700281F
:101D30000DDB00F01F02012191404009800000F1FD
:101D4000E020C0F88011BFF34F8FBFF36F8F704753
:101D5000002809DB00F01F020121914040098000AA
:101D600000F1E020C0F8001170470000F0B40E4B05
:101D70001B680C46C3F30223C3F10705042D00D9E9
:101D80000425191D072901D2002300E0DB1E0126CE
:101D900006FA05F1491E214099409E40761E1640E4
:101DA0003143F0BC03F066BF0CED00E0064900F0E3
:101DB000070208684FF6FF03184040EA0220034A72
:101DC00010430860704700000CED00E00000FA05C9
:101DD0002DE9F0470E46050065D0DFF81481D8F8EC
:101DE0000000F7B200F00F00B04207D288F8007090
:101DF000D8F8000000F00F00B04254D128683D4CE4
:101E0000810712D5400703D5206840F4E0502060D8
:101E10002878000703D5206840F4604020602068DF
:101E2000A96820F0F000084320602878C0072DD072
:101E3000304968680839012812D0022813D00328D5
:101E400011D00968890700292DDA216821F00301E2
:101E500001432160FFF7E6FE814641F2883A0EE039
:101E600009688903EFE709688901ECE7FFF7DAFE03
:101E7000A0EB0901514502D90320BDE8F087206895
:101E8000696800F00C00B0EB810FEFD1D8F80010BA
:101E9000404601F00F01B14207D90770006800F019
:101EA0000F00B04201D00120E7E72878400705D5B0
:101EB0002068E96820F4E050084320602878000793
:101EC00006D52068296920F4604040EAC1002060FE
:101ED00000F058F82168084AC1F30311515CC8406A
:101EE0000649086006480068FFF7CEFE0020C4E7F8
:101EF000003C0240083802403CC70108D4020020E0
:101F0000DC0200200F2202600C4A136803F0030376
:101F10004360136803F0F0038360136803F4E05335
:101F2000C36012684FF4E05303EAD202026104482E
:101F3000006800F00F000860704700000838024099
:101F4000003C02400448054900680968044AC1F39E
:101F50008221515CC8407047D402002008380240FA
:101F60004CC701080448054900680968044AC1F3E0
:101F70004231515CC8407047D4020020083802400A
:101F80004CC70108154810B5006810F00C02144841
:101F900013D01449042A0FD0082A0ED10F4C241F45
:101FA0002268236802F03F025B0207D52068C0F375
:101FB0008810A0FB010106E0084610BD2168C1F3AE
:101FC0008811A1FB00010023FEF71CFA2168C1F370
:101FD0000141491C4900B0FBF1F010BD0838024036
:101FE0000024F40040787D012DE9F84F040076D0FC
:101FF0002078DFF838A3CE4DC00749D0DAF80010BA
:102000005046C1F38101012908D00068C0F3810066
:1020100002280AD1281D0068400206D528688003DE
:1020200036D560680028E2D032E06068B0F5803FC5
:1020300010D0B0F5A02F286810D020F48030286090
:10204000286820F4802028606068A0B1FFF7EAFDCE
:1020500006460CE0286840F48030F4E740F4802025
:102060002860F7E7FFF7DEFD801B642873D8286837
:102070008003F7D50CE0FFF7D5FD064605E000BF6D
:10208000FFF7D0FD801B6428F0D828688003F7D4C0
:102090002078DFF8A08280074FF000093ED5DAF8FB
:1020A0000010504611F00C0F09D00068C0F38100F9
:1020B00002280BD19D48001F0068400206D4286802
:1020C000800715D5E068012809D111E0E068B8B1B2
:1020D0000120C8F80000FFF7A5FD064605E020E155
:1020E000FFF7A0FD801B0228C0D828688007F7D51D
:1020F0002868216920F0F80040EAC10028600DE05E
:10210000C8F80090FFF78EFD064604E0FFF78AFD51
:10211000801B02281FD828688007F7D42078000782
:1021200022D5824E844861696C3671B1012101600B
:10213000FFF778FD074604E0FFF774FDC01B022897
:1021400009D830688007F7D50EE0C0F80090FFF797
:1021500069FD074605E082E0FFF764FDC01B022829
:102160007DD830688007F7D42078400768D5DFF83D
:10217000BCB100270BF1380BDBF80000C0000BD41A
:10218000DBF8001041F08051CBF80010DBF80000C4
:10219000012700F080500090684E3068C00510D4D0
:1021A000306840F480703060FFF73CFD009005E03F
:1021B000FFF738FD0099401A022850D83068C00552
:1021C000F6D55A4EA068683601280FD00528306829
:1021D00010D020F001003060306820F00400306042
:1021E000A068B8B1FFF71EFD00900FE0306840F026
:1021F0000100F4E740F004003060F7E7FFF712FD5C
:102200000099411A41F28830814266D830688007CF
:10221000F4D50EE0FFF706FD009007E0FFF702FDA2
:102220000099411A41F28830814256D830688007BF
:10223000F4D42FB1DBF8001021F08051CBF800105E
:10224000A069D0B3DAF800205146C2F38102022A15
:102250004AD00228484607D0C8F8600000E03CE0B9
:10226000FFF7E0FC04463BE04746C8F86000FFF794
:10227000D9FC064605E000BFFFF7D4FC801B02280E
:102280002BD828688001F7D4D4E907010843A16A54
:102290002B4A490802EB0141626A41EA8211084374
:1022A00094F82C1040EA01612048001F01600120D1
:1022B0003866FFF7B7FC044605E034E0FFF7B2FCF0
:1022C000001B022809D828688001F7D52BE000BF41
:1022D000FFF7A8FC001B022802D90320BDE8F88FF5
:1022E00028688001F4D41EE00128F7D00868E2696C
:1022F00000F48001914214D1226A00F03F01914222
:102300000FD147F6C071626A0140914209D1A26AB9
:1023100000F44031914204D1E16A00F070608842DB
:1023200001D00120DAE70020D8E700000838024099
:102330000038024000004742800E474200700040D3
:102340000000FFFF10B50446022084F83D0020681D
:10235000016A41F21112114207D1016A9210114231
:1023600003D1016821F001010160204600F021F84D
:10237000002084F83D0084F83C0010BD10B5040036
:1023800003D094F83D0010B107E0012010BD0020FB
:1023900084F83C00204600F00DF8022084F83D004F
:1023A000211D206800F03AFF012084F83D00002044
:1023B00010BD70477047022180F83D1001688A689F
:1023C00002F00702062A03D00A6842F001020A60FE
:1023D000012180F83D100020704770B5044690F848
:1023E0003C000D4601280DD0012684F83C600220F7
:1023F00084F83D0042B1042A18D0082A2AD00C2AB9
:102400004DD139E0022070BD206800F079FF2068CE
:10241000816941F0080181612068816921F004012E
:102420008161206881692A69114311E0206800F008
:1024300097FF2068816941F40061816120688169AA
:1024400021F480618161206881692A6941EA022161
:10245000816124E0206800F0B9FF2068C16941F083
:102460000801C1612068C16921F00401C1612068CF
:10247000C1692A69114311E0206800F0DBFF206880
:10248000C16941F40061C1612068C16921F48061C2
:10249000C1612068C1692A6941EA0221C16184F8E9
:1024A0003D60002084F83C0070BD10B50446022059
:1024B00084F83D002068016A41F21112114207D1EF
:1024C000016A9210114203D1016821F001010160FB
:1024D000204600F021F8002084F83D0084F83C00FC
:1024E00010BD10B5040003D094F83D0010B107E012
:1024F000012010BD002084F83C00204600F00DF8BB
:10250000022084F83D00211D206800F087FE012094
:1025100084F83D00002010BD7047704710B5044698
:102520000068012200F0DEFE0B492068884202D0DC
:102530000A49884203D1416C41F40041416420685A
:10254000816801F00701062903D0016841F001010B
:102550000160002010BD00000000014000040140A7
:1025600010B5040013D0242084F839002068C16815
:1025700021F40051C160204600F03CF80020E063E7
:1025800084F8390084F83A0084F8380010BD01203E
:1025900010BD70B5040004D094F83900002510B1C6
:1025A00006E0012070BD84F83850204600F023F882
:1025B000242084F839002068C16821F40051C160EA
:1025C000204600F05FFF2068016921F4904101611D
:1025D0002068416921F02A0141612068C16841F405
:1025E0000051C160E563202084F8390084F83A0086
:1025F000002070BD70477047EFF308840EF00F00A5
:102600000D2801D1EFF30984A08B04F1200580058A
:1026100000D52D1D5FEACE6000D44835704603F02A
:102620005BFDEFF3098003F057FDEFF3088003F043
:1026300053FDEFF3148003F04FFD284603F04CFDEB
:10264000606903F049FDA06903F046FDE06903F00D
:1026500043FD1248006803F03FFD1048001F00686A
:1026600003F03AFD0D48001D006803F035FD0B48EE
:102670001030006803F030FD08480830006803F0AF
:102680002BFD06480C30006803F026FD4A2204A109
:10269000002003F041FB00F08FFDFEE72CED00E091
:1026A0002E2E5C2E2E5C2E2E5C6461706C696E6B1F
:1026B0005C486172644661756C745F48616E646CFD
:1026C00065722E6300000000002070471CB507F003
:1026D000C5F900281BD09E208DF80000E7208DF85A
:1026E00001006946102000F0F3FC07F0B7F900285C
:1026F0000DD000208DF800006946082000F0E8FCAD
:1027000001A9002007F03CF9012800D000201CBDE1
:10271000084810B54069084908604A20FFF707FBE0
:102720004B20FFF704FB4D20FFF701FBBDE81040F5
:1027300003F046BA00000440F4030020084810B536
:102740004069084908604A20FFF7F1FA4B20FFF77B
:10275000EEFA4D20FFF7EBFABDE8104003F030BA77
:1027600000000440F4030020084810B540690849FF
:1027700008604A20FFF7DBFA4B20FFF7D8FA4D201C
:10278000FFF7D5FABDE8104003F01ABA0000044084
:10279000F403002070B5164C0D21204605F01CFCFA
:1027A000134D4FF40050183528600B21204605F0DA
:1027B00013FCE014286001220C21204605F0D9FB0F
:1027C000206820F0030020602168012041F0010111
:1027D0002160616841F001016160A16841F003017D
:1027E000A160E16821F00301E160286070BD000094
:1027F000000402402DE9F04117460D4680460026B0
:10280000FFF718F9A80706D000209C220DA103F0BD
:1028100083FA00240EE00120F7E700BF57F82420D8
:1028200008EB840100230220FFF7C6F808B1012657
:1028300003E0641CB4EB950FF0D3FFF7B3F8304618
:10284000BDE8F0812E2E5C2E2E5C2E2E5C68696316
:102850005F68616C5C73746D33325C73746D3332BA
:102860006634303778785C666C6173682E6300007C
:10287000F0B510F03F0300D14023DFF89CE00506DF
:10288000244CDEF804004FF000574FF4005C1DD4D8
:102890003CE00021082614E02760DEF8040005462D
:1028A0006D1EFDD11B4D083D2D68C4F800C0C5F359
:1028B000C025401EFDD148085B1E40EAC511761EAA
:1028C00001D0002BE8D1F14002F8011B002BE0D130
:1028D000F0BD00BF11F8012B082614E0D50702D087
:1028E0004FF4006501E04FF0006525602760054664
:1028F0006D1EFDD1C4F800C005466D1EFDD1520805
:102900005B1E761E02D0002BE8D1F0BD002BE1D17A
:10291000F0BD00001804024044050020034A52782C
:102920000AB100F005B800F085B9000044050020A8
:102930002DE9F05FBD4C8E464FF4006121608D049F
:1029400025608E002660C3074FF0006201D0216031
:1029500000E022602560266043085FEAC37C01D066
:10296000216000E0226025602660C71883085FEAC6
:10297000C37C01D0216000E02260256026601F44F6
:10298000C3085FEAC37C01D0216000E022602560BB
:1029900026603B44DB0701D0216000E02260256017
:1029A00026609146226025602660216025602660B1
:1029B0008B462160DFF874A2AAF1180ADAF8002029
:1029C00022F44002CAF80020DAF80C2022F4400277
:1029D000CAF80C20DAF8082042F48002CAF808206D
:1029E0009349097E0A1E03D025602660491EFBD14B
:1029F00025608E4908390B682660C3F3C023256023
:102A00000F682660C7F3C02743EA470325600F68B5
:102A10002660C7F3C02743EA8707012F2ED0022F75
:102A200074D0042F72D0213203D025602660521E4C
:102A3000FBD1DAF8001021F44001CAF80010DAF8EE
:102A4000001041F48001CAF80010DAF8042022F4E2
:102A50000062CAF80420DAF8082042F44002CAF8FA
:102A60000820DAF80C2022F44002CAF80C20C4F83E
:102A70000090C4F800B03846BDE8F09F830746D503
:102A80004FF0000C624620232560D1F800802660BC
:102A9000C8F3C0284FEA5C0C42444CEAC87C5B1E79
:102AA000F2D125600968266082EAD122D10700D0E0
:102AB0000827BEF1000F01D0CEF800C05C49097EA6
:102AC00019B125602660491EFBD1DAF8002022F4F6
:102AD0004002CAF80020DAF8002042F48002CAF866
:102AE0000020DAF8042022F40062CAF80420DAF8A0
:102AF000082042F44002CAF80820DAF80C2022F438
:102B00004002CAF80C20C4F8009041E052E01AB12B
:102B100025602660521EFAE7DAF8002022F440020F
:102B2000CAF80020DAF8002042F48002CAF8002037
:102B3000DAF80420D84622F40062CAF80420DAF851
:102B4000082042F44002CAF80820DAF80C2022F4E7
:102B50004002CAF80C20C4F800900022DEF80010F1
:102B6000202300BF5FEAC17C01D0C44600E0CC4610
:102B7000C4F800C0256026600A4449085B1EF1D1F4
:102B8000D10701D0414600E049462160256026601A
:102B9000000603D500F032FB254988602448007BFD
:102BA00028B1C4F8009025602660401EFBD1C4F80F
:102BB00000B060E71E494B7E33B1810704D5212167
:102BC00025602660491EFBD11AB125602660521E81
:102BD000FAE7DAF8002022F44002CAF80020DAF816
:102BE000002042F48002CAF80020DAF804C05A46F5
:102BF0002CF4006CCAF804C0DAF808C04CF4400C9D
:102C0000CAF808C0DAF80CC02CF4400CCAF80CC0A2
:102C10004946C4F800903BB1800705D421602120CB
:102C200025602660401EFBD1226024E71804024084
:102C3000440500202DE9F35FFF4C4FF400620027AC
:102C4000226093042360DFF8F483D8F804100D4663
:102C50006D1EFDD14FF4005525600E46761EFDD148
:102C60005FEAC07C4FF0006601D0226000E0266081
:102C700023608C46BCF1010CFCD12560C1468C461A
:102C8000BCF1010CFCD107EB000C47085FEAC778E8
:102C900001D0226000E02660984623600B465B1E50
:102CA000FDD125600B465B1EFDD1BC448708FB07A8
:102CB00001D0226000E026604346C4F800808846C8
:102CC000B8F10108FCD1A84625600D466D1EFDD166
:102CD000BC44C708FD0701D0226000E026602360E5
:102CE0000D466D1EFDD14546C4F800804FEA01082F
:102CF000B8F10108FCD16744FF0701D0226000E071
:102D0000266023604F468C46BCF1010CFCD1256047
:102D10004FEA010CBCF1010CFCD1B34626602360E4
:102D20000E46761EFDD125600E46761EFDD1226030
:102D300023600E46761EFDD125600E46761EFDD11F
:102D40004FF400622260DFF8F0E2AEF1180EDEF818
:102D5000006026F44006CEF80060DEF80C6026F431
:102D60004006CEF80C60DEF8086046F48006CEF827
:102D7000086099F818C05FEA0C020AD023600E467A
:102D8000761EFDD125600E46761EFDD1BCF1010CEC
:102D9000F4D123600E46761EFDD1DFF89CC2ACF163
:102DA000080CDCF800602560C6F3C0260F467F1EC5
:102DB000FDD123600F467F1EFDD1DCF80070256039
:102DC000C7F3C0274FEA0108B8F10108FCD146EA71
:102DD00047069A4623600F467F1EFDD1DCF800703F
:102DE000E146C7F3C02725600B465B1EFDD146EACE
:102DF0008706012E36D0022E7ED0042EFCD0213242
:102E00000AD0534623600846401EFDD1256008467F
:102E1000401EFDD1521EF5D1DEF8001021F4400114
:102E2000CEF80010DEF8001041F48001CEF800105A
:102E3000DEF804204FF4006122F40062CEF8042092
:102E4000DEF8082042F44002CEF80820DEF80C201C
:102E500022F44002CEF80C20C4F800B021603046C5
:102E6000BDE8FC9F830763D54FF000084346202749
:102E7000C4F800A00A46521EFDD1D9F800202560F2
:102E8000C2F3C02C0A46521EFDD14FEA58026344D9
:102E900042EACC787F1EEBD1D4462246C4F800A08B
:102EA0000F467F1EFDD1D9F800701560C7F3C0270B
:102EB000DFF88891491EFDD17B40D90700D0082654
:102EC000019909B1C1F8008099F818706FB1D9F86B
:102ED000041000BFC2F800C00B465B1EFDD1156098
:102EE0000B465B1EFDD17F1EF4D1DEF8003023F4CB
:102EF0004003CEF8003000E08EE0DEF8003043F40E
:102F00008003CEF80030DEF8043023F40063CEF8FE
:102F10000430DEF8083043F44003CEF80830DEF821
:102F20000C3023F44003CEF80C30C2F800B058E067
:102F300052B1574627600B465B1EFDD125600B46FC
:102F40005B1EFDD1521EF5D1DEF8003023F44003A4
:102F5000CEF80030DEF8003043F48003CEF80030C5
:102F6000DEF804304FF4006923F40063CEF8043037
:102F7000DEF8083043F44003CEF80830DEF80C30B9
:102F800023F44003CEF80C30D846C4F800B0019AC0
:102F900000274FF0200C1268D30702D0C4F800902D
:102FA00001E0C4F80080C4F800A00B465B1EFDD110
:102FB00025600B465B1EFDD117445208BCF1010C85
:102FC000EAD1FA0702D0C4F8009001E0C4F800800A
:102FD0002346C4F800A00A46521EFDD11D60491EBA
:102FE000FDD1000603D500F009F9144988601348A3
:102FF000027B6AB1C4F800B04068534623600146C2
:10300000491EFDD125600146491EFDD1521EF5D154
:103010004FF40060206022E7084B5F7EAFB183076A
:1030200013D54FF0210CD046C4F800800B465B1E30
:10303000FDD125600B4603E0180402404405002042
:103040005B1EF8D1BCF1010CEED162B14FEA0A0C63
:10305000C4F800C00B465B1EFDD125600B465B1E0D
:10306000FDD1521EF4D1DEF8003023F44003CEF837
:103070000030DEF8003043F48003CEF80030DEF894
:1030800004C04FF400632CF4006CCEF804C0DEF8EA
:1030900008C04CF4400CCEF808C0DEF80CC02CF48C
:1030A000400CCEF80CC05A46C4F800B077B1800787
:1030B0000CD422602122574627600846401EFDD1CD
:1030C00025600846401EFDD1521EF5D12360C6E69C
:1030D00070B5124A00252C460F4E526819E014B9FB
:1030E00011F8015B0824EB0702D04FF4006301E004
:1030F0004FF0006333604FF00053336013465B1EA4
:10310000FDD14FF40053336013465B1EFDD16D08B3
:10311000641E401EE3D270BD180402404405002026
:1031200070B5194C2068194A10F00C01184804D0E9
:10313000184D042903D0082903D002601BE0056064
:1031400019E01149091F0B68C3F380560B6803F09F
:103150003F0316B1B5FBF3F201E0B2FBF3F20B68EB
:103160000968C3F388135A43C1F30141491C49005C
:10317000B2FBF1F101602168074AC1F30311515C10
:103180000268CA40026070BD083802400024F400A2
:10319000D402002040787D013CC701080548016841
:1031A00041F47001016003494FF00060803908600C
:1031B0007047000088ED00E0BFF34F8F05480168BD
:1031C000054A01F4E06111430160BFF34F8F00BF76
:1031D000FDE700000CED00E00400FA050448054995
:1031E0000068B0FBF1F004494968B1FBF0F07047AA
:1031F000D402002040420F00001000E004480549BE
:103200000068B0FBF1F004494968B1FBF0F0704789
:10321000D402002040420F00001000E0F0B5026828
:10322000254C264D264E274F274B4FF0804CA04271
:1032300009D0604507D0A84205D0B04203D0B842BB
:1032400001D0984204D122F0700E4A6842EA0E0280
:10325000A0421BD0604519D0A84217D0B04215D06B
:10326000B84213D0984211D0184DA8420ED0184D34
:10327000A8420BD0174DA84208D0174DA84205D040
:10328000164DA84202D0164DA84203D122F4407533
:10329000CA682A434D6922F080022A4302608A6884
:1032A000C2620A688262A04201D0984201D10969D3
:1032B000016301214161F0BD0000014000040040B4
:1032C00000080040000C00400004014000400140A4
:1032D000004401400048014000180040001C00402C
:1032E0000020004010B501F01F030121046A99403D
:1032F0008C430462016A9A401143016210BD0000D0
:10330000F0B5026A22F001020262036A426884692F
:10331000124E24F073050C682C4323F002058B68D1
:103320002B430D4DA84201D0B04205D123F0080730
:10333000CB683B4323F00403A84201D0B04205D13F
:103340004D6922F4407215438A692A4342608461C0
:10335000496841630362F0BD000001400004014080
:10336000F0B5026A22F010020262026A43688469C0
:103370000D6824F4E64444EA05248D6822F0200216
:1033800042EA05120F4D104EA84201D0B04206D1BC
:10339000CF6822F0800242EA071222F04002A842DF
:1033A00001D0B04207D14D6923F4406343EA85035D
:1033B0008D6943EA850343608461496881630262E1
:1033C000F0BD00000000014000040140F0B5026AB9
:1033D00022F480720262026A4368C46922F40072B5
:1033E00024F073050C68124E2C438D6842EA0522C6
:1033F0000E4DA84201D0B04206D1CF6822F400623F
:1034000042EA072222F48062A84201D0B04207D1EA
:103410004D6923F4405343EA05138D6943EA0513CC
:103420004360C4614968C1630262F0BD00000140AD
:103430000004014030B5026A22F480520262046A3C
:103440004268C3690D6823F4E64343EA05238D68A7
:1034500024F4005444EA0534084DA84202D0084D33
:10346000A84204D14D6922F4804242EA85124260AA
:10347000C36149680164046230BD0000000001407E
:10348000000401402DE9F041044600680169E2684A
:1034900021F44051114301612169A068E2690843A8
:1034A0006169114308432168CA6849F20C639A4371
:1034B0000243CA6020684169A26921F44071114346
:1034C0004161E069192764253226B0F5004F354A7D
:1034D000354920684FF0000806D0884201D090425C
:1034E00036D1FEF73FFD35E0884201D0904202D14F
:1034F000FEF738FD01E0FEF725FD61684A18A0FBE4
:10350000070148EB0803FCF77DFF0146B0FBF5F02F
:103510000201B1FBF5F06FF01803584301EB800096
:1035200006EBC000B0FBF5F000F0F80002EB400243
:10353000B1FBF5F0584301EB800006EBC000B0FB97
:10354000F5F000F00700216810448860BDE8F081C4
:10355000FEF7F8FC61688B0F8A00A0FB0701FCF7FF
:1035600051FF0146B0FBF5F06FF01802504301EB3C
:10357000800006EB0010B0FBF5F000F0F002B1FBAC
:10358000F5F002EB0012B1FBF5F06FF018035843B1
:1035900001EB800006EB0010B0FBF5F000F00F002F
:1035A000D1E70000001401400010014070B515483B
:1035B0000468154DA00612D52868C6B2134802F05B
:1035C0003BFC132804D93146104802F0A1FC06E068
:1035D00005D14FF013020EA10C4802F0E9FC2006C1
:1035E00007D5104802F039FC20B10E4802F056FC15
:1035F000286070BD0448083001680B4A1140016022
:1036000070BD00000044004004440040CC5B00203A
:103610003C4441504C696E6B3A4F766572666C6FF4
:10362000773E0A00BC5900207FFFFFEF0020704763
:103630000348D0E90410081A02490988081A70479B
:103640007404002072C7010870B50B4D0C46034688
:10365000D5E90C0188420BD9401A844200DD0446AA
:1036600022461846FCF7E7FF686B2044686300E0D9
:103670000024204670BD0000740400200020704724
:103680002DE9F041194C0D460746D4E90401401AD2
:1036900017490988081A002802DC0020BDE8F081DB
:1036A000854200DD0546D4E90602002690420FD38C
:1036B000104A431911448B420AD30E1A90463246DF
:1036C0003946FCF7B8FF3744AD1B4046C4F81880B4
:1036D00035B12A463946FCF7AEFFA0692844A061FF
:1036E0002169A81901442161D8E700007404002071
:1036F00072C70108A65F002010B5054C606800285D
:1037000005D10120606000F005F80020606010BD68
:10371000740400202DE9F047234CA06800283DD018
:10372000D4E90401421AE0684FF00006104337D094
:1037300020461E4FDFF87880DFF878901E4DC16973
:103740007AB1A069814205D338888B182844834216
:1037500000D3421A99F8003038F81300904200DA8A
:1037600002461648E660007840F0800002F042FA17
:10377000E1690144E1616269024462613B882B4472
:103780008B4200D1E561216991420BD199F800206B
:1037900038F81210814205D10120E060BDE8F087C1
:1037A000A660FBE7E660F9E77404002072C7010831
:1037B00076C7010817050020A65F002070C7010822
:1037C00010B50B4C206A18B1A06A401CA06210BD55
:1037D00001202062606200F00DF80020606220622B
:1037E000D4E90C018842F2D0401AFFF747FF10BD20
:1037F0007404002010B5134C1348164B216B0A1AA1
:1038000012481B780088821A114830F8130082424F
:103810000EDB1148007801F023FE216B0844206381
:10382000A06A00280CD0616A002909D1401E06E078
:103830000120E062606A002802D0A06A401CA062F9
:1038400010BD000074040020E65F002074C701086A
:1038500076C701081705002071C7010810B5044696
:10386000400702D52046FFF7ABFF200704D52046CE
:10387000BDE81040FFF740BF10BD70470020704703
:103880000020704710B50B4800F03CF8002810D01D
:10389000084A0948116801700B0A43700B0C8370C9
:1038A000090EC1701179017151794171917981715C
:1038B000012010BDAC040020A45E00200E4810B50D
:1038C000002141608160C1600C4A0161C0E90512BC
:1038D000C0E9072141620A4A8162C0E90B124263D2
:1038E000018038304FF41652026001714171082195
:1038F000817100F015F810BD74040020A65F00204F
:10390000E65F002005490A6802600A7982714A79F7
:103910004271897901710120704700003C05002047
:1039200010B506F097FF03F02FFF012010BD10B572
:1039300006F0F2FF012010BD012070470649026821
:103940000A6082790A7142794A710079887100208F
:10395000C871084606F0F2BF3C05002010B51048BB
:103960000024104944608460C4600461C0E90541DA
:10397000C0E9071444620C498462C0E90B41416309
:103980000480FFF7D4FF06484FF416513830016029
:103990000471447108218171FFF7D0FF10BD000050
:1039A00074040020A65F0020E65F002010B5FFF73A
:1039B000D5FF10BD70B51948007800282DD0184CDF
:1039C00000250126206A50B9D4E90C10814206D1A5
:1039D0001448814203D02063E56225626063A06AD7
:1039E00070B1206A60B9E06A50B92662FFF702FF41
:1039F0002562D4E90C01884202D0401AFFF73EFE4E
:103A0000D4E90101084308D1D4E90401884204D073
:103A10006660A660FFF77EFE656070BD150500203C
:103A200074040020E65F002070B505460D4800686C
:103A3000C0698047A0B90C4C35B104F027F820606C
:103A4000002006F01DFD0BE004F020F82168401A6C
:103A5000B0F5967F01D3012000E0002003F09CFE2A
:103A6000012070BDA4C00108380500200020704767
:103A700000207047024910B50880FFF75DFF10BDB8
:103A800074040020084810B5C178026861F31F6211
:103A900006490A6002790A7142794A71807988710F
:103AA0000846FFF74BFF10BDA45E0020AC040020C9
:103AB00000F00F00202141EA8011034801610169F3
:103AC0008906FCD470470000000004400A494FEA10
:103AD0000073020601EBD35106D5D1F8002922F478
:103AE0000012C1F8002905E0D1F8002B22F40012E1
:103AF000C1F8002B02F008B800000440F0B582784D
:103B0000C578848802F00F0315F0030506D0012D57
:103B100006D0022D06D0032D07D105E0002104E0D8
:103B2000012102E0022100E0032117068078194AF2
:103B30004FF0010500F00F0005FA00F5164E106871
:103B40000DD5ADB228431060C4F30A0040EA8140AD
:103B500006EB431140EA8350C1F80009F0BD40EA8A
:103B600005401060C4F30A0040EA814106EB4310AF
:103B7000C0F8001BD0F8001BC1F30A0141F000514E
:103B8000C0F8101BD0F8001B41F00441C0F8001B26
:103B9000F0BD00001C08044000000440704700F025
:103BA000E5BA000002494FF4041088637047000032
:103BB0000000044010B50B4C0B49A0880A789042D5
:103BC00000D802461AB9074900201439087180202C
:103BD000216802F00FF8216801442160A188081AC9
:103BE000A08010BD2805002057C7010810B5064C5D
:103BF0000020A288216801F033FC21680144216083
:103C0000A188081AA08010BD280500207047000078
:103C100002060A494FEA007001EBD05006D5D0F8F1
:103C2000001921F40041C0F800197047D0F8001BBA
:103C300021F40041C0F8001B704700000000044060
:103C400002060A494FEA007001EBD05006D5D0F8C1
:103C5000001941F40041C0F800197047D0F8001B6A
:103C600041F40041C0F8001B704700000000044010
:103C70002DE9F0476F4C074680074FF00009A4F18B
:103C80000805A4F11C0623D501F092FF2078C00995
:103C9000FFF7BCFFE088A8802078C0F3411121B174
:103CA00001295CD0022971D167E06178DFF8888151
:103CB0000C296BD2DFE801F0060D6A156A1A296A31
:103CC0002D333A4801F0F2FC21E000BFFFF772FF0C
:103CD00068E0002006E000BF01F07AFFD8F800009D
:103CE00039E0012001F020FDC0B3F5E710F01F0F0F
:103CF0004CD1A078012140F08000307000F07F00AE
:103D000001F02CFF01F064FF4CE001F0CFFB28B381
:103D1000DCE710F01F0F39D146481B3812E001F0E4
:103D200053FDD8B101F054FF444813E000F01F00E8
:103D300001282BD1707888B12079B178884225D2BA
:103D40003F4908442860C1E701F008FE30B101F0A6
:103D50003FFF3C48006828B3804723E016E010F09E
:103D60001F0013D0012811D100F004F9D0B900F0E0
:103D70005DF9B8B900F0AEF807E010F01F0F05D1FB
:103D800000F082F970B900F0C3F958B92078000644
:103D900003D4E08808B1002000E0802001F0F0FEAC
:103DA000A5F80490780721D5207800061CD4A888AF
:103DB000E0B1FFF71BFFA888C0B92078C0F341111C
:103DC00061B101290AD110F01F0007D0012805D1E7
:103DD00000F062F850B900F037F838B9802001F0EF
:103DE000CFFEA5F8049001E001F0F8FE380712D5E7
:103DF0002078000606D5A888317908430BD0FFF754
:103E0000D9FE08E03078010605D500F07F0030705B
:103E1000002101F0A3FE780602D50020FFF756FE30
:103E2000380604D5BDE8F0478020FFF74FBEBDE857
:103E3000F087000030050020D4C70108CCC7010876
:103E4000E7030020D0C7010810B51048104A0179D7
:103E50001278914203D00F4A1278914214D14178DE
:103E600021B1022905D020290ED10AE0FFF7FEFD7D
:103E700002E04088FFF7FCFD30B101F0A9FE01200F
:103E800010BDFFF7FFFDF7E7002010BD3005002053
:103E9000F0020020F102002010B50B480B4A017916
:103EA0001278914203D00A4A1278914209D140789F
:103EB000092806D100F060FB18B101F089FE01204D
:103EC00010BD002010BD000030050020F3020020CE
:103ED000F502002070B52249224A087912789042F2
:103EE00003D0214A1278904238D11D4849781F4C9E
:103EF0001F4D408804291FD007DC79B101290FD05C
:103F000002290BD0032929D111E0202906D021292B
:103F10001AD022291BD0232920D11BE02C6011E0CC
:103F2000FFF7AEFC05E02C60FFF744FE0AE0FFF768
:103F3000A5FC0028F7D111E0FFF778FB0CE000BFEB
:103F400001F046FE012070BDFFF79CFCF1E7FFF792
:103F500091FD01E0FFF768FD0028F1D1002070BD60
:103F600030050020F0020020F1020020A45E0020B5
:103F7000280500202DE9F041244C254920790978B5
:103F8000884203D02349097888423DD16078224D88
:103F9000224E234F0C2837D2DFE800F03606212DC1
:103FA000363636363616243200F006FA60B3E0783C
:103FB000012802D0032803D003E01A48286000E05B
:103FC0002E60FFF7F7FD13E0E078022802D0032807
:103FD00003D00DE0144828600AE02E6008E000F0ED
:103FE000D3F90AE000F0A2FA0CE000BF01F0F0FD06
:103FF0000120BDE8F08100F0D5F928B12F60E0E79D
:1040000000F0B0FA0028F1D10020F2E730050020DE
:10401000F3020020F502002028050020F203002012
:10402000A45E0020E55E0020265F002010B5124847
:10403000124A0179127891421CD10146427848888F
:10404000C988FE2A09D0FF2A14D198B991B901F084
:1040500057F978B101F0BCFD0AE058B9012909D13E
:1040600000F06EFE30B1074905480860FFF7A2FD79
:10407000012010BD002010BD30050020F4020020FA
:10408000A45E00202805002070B51B4D1B490026AA
:104090006878097888422CD1A888022829D1184C40
:1040A000A97811B3002003E0227802B11444401C27
:1040B000421C9142F8D82078B0B103F06FF9014664
:1040C000E01CFCF7ACFA0F4901260C602078EA8866
:1040D00082420BD988800C490978491E084206D1D2
:1040E0000A490120087002E0002602E08A80FFF7FA
:1040F00061FD304670BD0000300500207AC7010820
:10410000A80300202805002057C701081805002033
:1041100010B5104A1049002450780978884217D108
:104120009088072814D10E480C49012401600989A0
:10413000D2888A4209D981800A480078401E01420B
:1041400004D109490120087000E08280FFF732FDA8
:10415000204610BD300500207BC70108FA02002070
:104160002805002057C7010818050020074800212E
:104170004170C16001614161418081808161C161A3
:10418000C18001810162418170470000B4040020B8
:104190002DE9F047494CA08861884A4DDFF820811D
:1041A0006F1C0026884216D3A069A0B96661A6805C
:1041B000012329786A1C184606F06EFF608060882B
:1041C00048B1656198F80000012801D8676102E0F4
:1041D0006088401C608060884FF00109B0BBE068D7
:1041E00008B1E66032E0206980B398F80010012938
:1041F0000DD82E70A68002236A1C0021012006F033
:104200004BFF6080608800B1676126611EE02F78F7
:10421000C846202F00D3002708FA07F1014218D022
:10422000781CC1B22970A68002236A1C012006F006
:1042300033FF6080608818B165616088401C6080D1
:10424000206908FA07F820EA08002061608830B980
:1042500002E07F1CFFB2DCE7A069002829D060885B
:10426000A188DFF86880401A85B2174F98F80000DF
:1042700037F81000A84200D205461548007828B14A
:1042800040F080002A46616901F0B4FC6069114980
:1042900028446061A088284480B2A08009888842B0
:1042A00009D298F8000037F81000A84203D1C4F8EA
:1042B0001890BDE8F087A661FBE70000B404002079
:1042C00062C70108E45E00205EC7010817050020F0
:1042D00058C7010864C70108F8B51C4C1C4D1D4F98
:1042E0002089002618B9E5613888E0802681E088B9
:1042F0002189421A1848E169007801F0B1F80004F8
:10430000E169000C0144E161218901448BB2238100
:1043100009D039888B4206D2114A1049127831F8F7
:104320001210814210D90F48017801200129009014
:1043300003D80021064A022003E029786A1C0220E3
:104340005B1E06F03BFF2681F8BD0000B404002090
:10435000255F002066C7010859C701085EC701082C
:104360001705002063C7010810B50446000702D5F1
:104370002046FFF70DFF600704D52046BDE810403A
:10438000FFF7AABF10BD0000034804498078085C0D
:10439000034908700120704730050020F003002019
:1043A000A45E002010B506F075FE024908700120D9
:1043B00010BD0000A45E00200B4910B5C878002293
:1043C000012804D0022804D0032806D103E0074ABC
:1043D00002E0002010BD064A521C8978002306F036
:1043E0005BFE012010BD000030050020E45E0020CF
:1043F000F10300202DE9F05F4348007800287DD0CC
:104400004248042300250278A946511C0170404906
:104410000C7804EB440B03FA0BF35B1E9A4202DBAD
:1044200080F8009001253B4900220B88FF2B01D228
:104430005B1C0B80384B374933F814A009888A4538
:1044400000D10122354B8646002100699EF80060AC
:1044500093F800C03FE0002765B1314B5C5CFF2C56
:1044600001D2641C5C542F4C645C1CB15B5CA342A5
:1044700000D301272B4B4FF0020808FA0BF85B5CC6
:1044800003FA08F4544502DA0BB1012400E00024D9
:1044900032B12CB14FF0010808FA01F848EA0000E7
:1044A000DFF8848018F8018043450AD01C4B5B5C20
:1044B000434503D301238B4018430026194B03F8CF
:1044C000018037B114B901238B401843144B03F812
:1044D0000190491CC9B26145BDD3CEF810007146A8
:1044E0008EF8006012B10B4AA2F80090002808D0A4
:1044F0004888002805D1BDE8F05F00E001E0FFF743
:1045000047BEBDE8F09F000015050020B404002060
:1045100017050020EC0300205AC7010862C70108F4
:10452000EE030020EF030020F003002009480949B2
:104530008078C97810B1084A815409E0084A0020FF
:10454000064B127802E01954401CC0B29042FAD3D4
:104550000120704730050020EF030020F003002009
:1045600062C70108034810B5807806F025FE0120D7
:1045700010BD0000300500200C4908B5C8780022A5
:10458000012804D0022804D0032806D103E000202B
:1045900008BD074A00E0074A521C00230093CB885D
:1045A000897806F00BFE012008BD000030050020D0
:1045B000255F0020F10300202DE9F047694D6A4C8A
:1045C0002878000707D56948006800B1804760690E
:1045D00040F0080060612868410503D5616941F435
:1045E00080616161002807DA6148006800B1804796
:1045F000606940F000406061288800050AD55D4E82
:10460000306818B18047306800B18047606940F475
:10461000006060612878584EC00622D5206A686024
:10462000C0F3434200F00F01022A02D0062A0ED046
:1046300017E047F6F072104213D0A26922F0100280
:10464000A261A86056F8211059B1042008E0A269BF
:1046500022F01002A261A86056F8211009B10220D0
:1046600088472888C00407D501F010FA06F058FEE4
:104670004248006800B180472F68B8040BD56069D4
:1046800040F4005060613E49402008603D480168A8
:1046900041F0004101603C4B380303F1040C4FF042
:1046A000010932D519680022DCF800004FF0005AE9
:1046B0000840010C27E0C80723D004EB4210D0F8D3
:1046C000088B314D2D1F2D6805EA08055FEA057836
:1046D0000BD54FF00808C0F8088BC0F810ABD0F825
:1046E000008B48F00448C0F8008BED0709D0C0F8F3
:1046F000089BC0F810ABD0F8005B45F00445C0F84B
:10470000005B4908521C0029D5D178031FD51868D1
:104710000027DCF80050DFF870800540A8F1080899
:1047200013E0E8070FD004EB4710D0F80829D8F8B9
:1047300000101140C90706D0C0F8089956F8271094
:1047400009B1082088476D087F1C002DE9D14A2057
:10475000FDF7FEFA4B20FDF7FBFABDE8F0474D20D0
:10476000FDF7F6BAF40300200000044088C70108F2
:1047700084C7010880C701088CC701087CC70108ED
:1047800010090440000B0440180804402648016842
:1047900041F00201016025490A6822F070420A6076
:1047A0000A6842F020420A60091D0A6822F4404269
:1047B0000A60091D0A6842F070420A60091D0A6811
:1047C00022F070420A60194924310A6822F07F42BF
:1047D0000A600A6842F04C420A60016841F00051E8
:1047E000016013480F2181601249C160124A032100
:1047F00011608169114A1268002A01D04FF0080245
:1048000041EA020102D04FF4806201E04FF0000261
:104810000B4B42EA030241EA020181614FF0FF3192
:10482000416100F00FB8000030380240000402403F
:1048300000000440401800400008044088C70108F8
:1048400010380C8010B5002211464A20FDF78EFA70
:104850004A20FDF77DFA002211464B20FDF786FA2B
:104860004B20FDF775FA002211464D20FDF77EFA28
:10487000BDE810404D20FDF76BBA000070B500F0A8
:10488000FFF800281CD00F4802220F4D0270427022
:104890000E4C03202A632870A068022803D9A4F1D3
:1048A0001F008260A2600A480649007840F080003C
:1048B00001F0A0F9A068296B401AA06001202073C4
:1048C00070BD0000665F0020DC040020B767002098
:1048D00068C70108114810B50178022908D00329DA
:1048E00010D0042912D0052901D10021017010BD7A
:1048F0000B48C07B282801D0A828F8D1BDE810407B
:1049000000F062BABDE8104000F032BD0548007802
:1049100040F0800000F044FDF4E70000DC040020DB
:104920009867002068C701081F4910B50A78B2B31C
:10493000012A0ED01D48052A00781BD0072A29D04D
:1049400000F02EFD1A4902200873BDE8104000F067
:104950000FBD17481F38C07B2A2803D02F2805D049
:10496000AA2820D1BDE8104000F002BBBDE81040ED
:1049700000F094BA012181400E480068014201D044
:10498000012000E00020BDE8104040F23F420AA1B3
:1049900001F0C2B900200870086B1F2803D1BDE8E0
:1049A000104000F0D1B810BDDC04002069C7010838
:1049B000B7670020200500202E2E5C2E2E5C2E2EA8
:1049C0005C7573625C6D73635C757362645F6D7359
:1049D000632E6300104810B54168C16009B1012021
:1049E00010BD0E4901F11F048A687AB1097B0906DE
:1049F00004D50B48007840F0800005E0A168006B0A
:104A0000814203D00748007800F0CAFC01202073DF
:104A100000F0AEFC002010BDDC04002098670020F0
:104A200068C7010869C701081048007900F08F02C3
:104A3000100605D502F00F004FF48031814001E0EF
:104A4000012191400A48007840F0800090420CD14A
:104A5000084A12680A4208D00749084A0968914280
:104A600003D10D22044901F0C5B87047300500207C
:104A700068C7010820050020B7670020555342533E
:104A800070B50A48022400F11F05816831B1007B2E
:104A9000000608D40648007800F082FC2C7300F071
:104AA00067FC002070BD012070BD000098670020E9
:104AB00069C7010810B50E480E4C8068216B88420A
:104AC00002D82063032000E0042020700A480B492C
:104AD000226B007840F0800001F08CF80448226BD3
:104AE0001F308168891A81600021017310BD0000A8
:104AF00098670020DC04002068C70108665F00207A
:104B0000064810B5028807480549007800F0A8FC5F
:104B100005490863BDE81040FFF706BF6EC70108EE
:104B2000665F002069C70108DC04002010B5044658
:104B3000400702D50020FFF7E3FF200703D5BDE8BB
:104B40001040FFF7C7BE10BD2DE9F047754E764CFB
:104B5000316B1F2902D20A46002005E01F220020E7
:104B6000724B1B5C2354401C9042F9D3714FDFF809
:104B7000C0A14FF0010838781F2940F080007CD197
:104B800021686D4A914278D1674D61681F3569602F
:104B9000A168A960617B19B9A17B09B1102902D96B
:104BA00085F80C808CE0E17B4FF002092A293ED089
:104BB00022DC1A2950D00FDC0429F1D006DCE9B33D
:104BC0000329EDD1BDE8F04700F058BB1229E7D129
:104BD000BDE8F04700F0BCB8232945D007DC1B290D
:104BE00036D01E29DCD1BDE8F04700F0DFB825291A
:104BF0003ED02829D4D149E09E2943D00FDC552945
:104C0000CED004DC2F2956D03529C9D103E05A294A
:104C100026D09129C4D1BDE8F04700F0F1BBA1290D
:104C20002AD0A32960D0A82930D0AA29B8D100F071
:104C300075FA002806D0207B000600E004E04FD47F
:104C400086F80080BDE8F087BDE8F04700F0E0BBE3
:104C5000BDE8F04700F0BABBBDE8F04700F036BA57
:104C6000BDE8F04700F006BABDE8F04700F0D0BA62
:104C7000BDE8F04700F0A4BA00E038E0BDE8F04736
:104C8000FFF7FCBDBDE8F04700F04CBB00F046FA72
:104C90000028D7D0207B000605D586F80090BDE817
:104CA000F04700F091B89AF8000000BF00F078FBE0
:104CB00085F80C9004E0207C800705D40020287340
:104CC000BDE8F04700F054BB00F028FA0028B9D046
:104CD000207B000604D486F80080C6F82080B1E767
:104CE000387840F08000E1E700F05AFB58E700F028
:104CF00057FB3878114C00F00F014FF4803088409A
:104D000021685546084320609AF8000000F048FBEF
:104D1000297808FA01F021680843206006203070E5
:104D200090E70000DC04002098670020665F002008
:104D300069C7010868C7010855534243240500208C
:104D4000024900200870012070470000A45E002086
:104D500010B5FFF795FE002820D0114800218022D1
:104D60000170427002228270C2702023037141716F
:104D70008171C1710B490A680821147814B1445437
:104D8000521C00E04354491CC9B22429F5D30649FA
:104D900024200863BDE81040FFF78CBE10BD000062
:104DA000665F0020A4030020DC0400200548C07CCE
:104DB000C107044800F11F0000D00121017300F079
:104DC000D7BA0000986700202DE9F0412E4C2F4FF4
:104DD0000026A169606ADFF8B88088420AD3387873
:104DE000002540F0800000F0DBFA88F80C6000F04D
:104DF000BFFA08E028492748E56A097830F8110029
:104E0000A84200D20546FFF7E5FD00B90025A06ADB
:104E100048B375B1A16AE0692A460144387840F088
:104E2000800000F0E7FEA06A2844A062E06A401B10
:104E3000E062D4E90410A26A4143914203D1A66220
:104E4000616A08446062D8F808104046491BC8F8F7
:104E50000810002D05D0E16A002902D1032121703C
:104E60000673BDE8F081002DE3D0E16A20690144BA
:104E7000491EB1FBF0F26069824200D90246E16945
:104E8000606A06F005FAC5E7DC04002068C701087F
:104E9000B76700206AC70108170500202DE9F04117
:104EA0002F4C00252F4EA169606A884207D32E48F7
:104EB0002563007800F074FA357300F059FAFFF7B3
:104EC00089FD20B1206B08B3A06A10B10FE0256303
:104ED00020E0E16A20690144491EB1FBF0F26069FB
:104EE000824200D90246E169606A06F0D1F90020E9
:104EF0001E4BA26A216B0BE0D4F81CC017181CF8DB
:104F0000077013F800C0674501D0256202E0401C1D
:104F10008842F1D3A16A206B0B18A362E16A0A1AD6
:104F2000E262D4E904714F439F4203D1A562636AF0
:104F300019446162B168091AB16000280DD012B13C
:104F40002078052809D1206A28B100203073BDE8F7
:104F5000F04100F00DBA0120F8E7BDE8F081000053
:104F6000DC040020B767002069C70108665F0020E5
:104F70002DE9F041344C0025344FA169606A884224
:104F800007D333482563007800F00AFA3D7300F038
:104F9000EFF9FFF71FFD00B92563A26A216B2369B2
:104FA0005018984206D9BDE8F041FE2229A1002000
:104FB00000F0B2BE00202E4EE36906E016F800C0F5
:104FC00002EB000E401C03F80EC08842F6D3216BA2
:104FD000A06A0844A062E26A521AE26209B392B976
:104FE00088B121690844401EB0FBF1F66069864231
:104FF00000D906463246E169606A06F063F9A562A7
:10500000606A30440CE0D4E904125143814208D173
:10501000E169606A06F056F9A5626169606A084450
:105020006062B968206B091AB960002809D0E06A8B
:1050300010B12078052804D13D73BDE8F04100F09F
:1050400097B9BDE8F0810000DC040020B7670020BC
:1050500069C701082E2E5C2E2E5C2E2E5C757362A5
:105060005C6D73635C757362645F6D73632E630064
:10507000665F002010B5FFF703FD00281FD0FFF783
:10508000A9FC00281BD00E480021062201704270A6
:105090000C4A8170137ADB01C37001714171817117
:1050A000C1710949082010638A68082A03D9A1F14F
:1050B0001F0290608860BDE81040FFF7FBBC10BD88
:1050C000665F0020DC040020B767002010B5FFF702
:1050D000D7FC00281BD0FFF77DFC002817D00C4818
:1050E0000321002201700B4942700B7ADB018370AF
:1050F000C2700420086308498A68042A03D9A1F110
:105100001F0290608860BDE81040FFF7D3BC10BD5F
:10511000665F0020DC040020B767002070B5244CD7
:10512000244DD4F81100217D00BA20F0FF0008437F
:105130000021C5E90901E17B2F290AD004DC2829D7
:105140000BD02A2917D104E0A8290DD0AA2912D101
:1051500006E0FFF73FFC002827D0E08A40BA0AE0CB
:10516000FFF738FC002820D0D4F81500217E00BAC3
:1051700020F0FF00084329690D4E4843E862A1680A
:1051800001251F3669B1814210D0207B000604D56D
:105190000948007840F0800001E00848007800F0FD
:1051A000FFF8357300F0E4F8002070BD012070BDF9
:1051B00098670020DC04002068C7010869C701085F
:1051C00010B5FFF75DFC00281CD0FFF703FC00289A
:1051D00018D00D4A0D489169491E0B0E03700B0C37
:1051E00043700B0A8370C17011690B0E03710B0CB5
:1051F00043710B0A8371C17108201063BDE8104030
:10520000FFF758BC10BD0000DC040020665F0020E2
:1052100010B5FFF735FC002829D0FFF7DBFB00288D
:1052200025D013480021134A017041708170082174
:10523000C17091690B0E03710B0C43710B0A8371E2
:10524000C1710221017211690B0C43720B0A837246
:10525000C17209490C2010638A680C2A03D9A1F194
:105260001F0290608860BDE81040FFF723BC10BDAE
:10527000665F0020DC040020B767002010B5FFF750
:10528000FFFB002835D01B4870211B4A017000210C
:105290004170D468536833EA040406D0062484704D
:1052A000282404734173D36008E0DBB1134B1B7BEC
:1052B000E3B105238370202303734173C17001712F
:1052C000417181710A23C371017241728172C1728D
:1052D0008173C1730174417412201063BDE81040E2
:1052E000FFF7E8BB022383703A23E5E7817001737F
:1052F000E3E710BD665F0020DC040020B7670020F4
:105300000449002008600449086004490720087027
:105310000120704724050020B7670020DC0400202E
:10532000FFF7EEBF10B5FFF7ABFB002817D00C4816
:1053300020220021027041700A4CC17703202263B1
:10534000207009480649007840F0800000F052FCC7
:105350000648226B8168891A81600121017310BDA2
:10536000665F0020DC04002068C70108B7670020E2
:10537000084910B50648086007480D22007840F03B
:10538000800000F037FC05490520087010BD0000C2
:1053900055534253B767002068C70108DC0400205A
:1053A00010B5044600F0ECFB200605D504F00F0014
:1053B0004FF48031814001E00121A14002480268A0
:1053C0001143016010BD0000200500200A4810B5FF
:1053D000817C00F11F0429B101202073BDE8104039
:1053E000FFF7C6BFC07C054900F00100486005F02A
:1053F00067FF0020F1E7000098670020DC04002030
:10540000024900200873FFF7B3BF0000B767002010
:105410000F4810B5816800F11F0469B1007B0006D8
:1054200004D50C48007840F0800001E00A4800787C
:10543000FFF7B6FF012004E0FFF7CCFA002805D003
:1054400000202073BDE81040FFF792BF10BD0000A0
:105450009867002068C7010869C701087047000005
:1054600070B510460D4A9388C3F30A13834202D2E3
:105470001089C0F30A10C21C93080022084C04E0F3
:10548000256801EB8206521C35609A42F8D3054923
:105490008A6942F010028A6170BD0000F4030020A6
:1054A0000010044000000440FFF7BEBA2DE9FC41A3
:1054B0004E48A0F11C050178A0F1080411F01F016D
:1054C00002D001296DD179E0494AC778494913785A
:1054D000464A494E1C3A062FD27810D006DC012FDE
:1054E00009D0022F14D0032F7ED141E0072F2AD0FC
:1054F0000F2F79D156E04148206012205CE0002B4C
:1055000072D01AB13E4820600A2055E03D48FAE7C3
:105510000BB9012A68D0022322B1009673700021D2
:10552000827809E000914B70F9E70098037813B195
:10553000438818440090491C8A42F6D100980178AB
:1055400079B3206037E063B3072322B100914B7039
:105550000021827809E000967370F9E700980378DB
:1055600013B1438818440090491C8A42F6D1E5E7FC
:10557000254900918178032901D0002108E001F03C
:105580006FFF0BE0009B1A780AB11A440092491C85
:1055900082788A42F6D10098017811B120600078B3
:1055A0000AE021E01948007800281BD01848009034
:1055B00020600178C1B14088019005E001A96846EA
:1055C00000F02AF800280DD0A1880198814208D95E
:1055D000104980B2A0800978491E084201D10120FB
:1055E00028710120BDE8FC810020FBE73005002088
:1055F00055C70108DC5D0020F2020020FCC701084D
:105600000FC801080EC801084AC8010856C701089A
:1056100010C8010857C7010870B5194A194B1B4D2E
:10562000D678194A1C78212E1378154A127902D09F
:10563000222E22D116E0A24201D09A421DD1144A54
:105640001378144A12780BB9012A16D042B1124AC3
:1056500002601046114A128810442860092009E0AF
:105660000F4AF5E7A24201D09A4206D10D482860C0
:105670000D4800880860012070BD002070BD00004A
:1056800030050020F3020020F5020020280500204C
:1056900055C7010817050020F2020020F80200207B
:1056A000DC5D0020D8C70108FAC7010870B51C48A6
:1056B0001B4D0078A5F1080510F01F040AD018480A
:1056C000A5F11401174B4A780079012C06D0022C61
:1056D00024D109E01248163828601DE0F2B189781B
:1056E00088421BD2002015E000F08F04200605D56B
:1056F00004F00F064FF48030B04001E00120A040DC
:105700000AB922070AD18A68024207D0C968014251
:10571000E8D0012018802B60012070BD002070BDF2
:1057200030050020A45E002070B5264A0146A2F193
:105730001C04107810F01F031046408804D0012B81
:1057400028D0022B26D110E0012823D129B100F066
:105750004FFAE08840F0020005E0002000F048FA2F
:10576000E08820F00200E08029E0127902F08F0644
:10577000320605D506F00F024FF48035954001E062
:105780000125B54062782AB1320703D0A2682A42C7
:1057900000D008B1002070BD29B1304600F0F0F90A
:1057A000E06828430AE02069284208D13046FEF725
:1057B0008DF93046FFF778FEE068A843E0600120ED
:1057C00070BD0000300500202DE9F84F5D4F00202E
:1057D0000090387810F01F0F71D1B8784FF00009A1
:1057E0004FF0010B4FF4803AA7F11C0600287CD043
:1057F000554801783046C07809B901285FD008B112
:10580000524C6EE0524C6CE06078022805D00428BF
:1058100046D0052847D0072861D16179B878814200
:105820003CD1707020794C49B0700020494A0988F9
:1058300003E000BF02F80090401C8842FAD3012523
:105840004FEA06080BFA05F0D8F80810084202D013
:105850002846FEF7DDF9D8F808100AFA05F00842E4
:1058600003D045F08000FEF7D3F96D1C102DE9D36D
:105870004FF00110C8E902090120C8F81090FEF7A6
:105880008DF9E0794006B8F8060002D540F0010035
:1058900001E020F00100A8F8060020E060881FE089
:1058A000E07800901BE00098C8B9A07800F08F0560
:1058B000280606D505F00F010AFA01F003E03BE0E7
:1058C00013E00BFA05F0B16801432046B160FEF722
:1058D00015F92846FEF7B4F9284600F015F92078A6
:1058E0000444207800288FD122E04D4686F80190AC
:1058F0000124D8464FEA0A09B16808FA04F00842C0
:1059000002D02046FEF784F9B16809FA04F0084293
:1059100003D044F08000FEF77BF9641C102CEBD31D
:105920004FF00110C6E9020500203561FEF736F997
:10593000B8787178884202D00020BDE8F88F012045
:10594000FBE700003005002055C70108F2020020E7
:10595000DC5D0020E7030020F60200202DE9FC5F5B
:10596000454E00273D463078BB4600F01F00B84644
:1059700001287ED1A6F11C014878002876D03F4846
:10598000BA4602780846C0780AB9012871D089461B
:1059900008B13B4C66E03B4C64E06078022805D0DF
:1059A00004280AD0052819D0072859D1617999F817
:1059B0000100814254D0608853E0A7783079E578BF
:1059C0004FF00008B8424BD1B078A84248D12E48D9
:1059D0004FF0010A10F807B0C55541E03079B842E0
:1059E0003ED1A07800F08F000190000605D5019807
:1059F00000F00F014FF4803001E001990120884050
:105A00000090B078A84217D1D9F80810009A204623
:105A10001143C9F80810D9F80C109143C9F80C10BB
:105A2000FEF76CF80198FEF70BF9019800F06CF89E
:105A3000009948EA010813E05D4511D1009918EA80
:105A4000010F0DD1D9F80810009A9143C9F8081038
:105A5000D9F80C109143C9F80C100198FEF7D8F84A
:105A6000207804442078002897D15046BDE8FC9F58
:105A7000FFE70020FAE700003005002055C70108C5
:105A8000F2020020DC5D0020E70300201948416994
:105A900041F48051416100215FEA402200EB411353
:105AA000C3F8002B491C0529F8D3134A4FF0011104
:105AB0001160114A0921083A1160121F1160511535
:105AC00041620E4981620D494031C0F804110B4911
:105AD0008031C0F808110949C031C0F80C110849DB
