:020000040800F2
:1000000048280020CD010008D50100083D16000851
:10001000D9010008DB010008DD0100080000000034
:10002000939D939B08999697FE000000DF010008BE
:10003000E1010008426C0008E301000849170008CC
:10004000E7010008E7010008E7010008E7010008F0
:10005000E7010008E7010008E7010008E7010008E0
:10006000E7010008E7010008E7010008E7010008D0
:10007000E7010008E7010008E7010008E7010008C0
:10008000E7010008E7010008E7010008E7010008B0
:1000900065320008E7010008E7010008E7010008F1
:1000A000E7010008E7010008E7010008E701000890
:1000B000E7010008E7010008E7010008E701000880
:1000C000E7010008E7010008E7010008E701000870
:1000D000E7010008E7010008111A0008E70100081D
:1000E000E7010008E7010008E701000800F002F856
:1000F00000F05AF80AA090E8000C82448344AAF168
:100100000107DA4501D100F04FF8AFF2090EBAE865
:100110000F0013F0010F18BFFB1A43F0010318473B
:100120002C7B00004C7B00000A444FF0000C10F8C0
:10013000013B13F0070408BF10F8014B1D1108BF65
:1001400010F8015B641E05D010F8016B641E01F805
:10015000016BF9D113F0080F1EBF10F8014BAD1C55
:100160000C1B09D16D1E58BF01F801CBFAD505E073
:1001700014F8016B01F8016B6D1EF9D59142D6D3CD
:10018000704700000023002400250026103A28BFF5
:1001900078C1FBD8520728BF30C148BF0B607047F9
:1001A0001FB51FBD10B510BD00F02FFA1146FFF7A7
:1001B000F7FF04F0F3FA00F04DFA03B4FFF7F2FF93
:1001C00003BC00F055FA00008546084709488047FF
:1001D00009480047FEE7FEE7FEE7FEE7FEE7FEE729
:1001E000FEE7FEE7FEE7FEE704480549054A064B41
:1001F00070470000E5170008ED00000848220020C5
:10020000482800204824002048240020B2F1200380
:100210000AD5C2F1200320FA02F001FA03F321FA11
:1002200002F140EA0300704721FA03F04FF00001A9
:10023000704740EA010310B59B070FD1042A0DD384
:1002400010C808C9121F9C42F8D020BA19BA8842B7
:1002500001D9012010BD4FF0FF3010BD1AB1D307F6
:1002600003D0521C07E0002010BD10F8013B11F82C
:10027000014B1B1B07D110F8013B11F8014B1B1B55
:1002800001D1921EF1D1184610BD10B5431C02E0F9
:1002900010F8011B71B18107FAD14FF0013202C889
:1002A0008C1A8C4314EAC211F9D0C01A0A0603D082
:1002B000C01E10BDC01A10BD0A0401D0801E10BDA2
:1002C0000902FCD0401E10BD40EA010370B59B0737
:1002D0002ED14FF00136042A2AD308C810C99D1B1D
:1002E0009D43121F15EAC61517D0D8B2E1B2401AC5
:1002F00050EA056110D198B2A1B2401A50EA054106
:100300000AD123F07F4024F07F41401A50EA0521B2
:1003100002D1180EA0EB146070BDA342DBD018BA56
:1003200021BA884201D9012070BD4FF0FF3070BD65
:100330000AB9002070BD10F8013B11F8014B63B100
:10034000A3420AD1521E08D010F8013B11F8014B0C
:100350001BB1A34201D1521EEDD1181B70BD421E2C
:1003600012F8013F002BFBD111F8013B002B02F8E2
:10037000013BF9D17047032A40F2308010F0030CA2
:1003800000F0158011F8013BBCF1020F624498BFE8
:1003900011F801CB00F8013B38BF11F8013BA2F185
:1003A000040298BF00F801CB38BF00F8013B11F000
:1003B000030300F06780083AC0F0088051F8043B5E
:1003C000083A51F804CBA0E80810F5E7121D5CBF0D
:1003D00051F8043B40F8043BAFF30080D20724BF40
:1003E00011F8013B11F801CB48BF11F8012B24BFD4
:1003F00000F8013B00F801CB48BF00F8012B704723
:10040000431A28BF9A427FF6B6AF032A104411441C
:1004100040F2268010F0030F1EBF11F8013D521E5E
:1004200000F8013D10F0030F7FF4F6AF11F0030365
:1004300000F0C180083AC0F00B8051F8043D083A42
:1004400051F804CD40F8043D40F804CDFFF7F3BF68
:10045000121D5CBF51F8043D40F8043DAFF300802D
:10046000D20724BF11F8013D11F801CD48BF11F8A2
:10047000012C24BF00F8013D00F801CD48BF00F871
:10048000012C704710B5203AC0F00B80B1E818502D
:10049000203AA0E81850B1E81850A0E81850BFF46E
:1004A000F5AF5FEA027C24BFB1E81850A0E818500D
:1004B00044BF18C918C0BDE810405FEA827C24BF61
:1004C00051F8043B40F8043B08BF7047D20728BFEF
:1004D00031F8023B48BF11F8012B28BF20F8023B3E
:1004E00048BF00F8012B704702F0FF0343EA0322E4
:1004F00042EA024200F002B84FF000020429C0F0C4
:10050000128010F0030C00F01B80CCF1040CBCF145
:10051000020F18BF00F8012BA8BF20F8022BA1EB97
:100520000C0100F00DB85FEAC17C24BF00F8012B7C
:1005300000F8012B48BF00F8012B70474FF0000274
:1005400000B5134694469646203922BFA0E80C50C9
:10055000A0E80C50B1F12001BFF4F7AF090728BFA4
:10056000A0E80C5048BF0CC05DF804EB890028BF20
:1005700040F8042B08BF704748BF20F8022B11F049
:10058000804F18BF00F8012B7047704770477047C5
:10059000431A28BF9A427FF675AF104410F0030F3C
:1005A00011441EBF11F8013D521E00F8013D10F02C
:1005B000030F7FF4F6AF103AC0F00A8010B531E9AE
:1005C0001850103A20E91850BFF4F9AFBDE81040B8
:1005D000530724BF31E9081020E9081044BF51F83F
:1005E000043D40F8043D12F0030F08BF7047D207E6
:1005F00028BF31F8023D48BF11F8012C28BF20F870
:10060000023D48BF00F8012C7047754600F02CF8F9
:10061000AE4605006946534620F00700854618B0EF
:1006200020B5FFF7E1FDBDE820404FF000064FF098
:1006300000074FF000084FF0000B21F00701AC4617
:10064000ACE8C009ACE8C009ACE8C009ACE8C00936
:100650008D46704710B50446AFF300802046BDE8D4
:100660001040FFF7AABD000000487047E4210020B9
:1006700001491820ABBEFEE72600020070470000CB
:1006800001078A0E07490A44D2F8001C000602D569
:1006900048F6CF7001E04CF68F700140C2F8001CA4
:1006A00070470000005000400207930E0C4A30B51E
:1006B0001344D3F8002C000648F68F7502EA0500B3
:1006C00048F2800482EA010202D502F0300101E022
:1006D00002F4405108432043C3F8000C30BD000031
:1006E0000050004030B585B00546002400F03AF9CE
:1006F00000200090CDE901050120039004A968467F
:1007000000F092F800B1012400F0E2F805B02046B4
:1007100030BD000006490020C8610648016941F06B
:1007200004010161016941F040010161704700006D
:100730000821002000200240064A0021D16106491C
:100740000A6942F002020A614861086940F040000B
:10075000086170470821002000200240044B00225D
:10076000DA61044A136943F00103136101807047A1
:1007700008210020002002400E49C868C2060E4829
:1007800003D5C26942F00202C261CA68520703D5AA
:10079000C26942F00102C261CA69D20707D0C269C8
:1007A00042F00402C261C86920F00100C86114204F
:1007B000C8607047002002400821002070B505463F
:1007C00000F0C6F90646114C09E0681C07D025B1B7
:1007D00000F0BEF9801BA84201D9032070BDE0687B
:1007E000C007F2D1E068800601D52020E060E06813
:1007F000C00605D4E069C00702D1E068400703D510
:10080000FFF7BAFF012070BD002070BD002002403C
:1008100031B500F09DF9044600F09AF90099001BEB
:100820008842F9D338BD00002DE9F0470546264837
:100830000F460126017E01290FD001218146017654
:100840002868DFF888804CF25034022808D0A2468D
:100850002046FFF7B3FFA8B131E00220BDE8F087E2
:100860002046FFF7ABFF08BB0120FFF753FF2046F0
:10087000FFF7A4FFD8F81010064621F00401C8F8CD
:1008800010101CE04FF0FF303860AC6811E02046DB
:10089000FFF752FF5046FFF791FFD8F810100600FF
:1008A00021F00201C8F8101001D03C6007E004F507
:1008B0008064D5E9020100EB8120A042E7D8002145
:1008C00089F818103046C9E70821002000200240AE
:1008D0000348016941F08001016100207047000078
:1008E000002002402DE9F05F07461C48884600249E
:1008F000017E15461E46012909D001218146017657
:100900004CF2503A5046FFF759FF18B122E002204E
:10091000BDE8F09F012F02D0022F00D00427D3465C
:10092000DFF83CA0220128463146FFF76FFC81B278
:1009300008EB4400FFF712FF5846FFF73FFFDAF8D5
:10094000102022F00102CAF8102018B9641CE4B289
:10095000BC42E7D3002289F81820D9E708210020FB
:100960000020024005480169090605D50449416097
:100970000449416000207047012070470020024078
:1009800023016745AB89EFCD2DE9F84FDFF890A142
:1009900000220AF1040B144601274FF00F090BF156
:1009A000040E00BF0B6807FA04F52B40AB4274D16C
:1009B000DFF870C14E68A6EB0C0866452BD00DDC45
:1009C000032E34D005DC36B3012E19D0022E2FD1E0
:1009D0001BE0112E16D0122E2AD119E0B8F5881F6F
:1009E00019D006DCB8F5803F15D0B8F5801F1FD1AF
:1009F00011E0B8F5001F0ED0B8F5041F18D10AE0B9
:100A0000CA6815E0CA68121D12E0CA6808320FE011
:100A1000CA680C320CE08A682AB1012A4FF0080239
:100A200003D0456104E0042202E0056100E00022F9
:100A3000FF2B01D8064601E000F104064FEA8405C9
:100A400001D9A5F12005D6F800C009FA05F82CEA6D
:100A5000080C02FA05F54CEA050CC6F800C04D6812
:100A6000ED0057D5304DAE6946F00106AE61AD6977
:100A700024F0030605F0010500952C4D06EB050C4E
:100A8000DCF80850A6074FEA167809FA08F6B543CD
:100A9000274EB04202D1002610E03BE0254EB04286
:100AA00001D101260AE0244EB04201D1022605E020
:100AB000224EB04201D1032600E0042606FA08F6D1
:100AC0002E43CCF808604D68DAF80060ED03554617
:100AD00001D51E4300E09E432E604D68DBF80060A8
:100AE000AD035D4601D51E4300E09E432E604D6878
:100AF000DEF80060ED02754601D51E4300E09E431E
:100B00002E604D68AD020E4D2E6801D51E4300E0EB
:100B10009E432E60641C102CFFF444AFBDE8F88F98
:100B200000040140000011100010024000000140CC
:100B300000080140000C0140001001400014014079
:100B40000C0401400AB1016170470904FBE7000091
:100B5000EFF3108010F0010F72B607480068406A8A
:100B6000064A1368C3EB9000C0F30D0018441060F0
:100B700000D162B670470000481B0020B40200207C
:100B8000074810B5016841F010010160032000F032
:100B90005DF80F2000F006F800F056F8002010BDB8
:100BA0000020024010B588B006A901A800F024F981
:100BB0000498B0F5806F08D0B0F5A06F35D0B0F5CF
:100BC000C06F34D0B0F5E06F33D001201A494FF038
:100BD000804200240968B1FBF0F04FF47A61B0FB69
:100BE000F1F11648491E02604FF6FF72C0E9032476
:100BF000C0E9011444611248C16941F00101C161B9
:100C0000C06900F0010000900C4800F018FC0028BA
:100C100009D10C480460094800F02DFC002802D1DD
:100C2000064800F045FC08B010BD0220CEE70420C5
:100C3000CCE70820CAE70000D8020020481B0020AB
:100C400000100240B402002070470000064900F086
:100C5000070208684FF6FF03184040EA0220034AE3
:100C600010430860704700000CED00E00000FA053A
:100C70002DE9F047DFF8708105460E46D8F80000F0
:100C800000F00700B0420CD2D8F8001021F00701A4
:100C90003143C8F80010D8F8000000F00700B04257
:100CA00077D12878514C800705D56068A96820F075
:100CB000F000084360602878C00759D069680120B7
:100CC00001290DD0022929D05FF0020393FAA3F283
:100CD000B2FA82F242F02002520904D0226803E004
:100CE0004FF40033F2E7626A93FAA3F3B3FA83F3A3
:100CF00003F01F03984002424BD0606820F00300CD
:100D000008436060FFF724FF6968074641F28830B6
:100D100001290DD00229814617D025E04FF000733C
:100D2000D4E700BFFFF714FFC11B494501D918E004
:100D300081466068C0F381000128F3D118E000BF4C
:100D4000FFF706FFC11B49450BD86068C0F381005F
:100D50000228F5D10CE000BFFFF7FAFEC11B4945A0
:100D600002D90320BDE8F087606810F00C0FF3D1C2
:100D7000D8F80010404601F00701B1420BD90168D4
:100D800021F0070131430160006800F00700B04224
:100D900001D00120E6E72878400705D56068E968BA
:100DA00020F4E060084360602878000706D560689A
:100DB000296920F4605040EAC100606000F03CF80E
:100DC0006168F02292FAA2F201F0F001B2FA82F226
:100DD000D140074A515CC840064908600F20FFF720
:100DE000E1FE0020BEE700000020024000100240AB
:100DF000A8720008D80200200F2202600C4A536833
:100E000003F003034360536803F0F0038360536807
:100E100003F4E063C36052684FF4E06303EAD20274
:100E200002610448006800F0070008607047000095
:100E3000001002400020024010B519A385B00FCB6E
:100E40008DE80F001AA01B4B006804905A681A48DE
:100E500002F00C0104291DD008291BD14FF4701495
:100E600094FAA4F402F47011B4FA84F4E140D203C9
:100E70001DF8011010D55A684FF4003393FAA3F30C
:100E800002F40032B3FA83F3DA4004AB9A5CB0FBAD
:100E9000F2F0484305B010BD08484843FAE70000A7
:100EA00002030405060708090A0B0C0D0E0F1010AB
:100EB000010200000010024000127A0000093D000B
:100EC0002DE9F84F04460078F74DC0074FF00106B2
:100ED00025D068687704C0F38100012807D06868CE
:100EE000C0F3810002281BD16868C00318D597FAA7
:100EF000A7F0B0FA80F040F02000400901D0286847
:100F000000E0686A97FAA7F1B1FA81F101F01F01D8
:100F100006FA01F108425ED0606800287CD05AE0F1
:100F20006068B0F5803F0BD010B1B0F5A02F11D0A4
:100F3000286820F480302860286820F4802002E0AF
:100F4000286840F480302860606828B3FFF700FE0E
:100F500080460BE0286840F480202860F0E700BF5E
:100F6000FFF7F6FDA0EB0800642871D897FAA7F008
:100F7000B0FA80F040F02000400901D0286800E07D
:100F8000686A97FAA7F1B1FA81F101F01F0106FA38
:100F900001F10842E4D01EE0FFF7DAFD804605E0EB
:100FA000FFF7D6FDA0EB08006428DED897FAA7F07B
:100FB000B0FA80F040F02000400901D0286800E03D
:100FC000686A97FAA7F1B1FA81F101F01F0106FAF8
:100FD00001F10842E4D12078DFF8D08280074FF099
:100FE00000094FF002075BD568684FF0F80B10F06E
:100FF0000C0F07D06868C0F3810002281CD1686814
:10100000C00319D497FAA7F0B0FA80F040F020009E
:10101000400902D0286801E08BE0686A97FAA7F1DE
:10102000B1FA81F101F01F0106FA01F108422CD05A
:10103000206901287DD128E0206990B396FAA6F0B6
:10104000B0FA80F048F82060FFF782FD824607E0A2
:1010500011E100BFFFF77CFDA0EB0A00022884D855
:1010600097FAA7F0B0FA80F040F02000400901D0D4
:10107000286800E0686A97FAA7F1B1FA81F101F0F7
:101080001F0106FA01F10842E4D028689BFAABF28E
:101090006169B2FA82F220F0F800914008432860BA
:1010A00025E0FFE796FAA6F1B1FA81F148F8219020
:1010B000FFF74EFD824605E0FFF74AFDA0EB0A0070
:1010C0000228CCD897FAA7F0B0FA80F040F02000C0
:1010D000400901D0286800E0686A97FAA7F1B1FAE0
:1010E00081F101F01F0106FA01F10842E4D12078F4
:1010F00000076ED5A069B8B396FAA6F0B0FA80F0F2
:1011000008EB8000C0F88064FFF722FD824605E00E
:10111000FFF71EFDA0EB0A000228A0D897FAA7F05F
:10112000B0FA80F040F06000B6EB501F02D12868A2
:101130000CE062E197FAA7F0B0FA80F040F06000AE
:10114000B7EB501F01D1286A00E0686A97FAA7F14F
:10115000B1FA81F101F01F0106FA01F21042D7D075
:101160000120FFF755FB34E0FFE796FAA6F1B1FA4C
:1011700081F108EB8101C1F88094FFF7E9FC824618
:1011800006E000BFFFF7E4FCA0EB0A00022872D8DB
:1011900097FAA7F0B0FA80F040F06000B6EB501F6D
:1011A00001D128680BE097FAA7F0B0FA80F040F080
:1011B0006000B7EB501F01D1286A00E0686A97FA17
:1011C000A7F1B1FA81F101F01F0106FA01F2104214
:1011D000D8D12078400765D5E86940F08050E861B3
:1011E000E869DFF8CCB000F080500090DBF8001028
:1011F00041F48071CBF80010FFF7AAFC824605E0AD
:10120000FFF7A6FCA0EB0A00642834D8DBF8000046
:10121000C005F5D5E06801280AD008B1052813D02B
:10122000286A20F001002862286A20F0040002E009
:10123000286A40F001002862E06841F2883B90B3E0
:10124000FFF786FC82460BE0286A40F00400286223
:10125000EEE700BFFFF77CFCA0EB0A0159450AD876
:1012600097FAA7F0B0FA80F040F04000B6EB501FBC
:1012700002D128680CE0A3E097FAA7F0B0FA80F05A
:1012800040F04000B7EB501F01D1286A00E0686AC7
:1012900097FAA7F1B1FA81F101F01F0206FA02F103
:1012A0000842D7D031E005E0001002400000424281
:1012B00000700040FFF74CFC824605E0FFF748FC59
:1012C000A0EB0A0159457BD897FAA7F0B0FA80F055
:1012D00040F04000B6EB501F01D128680BE097FAB0
:1012E000A7F0B0FA80F040F04000B7EB501F01D1FA
:1012F000286A00E0686A97FAA7F1B1FA81F101F073
:101300001F0206FA02F10842D8D1E06980B3696889
:10131000C1F38101022970D04FF080714F00022883
:10132000484609D091FAA1F1B1FA81F148F82100BB
:10133000FFF70EFC044669E08A4691FAA1F1B1FA82
:1013400081F1C14648F82100FFF702FC804605E024
:10135000FFF7FEFBA0EB0800022854D897FAA7F08D
:10136000B0FA80F040F02000400902D0286801E087
:1013700061E0686A97FAA7F1B1FA81F101F01F0103
:1013800006FA01F10842E3D1206AB0F5803F05D1A9
:101390006868A16820F4003008436860D4E9080157
:1013A0000843696821F47411084368609AFAAAF046
:1013B000B0FA80F049F82060FFF7CAFB044606E067
:1013C00021E000BFFFF7C4FB001B02281BD897FADF
:1013D000A7F0B0FA80F040F02000400901D0286862
:1013E00000E0686A97FAA7F1B1FA81F101F01F01F4
:1013F00006FA01F10842E5D01DE01EE0FFF7A8FB68
:10140000001B022802D90320BDE8F88F97FAA7F045
:10141000B0FA80F040F02000400901D0286800E0D8
:10142000686A97FAA7F1B1FA81F101F01F0106FA93
:1014300001F10842E2D10020E6E70120E4E710B51F
:101440000446022084F839002068016A41F2111232
:10145000114207D1016A9210114203D1016821F0B3
:1014600001010160204600F021F8002084F83900D5
:1014700084F8380010BD10B5040003D094F839008A
:1014800010B107E0012010BD002084F8380020468C
:1014900000F00DF8022084F83900211D206800F0CA
:1014A000D7F9012084F83900002010BD704770473B
:1014B000022180F8391001680A6842F001020A60CE
:1014C000012180F839100020704770B5044690F86B
:1014D00038000D4601280DD0012684F8386002201E
:1014E00084F8390042B1042A18D0082A2AD00C2ADC
:1014F0004DD139E0022070BD206800F0E7F9206886
:10150000816941F0080181612068816921F004014D
:101510008161206881692A69114311E0206800F027
:10152000FDF92068816941F4006181612068816969
:1015300021F480618161206881692A6941EA022180
:10154000816124E0206800F015FA2068C16941F04B
:101550000801C1612068C16921F00401C1612068EE
:10156000C1692A69114311E0206800F02FFA206850
:10157000C16941F40061C1612068C16921F48061E1
:10158000C1612068C1692A6941EA0221C16184F808
:101590003960002084F8380070BD10B50446022080
:1015A00084F839002068016A41F21112114207D112
:1015B000016A9210114203D1016821F0010101601A
:1015C000204600F021F8002084F8390084F8380023
:1015D00010BD10B5040003D094F8390010B107E035
:1015E000012010BD002084F83800204600F00DF8DE
:1015F000022084F83900211D206800F029F901201B
:1016000084F83900002010BD7047704710B50446BB
:101610000068012200F04EF907492068884203D192
:10162000416C41F4004141642068016841F00101CE
:101630000160002010BD0000002C0140EFF3088481
:101640000EF00F000D2801D1EFF30984A08B04F1F7
:101650002005800500D52D1D5FEACE6000D44835F9
:10166000704601F0B3FFEFF3098001F0AFFFEFF335
:10167000088001F0ABFFEFF3148001F0A7FF2846CC
:1016800001F0A4FF606901F0A1FFA06901F09EFFD5
:10169000E06901F09BFF1248006801F097FF1048D5
:1016A000001F006801F092FF0D48001D006801F066
:1016B0008DFF0B481030006801F088FF08480830A3
:1016C000006801F083FF06480C30006801F07EFFDF
:1016D0004A2204A1002001F029FE00F0A7F8FEE74D
:1016E0002CED00E02866696C652900000020704739
:1016F0002DE9F04117460D4680460026FFF732F9E6
:10170000A80706D000206E220DA101F00FFE0024D4
:101710000EE00120F7E700BF57F8242008EB840112
:1017200000230220FFF7DEF808B1012603E0641C65
:10173000B4EB950FF0D3FFF7CBF83046BDE8F0815E
:101740002866696C6529000010B50B4CE16849B149
:10175000206938B12268B2FBF0F300FB132008B90E
:10176000002088472068401C2060A068002802D024
:10177000A068401EA06010BDDC020020144910B516
:101780004868144A10F00C03134803D0042B01D00E
:10179000082B09D002604968104AC1F30311515C5B
:1017A0000268CA40026010BD4A684B6802F47012B9
:1017B0004FF0020413F4803F04EB924202D04B68D6
:1017C0009B0301D5064B00E0024B5A43E2E70000C1
:1017D0000010024000127A00D8020020A87200080F
:1017E00000093D000D48016841F0010101604168B8
:1017F0000B4A1140416001680A4A114001600168CA
:1018000021F480210160416821F4FE0141604FF420
:101810001F0181600449C003086070470010024046
:101820000000FFF8FFFFF6FE08ED00E0BFF34F8F6A
:1018300005480168054A01F4E06111430160BFF306
:101840004F8F00BFFDE700000CED00E00400FA053B
:10185000F0B50268144B154C154D4FF08047984277
:1018600005D0B84203D0A04201D0A84203D122F053
:1018700070064A683243984205D0B84203D0A0426D
:1018800001D0A84203D122F44074CA682243026006
:101890008A68C2620A688262984201D1096901635A
:1018A00001214161F0BD0000002C01400004004016
:1018B0000008004010B50123046A8B409C43046279
:1018C000036A8A401343036210BD000030B5026A08
:1018D00022F001020262026A4368846924F07305FF
:1018E0000C682C4322F002058A682A430A4DA8425C
:1018F0000BD122F00805CA6823F440732A434D69CE
:1019000022F004021D438B692B43436084614968C4
:101910004163026230BD0000002C014030B5026A14
:1019200022F010020262026A436884690D6824F49E
:10193000E64444EA05248D6822F0200242EA0512BA
:101940000B4DA8420ED1CD6822F0800242EA05126A
:101950004D6923F4406343EA85038D6922F0400218
:1019600043EA85034360846149688163026230BD54
:10197000002C014030B5026A22F480720262036AD0
:101980004268C46923F4007324F073050C682C4387
:101990008D6843EA05230C4DA8420ED1CD6823F48F
:1019A000006343EA05234D6922F4405242EA0512DE
:1019B0008D6923F4806342EA05124260C46149687C
:1019C000C163036230BD0000002C014030B5026AE3
:1019D00022F480520262046A4268C3690D6823F4EB
:1019E000E64343EA05238D6824F4005444EA0534B1
:1019F000064DA84204D14D6922F4804242EA851284
:101A00004260C36149680164046230BD002C01403A
:101A100070B515480468154DA00612D52868C6B2E1
:101A2000134801F0E3FC132804D93146104801F0B3
:101A300031FD06E005D14FF013020EA10C4801F074
:101A400059FD200607D5104801F0E1FC20B10E48F1
:101A500001F0F0FC286070BD0448083001680B4AB2
:101A60001140016070BD000000440040044400408B
:101A7000941D00203C4441504C696E6B3A4F766592
:101A800072666C6F773E0A00841B00207FFFFFEFB9
:101A900000B50346FEF7F4FD43F2300118465DF849
:101AA00004EBFEF701BE0000F0B58378204A03F096
:101AB0000F041E0657688188158803F00F0307EB93
:101AC000031304D5491C21F001011D6011E09D6044
:101AD0003E2909D91F3121F01F014FF0FF3505EBD9
:101AE000411545F4004503E0491C21F001014D0278
:101AF000DD6013880B441380C07810F0030006D01B
:101B0000012807D0022808D003280AD107E04FF4A3
:101B1000007106E04FF4806103E0002101E04FF422
:101B2000C061044A214302EB8400C0F8001CF0BDF0
:101B3000C402002000500040002802D10149B0201A
:101B400008807047C40200200949CA1350B101201F
:101B50000860002008600B1D18604FF4E05008601A
:101B6000044803E0032008600248001D026070473B
:101B7000405C00401008014010B50B4C0B49A08898
:101B80000A78904200D802461AB907490020143951
:101B900008718020216801F033FB21680144216035
:101BA000A188081AA08010BD40030020CF71000852
:101BB00010B5064C0020A288216800F0AFFF216814
:101BC00001442160A188081AA08010BD40030020B4
:101BD00070470021FEF768BD43F22001FEF764BDA7
:101BE0002DE9F0476F4C074680074FF00009A4F13C
:101BF0000805A4F11C0623D501F0CCFA2078C00911
:101C0000FFF7E6FFE088A8802078C0F3411121B1FA
:101C100001295CD0022971D167E06178DFF8888101
:101C20000C296BD2DFE801F0060D6A156A1A296AE1
:101C30002D333A4801F056F821E000BFFFF79CFF32
:101C400068E0002006E000BF01F0B4FAD8F8000018
:101C500039E0012001F084F8C0B3F5E710F01F0F60
:101C60004CD1A078012140F08000307000F07F005E
:101C700001F082FA01F09EFA4CE000F07BFF28B3FD
:101C8000DCE710F01F0F39D146481B3812E001F095
:101C9000B7F8D8B101F08EFA444813E000F01F0005
:101CA00001282BD1707888B12079B178884225D26B
:101CB0003F4908442860C1E701F06CF930B101F0F8
:101CC00079FA3C48006828B3804723E016E010F01A
:101CD0001F0013D0012811D100F074F8D0B900F022
:101CE00073F8B8B900F06CF807E010F01F0F05D1D9
:101CF00000F098F870B900F097F858B9207800060D
:101D000003D4E08808B1002000E0802001F03EFA12
:101D1000A5F80490780721D5207800061CD4A8885F
:101D2000E0B1FFF745FFA888C0B92078C0F34111A2
:101D300061B101290AD110F01F0007D0012805D197
:101D400000F03CF850B900F037F838B9802001F0C5
:101D50001DFAA5F8049001E001F032FA380712D517
:101D60002078000606D5A888317908430BD0FFF704
:101D700003FF08E03078010605D500F07F003070E1
:101D8000002101F0F9F9780602D50020FFF780FE66
:101D9000380604D5BDE8F0478020FFF779BEBDE8DE
:101DA000F087000048030020347200082C720008FD
:101DB000C2020020307200080020704700207047E7
:101DC000002070470020704710B51248124A017970
:101DD000127891421CD1014642784888C988FE2A6F
:101DE00009D0FF2A14D198B991B900F0E9FD78B172
:101DF00001F0E0F90AE058B9012909D100F00AFB25
:101E000030B1074905480860FFF7B6FE012010BD54
:101E1000002010BD48030020C10200206C200020DB
:101E20004003002000207047002070472DE9F0415A
:101E3000EFF3108010F0010F72B6394D4FF0000132
:101E40002C69296100D162B6600507D501F03AF925
:101E500004F01CF93348006800B18047200505D51F
:101E600001F0B8F93048006800B18047E00405D5BA
:101E700001F0BCF92D48006800B18047A00503D5EA
:101E80002B48006800B180472A4E600403D53168B2
:101E900009B102208847DFF8A080A0042BD5316863
:101EA00049B3012026E000BFEFF3108010F0010FCE
:101EB00072B6224A4FF0070352F8212001F10101C6
:101EC000B1FBF3F603FB1611A96000D162B696B21E
:101ED000170C380604D558F8261009B10820884791
:101EE000380408D558F8261029B1380501D5022044
:101EF00000E00420884720040FD5EFF3108000F0A5
:101F0000010072B6D5E90212914201D1012200E02E
:101F1000002200B962B6002AC6D0BDE8F0810000F8
:101F2000C4020020D8710008DC710008E0710008CC
:101F3000E4710008E8710008EC710008EC20002052
:101F4000064810B5C16941F40001C161142001F0D7
:101F5000DFF903494FF40040086010BD0010024053
:101F60001408014070B500F0F5F800281CD00F48A7
:101F700002220F4D027042700E4C03202A6328701B
:101F8000A068022803D9A4F11F008260A2600A4859
:101F90000649007840F0800001F032F9A068296B12
:101FA000401AA0600120207370BD0000AC2000200A
:101FB000F4020020D5210020D0710008114810B58E
:101FC0000178022908D0032910D0042912D005294C
:101FD00001D10021017010BD0B48C07B282801D021
:101FE000A828F8D1BDE8104000F058BABDE810406C
:101FF00000F01CBD0548007840F0800000F02EFD88
:10200000F4E70000F4020020B6210020D07100089F
:102010001F4910B50A78B2B3012A0ED01D48052A0F
:1020200000781BD0072A29D000F018FD1A49022099
:102030000873BDE8104000F0F9BC17481F38C07B9A
:102040002A2803D02F2805D0AA2820D1BDE8104087
:1020500000F0F8BABDE8104000F08ABA01218140D2
:102060000E480068014201D0012000E00020BDE8D8
:10207000104040F23F420AA101F058B90020087018
:10208000086B1F2803D1BDE8104000F0C7B810BD91
:10209000F4020020D1710008D5210020380300206F
:1020A0002866696C65290000104810B54168C16058
:1020B00009B1012010BD0E4901F11F048A687AB1EF
:1020C000097B090604D50B48007840F0800005E044
:1020D000A168006B814203D00748007800F0BEFC85
:1020E0000120207300F0A2FC002010BDF4020020AB
:1020F000B6210020D0710008D17100081048007985
:1021000000F08F02100605D502F00F004FF4803169
:10211000814001E0012191400A48007840F08000B0
:1021200090420CD1084A12680A4208D00749084A6E
:102130000968914203D10D22044901F061B870474A
:1021400048030020D071000838030020D52100206A
:102150005553425370B50A48022400F11F058168A7
:1021600031B1007B000608D40648007800F076FC08
:102170002C7300F05BFC002070BD012070BD0000DE
:10218000B6210020D171000810B50E480E4C8068B1
:10219000216B884202D82063032000E004202070D5
:1021A0000A480B49226B007840F0800001F028F8C3
:1021B0000448226B1F308168891A816000210173F5
:1021C00010BD0000B6210020F4020020D0710008EC
:1021D000AC200020064810B5028807480549007861
:1021E00000F09CFC05490863BDE81040FFF710BFF4
:1021F000D6710008AC200020D1710008F402002044
:1022000010B50446400702D50020FFF7E3FF200782
:1022100003D5BDE81040FFF7D1BE10BD2DE9F04752
:10222000754E764C316B1F2902D20A46002005E01C
:102230001F220020724B1B5C2354401C9042F9D398
:10224000714FDFF8C0A14FF0010838781F2940F026
:1022500080007CD121686D4A914278D1674D6168D8
:102260001F356960A168A960617B19B9A17B09B1BB
:10227000102902D985F80C808CE0E17B4FF002092F
:102280002A293ED022DC1A2950D00FDC0429F1D0B3
:1022900006DCE9B30329EDD1BDE8F04700F04EBB01
:1022A0001229E7D1BDE8F04700F0BCB8232945D09A
:1022B00007DC1B2936D01E29DCD1BDE8F04700F031
:1022C000DFB825293ED02829D4D149E09E2943D022
:1022D0000FDC5529CED004DC2F2956D03529C9D1A1
:1022E00003E05A2926D09129C4D1BDE8F04700F077
:1022F000E5BBA1292AD0A32960D0A82930D0AA29DA
:10230000B8D100F06BFA002806D0207B000600E070
:1023100004E04FD486F80080BDE8F087BDE8F047C0
:1023200000F0D4BBBDE8F04700F0AEBBBDE8F0471D
:1023300000F02CBABDE8F04700F0FCB9BDE8F0476A
:1023400000F0C6BABDE8F04700F09ABA00E038E005
:10235000BDE8F047FFF706BEBDE8F04700F040BB20
:1023600000F03CFA0028D7D0207B000605D586F87F
:102370000090BDE8F04700F091B89AF8000000BF67
:1023800000F06CFB85F80C9004E0207C800705D4FD
:1023900000202873BDE8F04700F048BB00F01EFAAB
:1023A0000028B9D0207B000604D486F80080C6F847
:1023B0002080B1E7387840F08000E1E700F04EFB84
:1023C00058E700F04BFB3878114C00F00F014FF448
:1023D0008030884021685546084320609AF8000004
:1023E00000F03CFB297808FA01F0216808432060DE
:1023F0000620307090E70000F4020020B621002093
:10240000AC200020D1710008D07100085553424320
:102410003C030020024900200870012070470000A2
:102420006C20002010B5FFF795FE002820D0114841
:10243000002180220170427002228270C27020232B
:10244000037141718171C1710B490A6808211478C7
:1024500014B14454521C00E04354491CC9B224290D
:10246000F5D3064924200863BDE81040FFF78CBE71
:1024700010BD0000AC200020BC020020F4020020AF
:102480000548C07CC107044800F11F0000D00121AD
:10249000017300F0CBBA0000B62100202DE9F04115
:1024A0002E4C2F4F0026A169606ADFF8B880884261
:1024B0000AD33878002540F0800000F0CFFA88F881
:1024C0000C6000F0B3FA08E028492748E56A09786B
:1024D00030F81100A84200D20546FFF7E5FD00B92B
:1024E0000025A06A48B375B1A16AE0692A46014493
:1024F000387840F0800000F083FEA06A2844A06293
:10250000E06A401BE062D4E90410A26A41439142B0
:1025100003D1A662616A08446062D8F80810404698
:10252000491BC8F80810002D05D0E16A002902D126
:10253000032121700673BDE8F081002DE3D0E16A2C
:1025400020690144491EB1FBF0F26069824200D962
:102550000246E169606A03F051FDC5E7F40200201C
:10256000D0710008D5210020D27100082F0300206F
:102570002DE9F0412F4C00252F4EA169606A884259
:1025800007D32E482563007800F068FA357300F011
:102590004DFAFFF789FD20B1206B08B3A06A10B196
:1025A0000FE0256320E0E16A20690144491EB1FB88
:1025B000F0F26069824200D90246E169606A03F084
:1025C0001DFD00201E4BA26A216B0BE0D4F81CC03D
:1025D00017181CF8077013F800C0674501D0256272
:1025E00002E0401C8842F1D3A16A206B0B18A36261
:1025F000E16A0A1AE262D4E904714F439F4203D1AF
:10260000A562636A19446162B168091AB160002861
:102610000DD012B12078052809D1206A28B10020F8
:102620003073BDE8F04100F001BA0120F8E7BDE8E1
:10263000F0810000F4020020D5210020D1710008B3
:10264000AC2000202DE9F041344C0025344FA16925
:10265000606A884207D333482563007800F0FEF9AA
:102660003D7300F0E3F9FFF71FFD00B92563A26A8F
:10267000216B23695018984206D9BDE8F041FE222B
:1026800029A1002000F052BE0020294EE36906E097
:1026900016F800C002EB000E401C03F80EC0884282
:1026A000F6D3216BA06A0844A062E26A521AE26281
:1026B00009B392B988B121690844401EB0FBF1F614
:1026C0006069864200D906463246E169606A03F0D5
:1026D000AFFCA562606A30440CE0D4E904125143B7
:1026E000814208D1E169606A03F0A2FCA5626169D8
:1026F000606A08446062B968206B091AB9600028F2
:1027000009D0E06A10B12078052804D13D73BDE8F6
:10271000F04100F08BB9BDE8F0810000F402002028
:10272000D5210020D17100082866696C6529000058
:10273000AC20002010B5FFF70DFD00281FD0FFF7DB
:10274000B3FC00281BD00E48002106220170427005
:102750000C4A8170137ADB01C37001714171817180
:10276000C1710949082010638A68082A03D9A1F1B8
:102770001F0290608860BDE81040FFF705BD10BDE6
:10278000AC200020F4020020D521002010B5FFF776
:10279000E1FC00281BD0FFF787FC002817D00C486D
:1027A0000321002201700B4942700B7ADB01837018
:1027B000C2700420086308498A68042A03D9A1F179
:1027C0001F0290608860BDE81040FFF7DDBC10BDBF
:1027D000AC200020F4020020D521002070B5244C4C
:1027E000244DD4F81100217D00BA20F0FF000843E9
:1027F0000021C5E90901E17B2F290AD004DC282941
:102800000BD02A2917D104E0A8290DD0AA2912D16A
:1028100006E0FFF749FC002827D0E08A40BA0AE02A
:10282000FFF742FC002820D0D4F81500217E00BA22
:1028300020F0FF00084329690D4E4843E862A16873
:1028400001251F3669B1814210D0207B000604D5D6
:102850000948007840F0800001E00848007800F066
:10286000FDF8357300F0E2F8002070BD012070BD66
:10287000B6210020F4020020D0710008D1710008B8
:1028800010B5FFF767FC00281CD0FFF70DFC0028EF
:1028900018D00D4A0D489169491E0B0E03700B0CA0
:1028A00043700B0A8370C17011690B0E03710B0C1E
:1028B00043710B0A8371C17108201063BDE8104099
:1028C000FFF762BC10BD0000F4020020AC20002025
:1028D00010B5FFF73FFC002829D0FFF7E5FB0028E3
:1028E00025D013480021134A0170417081700821DE
:1028F000C17091690B0E03710B0C43710B0A83714C
:10290000C1710221017211690B0C43720B0A8372AF
:10291000C17209490C2010638A680C2A03D9A1F1FD
:102920001F0290608860BDE81040FFF72DBC10BD0D
:10293000AC200020F4020020D521002010B5FFF7C4
:1029400009FC002835D01B4870211B4A017000216A
:102950004170D468536833EA040406D006248470B6
:10296000282404734173D36008E0DBB1134B1B7B55
:10297000E3B105238370202303734173C170017198
:10298000417181710A23C371017241728172C172F6
:102990008173C1730174417412201063BDE810404B
:1029A000FFF7F2BB022383703A23E5E781700173DE
:1029B000E3E710BDAC200020F4020020D521002068
:1029C0000449002008600449086004490720087091
:1029D000012070473C030020D5210020F402002094
:1029E00010B5FFF7B7FB002817D00C4820220021B4
:1029F000027041700A4CC17703202263207009489D
:102A00000649007840F0800000F0FAFB0648226B8F
:102A10008168891A81600121017310BDAC200020FA
:102A2000F4020020D0710008D5210020084910B51B
:102A30000648086007480D22007840F0800000F04A
:102A4000DFFB05490520087010BD000055534253B7
:102A5000D5210020D0710008F402002010B50446F2
:102A600000F094FB200605D504F00F004FF48031F0
:102A7000814001E00121A140024802681143016048
:102A800010BD0000380300200A4810B5817C00F119
:102A90001F0429B101202073BDE81040FFF7C6BF15
:102AA000C07C054900F00100486003F0BFFA002037
:102AB000F1E70000B6210020F402002002490020C6
:102AC0000873FFF7B3BF0000D52100200F4810B5F1
:102AD000816800F11F0469B1007B000604D50C4831
:102AE000007840F0800001E00A480078FFF7B6FF68
:102AF000012004E0FFF7D8FA002805D00020207359
:102B0000BDE81040FFF792BF10BD0000B6210020C5
:102B1000D0710008D17100087047000070B5124BE9
:102B2000054600F00F005B68104C03EB001398683B
:102B30009B8904EB4000C3F30904944200D9144676
:102B40000022631C05E000BF30F8046B21F8026B23
:102B5000521CB2EB530FF7D34FF440512846FDF708
:102B6000A3FD204670BD0000C402002000600040AC
:102B7000FFF7C4BA2DE9FC414E48A0F11C050178CD
:102B8000A0F1080411F01F0102D001296DD179E0F4
:102B9000494AC77849491378464A494E1C3A062F94
:102BA000D27810D006DC012F09D0022F14D0032FC9
:102BB0007ED141E0072F2AD00F2F79D156E041482E
:102BC000206012205CE0002B72D01AB13E482060D9
:102BD0000A2055E03D48FAE70BB9012A68D00223E4
:102BE00022B1009673700021827809E000914B7049
:102BF000F9E70098037813B1438818440090491C02
:102C00008A42F6D10098017879B3206037E063B347
:102C1000072322B100914B700021827809E00096D1
:102C20007370F9E70098037813B143881844009053
:102C3000491C8A42F6D1E5E72549009181780329AC
:102C400001D0002108E001F0F1FC0BE0009B1A78B4
:102C50000AB11A440092491C82788A42F6D100983F
:102C6000017811B1206000780AE021E0194800786D
:102C700000281BD01848009020600178C1B140881E
:102C8000019005E001A9684600F02AF800280DD05F
:102C9000A1880198814208D9104980B2A0800978A2
:102CA000491E084201D1012028710120BDE8FC81A4
:102CB0000020FBE748030020CD710008A41F00207E
:102CC000C0020020387200084B7200084A720008E7
:102CD0004E720008CE7100084C720008CF710008D7
:102CE0000020704770B51C481B4D0078A5F1080501
:102CF00010F01F040AD01848A5F11401174B4A78A8
:102D00000079012C06D0022C24D109E01248163893
:102D100028601DE0F2B1897888421BD2002015E0BE
:102D200000F08F04200605D504F00F064FF4803024
:102D3000B04001E00120A0400AB922070AD18A6808
:102D4000024207D0C9680142E8D0012018802B60F8
:102D5000012070BD002070BD480300206C200020C1
:102D600070B5264A0146A2F11C04107810F01F032A
:102D70001046408804D0012B28D0022B26D110E029
:102D8000012823D129B100F039FAE08840F002008F
:102D900005E0002000F032FAE08820F00200E08038
:102DA00029E0127902F08F06320605D506F00F02EF
:102DB0004FF48035954001E00125B54062782AB195
:102DC000320703D0A2682A4200D008B1002070BDAB
:102DD00029B1304600F0DAF9E06828430AE02069BA
:102DE000284208D13046FEF753FE3046FFF7C0FEBA
:102DF000E068A843E060012070BD000048030020A7
:102E00002DE9F84F5D4F00200090387810F01F0F2B
:102E100071D1B8784FF000094FF0010B4FF4803AB0
:102E2000A7F11C0600287CD0554801783046C078B0
:102E300009B901285FD008B1524C6EE0524C6CE0E9
:102E40006078022805D0042846D0052847D00728F6
:102E500061D16179B87881423CD1707020794C4958
:102E6000B0700020494A098803E000BF02F80090D2
:102E7000401C8842FAD301254FEA06080BFA05F0F8
:102E8000D8F80810084202D02846FEF7A2FED8F86B
:102E900008100AFA05F0084203D045F08000FEF75A
:102EA00098FE6D1C102DE9D34FF00110C8E90209FE
:102EB0000120C8F81090FEF73FFEE0794006B8F810
:102EC000060002D540F0010001E020F00100A8F862
:102ED000060020E060881FE0E07800901BE000988A
:102EE000C8B9A07800F08F05280606D505F00F01B7
:102EF0000AFA01F003E03BE013E00BFA05F0B168D9
:102F000001432046B160FEF7CFFD2846FEF764FE80
:102F1000284600F02FF920780444207800288FD12B
:102F200022E04D4686F801900124D8464FEA0A096E
:102F3000B16808FA04F0084202D02046FEF749FEC4
:102F4000B16809FA04F0084203D044F08000FEF7AB
:102F500040FE641C102CEBD34FF00110C6E90205B3
:102F600000203561FEF7E8FDB8787178884202D01C
:102F70000020BDE8F88F0120FBE700004803002097
:102F8000CD710008C0020020A41F0020C202002052
:102F9000B80200202DE9FC5F454E00273D46307801
:102FA000BB4600F01F00B84601287ED1A6F11C01E7
:102FB0004878002876D03F48BA4602780846C0785C
:102FC0000AB9012871D0894608B13B4C66E03B4CF8
:102FD00064E06078022805D004280AD0052819D0BA
:102FE000072859D1617999F80100814254D060884D
:102FF00053E0A7783079E5784FF00008B8424BD11C
:10300000B078A84248D12E484FF0010A10F807B016
:10301000C55541E03079B8423ED1A07800F08F002C
:103020000190000605D5019800F00F014FF48030A3
:1030300001E00199012088400090B078A84217D1A2
:10304000D9F80810009A20461143C9F80810D9F899
:103050000C109143C9F80C10FEF726FD0198FEF7FD
:10306000BBFD019800F086F8009948EA010813E0DA
:103070005D4511D1009918EA010F0DD1D9F808105A
:10308000009A9143C9F80810D9F80C109143C9F877
:103090000C100198FEF79DFD20780444207800284C
:1030A00097D15046BDE8FC9FFFE70020FAE70000FB
:1030B00048030020CD710008C0020020A41F00209A
:1030C000C20200204FF0E0224FF480110020C2F82D
:1030D0008011BFF34F8FBFF36F8F1F4908601F49E7
:1030E000096819B14FF400514A0001E000210A4675
:1030F00011431B4A1268002A02D000BF4FF400722D
:1031000041EA020102D04FF4807201E04FF0000268
:1031100041EA0201134A41F41C411160134B124968
:103120004FF030021860486802604FF07002826011
:103130004FF0B0020A8048F2FF71C1600C494FF4B1
:1031400048500860A3F104014FF0800008604FF080
:10315000140000F0DDB80000445C0040E871000895
:10316000E4710008405C0040C4020020505C004054
:10317000005C0040FDF784BA002903D1024940F009
:1031800080000860704700004C5C004041F2100174
:10319000FDF78ABA082202490020FFF7BFBC0000F1
:1031A0004803002002484FF40071806801F0E5BB3D
:1031B000F401002000221146802000F021B8000018
:1031C0000248034902780020FFF7A8BCCF7100082D
:1031D0006C2000200448016841F00801016001688A
:1031E00041F0040101607047405C00400248016802
:1031F00021F0080101607047405C0040704700000A
:10320000F0B5154F064600F00F037868144600EB42
:103210000310124A006802EB40020020651C04E023
:1032200031F802CB42F804CB401CB0EB550FF7D37A
:1032300078680B4900EB0310446001EB8300D0F881
:10324000000CC0F30110012803D030213046FDF7F7
:103250002BFA2046F0BD0000C402002000600040B0
:10326000005000402DE9F047254D2868DFF8948094
:1032700020F01F0200F4FE41D8F810301A43C94371
:10328000C8F810202960DFF88090000448F2800719
:1032900025D427E010F00F0009EB8006D6F8004C8B
:1032A00008D1210406D5210504D4D8F80410898951
:1032B00089051BD064F31F4002F046F9200406D5AF
:1032C00044EA070040F68F710840C6F8000C20065B
:1032D00005D53C4348F60F700440C6F8004C2868FA
:1032E0000104D7D4BDE8F047FFF75CBF2106E7D55E
:1032F000C4F30E0161F31F4002F026F9E0E700007D
:10330000445C0040C4020020005000400020704790
:10331000002809DB00F01F020121914040098000D4
:1033200000F1E020C0F80011704700002DE9F041E5
:1033300016460F4600281BD1EFF3108000F0010461
:1033400072B600231A461946184600F05FF90500C8
:1033500003D13146384600F0BDF904B962B6002DFC
:1033600006D100BFEFF30380C00601D103F004F9DA
:10337000BDE8F08110B528220D490E48FDF782F80E
:1033800003F0BEF90C4803F0B5F903F023F80B493C
:103390000B4A0C4B08604FF40071B0FBF1F0116068
:1033A000094901221A60086009490848086010BDEF
:1033B000A06D0008E00F0020293B00082803002032
:1033C00004030020080300200C030020E00D00206F
:1033D00010030020044841788078814201D0012008
:1033E00070470020704700008402002030B5054679
:1033F000EFF3108000F0010472B6284600F007F8E1
:10340000A968081A401E002C00D162B630BDEFF347
:10341000108101F0010172B6D0E90023934201D37B
:10342000981A02E080681844801A002900D162B618
:103430007047000070B50446EFF3108000F00105FE
:1034400072B6D4E90001884201D0012000E00020DA
:1034500042220EA1FFF76AFFE16820680E5C401C63
:103460002060A16888420CD302D14FF0010001E036
:103470004FF000004FF0470204A1FFF757FF002074
:10348000206005B962B6304670BD00002866696CE0
:103490006529000070B50446EFF3108000F00105C7
:1034A00072B66268E06881546068401C6060A16820
:1034B00088420CD302D14FF0010001E04FF0000030
:1034C0004FF0300209A1FFF731FF00206060D4E91E
:1034D0000001884201D0012000E00020352203A134
:1034E000FFF724FF002D00D162B670BD2866696C1D
:1034F000652900002DE9F04117460D460646FFF705
:1035000075FF874200D30746002404E0295D30465A
:10351000FFF7C0FF641CBC42F8D33846BDE8F08119
:1035200000F0ECBB00F0EABB0020704701207047C0
:10353000002070472DE9F0418E212148FCF7DCFF87
:10354000204C214F8E2520681D4EB84210D1A588F1
:103550008E2D01D22A4601E04FF08E0201D84FF0A5
:103560008E0518491648FCF706FF002086F847002C
:103570008E211448FCF7C0FF2760A5804122354604
:10358000F11DE01DFCF7F7FE35F8480F24F8480F51
:10359000A878A070E878E0708200094909484C31A9
:1035A0004C30FCF7E8FE95F8440084F8440095F8A8
:1035B000450084F84500BDE8F04100F0C7B80000C0
:1035C00028210020004F0020646C766B074991F899
:1035D0004B20102A01D30020704701EB8202D064F7
:1035E00011F84B0F401CC0B208707047004F00200C
:1035F00010B5054C4121E01DFCF77EFF002024F8AA
:10360000480FE07010BD0000004F00202DE9F0478A
:10361000184C81461E4617468846E01DFCF735FECD
:10362000451CB9F1000002D04146FCF765FF0020BF
:1036300007B1388006B13070E079002818D04545D0
:1036400002D8E11D2A4604E0A5EB08000119424614
:10365000C91DB9F1000F02D0B4F84800388017B185
:103660004846FCF788FE16B194F84A0030700120F5
:10367000BDE8F087004F0020014890F88C007047AB
:10368000004F0020054991F84B202AB101F14C026E
:10369000026091F84B00704700207047004F0020F7
:1036A00002488079002800D001207047004F002098
:1036B00002488079002800D001207047282100208E
:1036C000034890F88D00002800D0012070470000CA
:1036D000004F00202DE9F04188460646FCF7D5FD55
:1036E000104D441C41273946E81DFCF705FF412CCD
:1036F00002D83146224602E0413CA1193A46E81D73
:10370000FCF739FEA5F8488000F0A0F808B10120C8
:1037100003E000F09DF800B1022085F84A00BDE802
:10372000F0810000004F0020014981F88C007047B3
:10373000004F00200149887170470000004F0020B1
:10374000014981F88D007047004F00207047704795
:10375000704770472DE9F0410F4606464FF0FF34A1
:103760000025DFF83C8012E0705D082101F004FDC7
:1037700084EA006408204146002C02DA81EA44040D
:1037800000E06400401E10F0FF00F5D16D1CBD424A
:10379000EADB2021204601F0EFFCC043BDE8F081C8
:1037A000B71DC1042DE9F0410E4617462021C04344
:1037B00001F0E2FC04460025DFF83C8012E0705D79
:1037C000082101F0D9FC84EA006408204146002C5D
:1037D00002DA81EA440400E06400401E10F0FF00B9
:1037E000F5D16D1CBD42EADB2021204601F0C4FC6E
:1037F000C043BDE8F0810000B71DC10470B5144698
:103800000D460646B2F5806F07D240F2DD120AA1DE
:103810000020FFF78BFD022070BD00F027FC08B1EF
:10382000102070BD2A462146304600F02BFD0028AE
:10383000F7D01F2070BD00002866696C6529000064
:10384000C10600F00F0000D4093070470120704716
:103850000020704710B500231A4600F071FA0028C6
:1038600000D0012010BD10B502F0E0FC012800D00E
:10387000002010BD2DE9F041164D144C144E28784F
:10388000012806D040F2371213A10020FFF74EFDA9
:1038900009E0A878022748B140F23D120EA10020AD
:1038A000FFF744FD2F700220BDE8F081204600F0B4
:1038B00017F810B12F702120F6E704F58064B442A8
:1038C000F4D30120A8700020EEE7000000C000083B
:1038D00000FC0108600200202866696C6529000070
:1038E0002DE9F0412A4C05462078012805D0FF2219
:1038F00028A10020FFF71AFD19E04FF48068404628
:10390000B5FBF0F108FB1151022711B140F207128B
:1039100008E0E17871B1D4E902121144A94209D05A
:103920004FF487721BA10020FFF700FD27700220D3
:10393000BDE8F0811949B5F1006F04D38D4202D280
:1039400027702020F4E70121E170154EC4E90258E8
:103950001448B54201D3854201D322200FE0FFF77E
:1039600077FF70B1304685420BD142463146FFF7B2
:1039700045FF0028DCD0252803D00028D8D02770A8
:10398000D6E7284600F072FB0028D9D1D0E7000026
:10399000600200202866696C6529000000BC0008F0
:1039A00000C0000800FC01084FF480607047000070
:1039B00010B5272804D2064951F82000002805D167
:1039C000EC2204A10020FFF7B1FC04A010BD000010
:1039D000BC6C00082866696C6529000000000000C6
:1039E0000121272801D20249095C084670470000DE
:1039F000A80100202DE9F04789460446064600E06C
:103A0000641C2078402802D00028F9D163E0607857
:103A1000622847D012DC522853D008DC422841D01B
:103A2000442848D0482840D04D2817D118E05428C1
:103A30003ED0552817D0562810D13FE0722840D0EC
:103A400006DC642837D068282FD06D2806D107E01F
:103A500074282DD0752806D076282FD01FA004E01A
:103A600000F0D8FD01E000F0DDFD80462046FCF7C7
:103A70000CFC05464046FCF708FC0746E0194119D6
:103A800006EB0902891E914224D2AA1EA11CFCF752
:103A9000B7FC3A4641462046FCF76DFC20780028EA
:103AA000AFD118E000F060FDDFE700F08FFDDCE74C
:103AB00000F0B4FDD9E700F085FDD6E700F0BAFDCF
:103AC000D3E7084890F82A0010B106482A30CCE71E
:103AD00005A0CAE72C44A01BBDE8F0874552524F11
:103AE00052000000426C000868747470733A2F2F03
:103AF0006D6265642E6F72672F6465766963652FEA
:103B00003F636F64653D40553F76657273696F6EC4
:103B10003D40563F7461726765745F69643D40540F
:103B200000000000704700002DE9F0411E461546D8
:103B30000C46074602F092FE2C4890F8201003290C
:103B40000FD0022C0FD004B3012C0AD10168A94276
:103B500007D190F82210A9B300214A1E01608260AB
:103B60008161BDE8F0810068A842FAD1304602F0D8
:103B700017FC0446304602F015FC0646384601F0B4
:103B800079FD03462246314617E0384601F072FDC2
:103B90000328E6D0304602F001FC8007E1D4384625
:103BA00001F068FD0746304602F0FAFB0446304655
:103BB00002F0F8FB01463B4622462846BDE8F041AC
:103BC00001F0C2BE28220A490848FCF75BFC01F05C
:103BD000B5FD08488178012903D14178022900D137
:103BE0008170BDE8F04101F0B1BD0000E00F0020A0
:103BF000A06D0008840200202DE9F0411D4C05460F
:103C0000174694F822008846560260B9314640466D
:103C100001F002FD032802D0294601F059FE94F874
:103C2000220000280FD06068A8420CD8E068A842A3
:103C30000BD008D92069401C00D125612069A84219
:103C400000D205462561BDE8F081E06932461044A6
:103C5000E061E819E06094F8230020B1BDE8F0418C
:103C6000002001F0ABBE41462846BDE8F04101F01E
:103C7000EBBD0000E00F0020F0B51BA185B0096886
:103C800004910278002104AB5C5C944229D0491C69
:103C90000329F9D315A10022D1E90243D1E9007526
:103CA0006E46815CCDE90243CDE90075A1F1610C5E
:103CB000BCF1190F15D9202901D2052911D14FF0D6
:103CC000000C00BF16F80CE08E450AD00CF1010C78
:103CD000BCF1100FF6D3521C0B2AE2D3012005B021
:103CE000F0BD0020FBE70000E5002000222A2B2C7D
:103CF0002E2F3A3B3C3D3E3F5B5C5D7C70B50D4CEE
:103D00000020257875B100212170A17809B100F05B
:103D100085FA022D05D06178032902D0002800D150
:103D2000242070BD40F2431203A10020FFF7FEFAE9
:103D3000022070BD300200202866696C65290000F1
:103D400070B51C460646302901D3012000E0002052
:103D5000412212A1FFF7EAFA316A706A114D0CB9DB
:103D600000222A71104A90420AD11048814201D1A2
:103D7000022070BD0D48FC3881420CD1012070BD7D
:103D8000304602F017FA18B11CB90120287100E082
:103D90000CB1032070BD002070BD00002866696C66
:103DA0006529000030020020089996978F9E939B0A
:103DB0002DE9FF5F4FF00004DDF838905FEA03085B
:103DC00093460746264613D05FEA090010D000202C
:103DD000C8F800000546C9F80000FFF737FDDFF816
:103DE000ACA078B12A48022F04D0032F1CD033E0B6
:103DF0006B2245E0BBF1000F16D00199814213D030
:103E00001B242AE0FFF724FD30B3012F02D0032F3B
:103E10000ED021E04FF00060BBF1000F04D00199FB
:103E2000814201D01A2418E00546DAF8006014E057
:103E30001848006980B10C3003E08168012909D07D
:103E4000143001680029F8D141680029F5D11248E1
:103E5000066802E00568FAE71C24FFF767FB08B96B
:103E6000012F04D02CB1204604B0BDE8F09F1C24E3
:103E7000F9E726B1C8F80050C9F80060F3E7AD22B1
:103E800006A10020FFF752FA0220EDE79C6D000822
:103E900000C00008426C0008746D00082866696C58
:103EA00065290000144910B54B78012B04D0022B72
:103EB00004D0032B1ED103E010490FE010490DE0A0
:103EC0000979B9B10F490969A1B10C310CE08342FC
:103ED00009D84B68834206D3496859B110448842D7
:103EE00008D3012010BD14310B68002BEFD14C68B2
:103EF000002CECD1002010BD3002002000BC0008D6
:103F000000FC0108426C000810B50C4C207830B160
:103F1000BC220BA10020FFF709FA022010BDFF22EE
:103F200030210948FCF7E0FA012020700020607081
:103F3000A060E0602061A070E07010BD3002002041
:103F40002866696C65290000640500202DE9FE4F94
:103F5000424C0646894620781746012807D0D122D0
:103F60003FA10020FFF7E2F90220BDE8FE8FE078D4
:103F70004FF0010A18B9E660266184F803A0A07822
:103F80004FF00308002854D121698E4201D101204D
:103F900000E000203944216130B3A068C0F1300551
:103FA000BD4200D9154630492A4608444946FCF727
:103FB000E2F9A0687F1B2844A9442E44A060302861
:103FC0001ED302D14FF0010001E04FF000004FF08E
:103FD000F30223A1FFF7AAF9D4E902120123224830
:103FE000FFF7AEFE607001E084F8018001A8009048
:103FF00002AB01226078E168FFF7DAFEF8B902E06F
:10400000A07870B91EE0A0784FF4867280F00100AD
:1040100013A1FFF78BF9019800F0B6F878B984F88E
:1040200002A0D4E90220104900F02CF838B9A07899
:1040300040B13A464946304600F024F810B184F8C1
:10404000008092E73A4649463046FFF72BFF0028AA
:104050008BD002202070132087E700003002002060
:104060002866696C652900006405002010B5EFF32F
:10407000108101F0010472B6FCF734FB002C00D172
:1040800062B610BD2DE9F0473B4D06460024687826
:1040900017468A46012807D07B2238A10020FFF767
:1040A00045F90220BDE8F087E8784FF0020858B9DA
:1040B000304601F083F9040003D000BF85F8018089
:1040C00058E00120E8706E61A868B6FBF0F100FBD3
:1040D0001161721A6969B1FBF0F300FB1310081A41
:1040E000824204D0304600F0D9F80400E6D12869B5
:1040F000B6FBF0F100FB1161721A6969B1FBF0F3D4
:1041000000FB1310081A824204D0304601F056F921
:104110000400D3D1D5E901010844B04204D83046A7
:1041200000F0BCF80400C9D11FB3D5E9030108446D
:10413000B04204D8304601F041F90400BED16868AD
:10414000A968301A091A8F4200D2394689460D49AA
:104150004A4608445146FCF70EF9B9F1000F06D063
:104160000020A8704E44CA44A7EB0907D2E70120FB
:10417000F7E76E61204695E7440200202866696CE7
:1041800065290000940500202DE9F0411F4C0546EB
:10419000607808B1472225E0002615B3686800B3AF
:1041A000A868F0B1E868E0B12869D0B16869C0B129
:1041B000A869B0B1E869A0B10127FF22B90214488B
:1041C000FCF792F9A770E6706660A660E66026616B
:1041D000C4E9056528688047050008D1207840B10A
:1041E00011E04D220BA10020FFF7A0F80220BDE84E
:1041F000F081A06900698047050004D0A06940688B
:1042000080472846F3E76770FBE700004402002080
:10421000940500202866696C6529000070B5154C6E
:104220000025607810B1012807D00AE0CC2212A145
:104230000020FFF77BF8022070BD002000F02EF870
:104240000546A069406880470646FF224FF480611A
:104250000B48FCF749F90120A0700021E170616072
:10426000A160E1602161616161700EB1304670BD95
:10427000284670BD440200202866696C652900004C
:104280009405002010B5EFF3108303F0010472B61B
:10429000FDF72EFA002C00D162B610BD70B50E4CA1
:1042A00006460025A07840B9A0690C498368D4E986
:1042B0000102984705460120A070FF220748A16827
:1042C000FCF712F9A068B6FBF0F100FB1160301AA0
:1042D0006060284670BD0000440200209405002064
:1042E0000548016929B10169D1F89C1109B1084655
:1042F0007047001D70470000426C000804490869BF
:1043000020B10869B0F8A001002800D148887047A2
:10431000426C0008034601220149002018470000B2
:1043200008100020002070470248006840F3000099
:10433000401C7047080C01402DE9F043544885B0FB
:10434000816941F004018161816901F004010491F6
:10435000816941F008018161816901F008010491DE
:10436000816941F010018161816901F010010491BE
:10437000816941F020018161816901F0200104918E
:10438000816941F001018161816901F001010491BC
:1043900040494A6822F0E06242F000724A60816956
:1043A00041F00401816180694FF4004600F004008F
:1043B0000490394806600124DFF8DC90CDE9006400
:1043C0000325A9F11409694648460395FCF7DCFA70
:1043D0000122570239464846FCF7B4FBCDE9007488
:1043E000694648460395FCF7CFFADFF8B080012212
:1043F00040214046FCF7A6FB4020CDE90004694679
:1044000003954046FCF7C0FA012239464846FCF7BE
:1044100099FBCDE90074694648460395FCF7B4FA68
:10442000012239464846FCF78DFBCDE90074694608
:1044300048460395FCF7A8FA012211464046FCF7CE
:1044400081FB1120CDE90040694640460294FCF70B
:104450009BFA002231464046FCF774FBCDE900642C
:10446000694640460395FCF78FFA2002009002202F
:104470000190039569464846FCF786FA00F098FAE1
:1044800007480490401E0490FCD105B0BDE8F083BD
:10449000001002400000014014080140000C0140DF
:1044A00040420F0028B100224FF400710248FCF78F
:1044B00049BB0122F8E700000008014028B10022B2
:1044C0004FF400710248FCF73DBB0122F8E7000001
:1044D0000008014028B100224FF400710248FCF7A7
:1044E00031BB0122F8E7000000080140092800D98B
:1044F00027303030C0B2704710B513490020086033
:104500001249086012490860124908604BF6FC31F4
:104510004FF00060FFF71EF90B4908600E490F4885
:10452000FFF718F9094908604FF480610C48FFF75C
:1045300011F9074908604FF480610A48FFF70AF94A
:104540000449086010BD0000D4010020D8010020FB
:10455000DC010020E0010020FC3B010000C000085D
:1045600000BC000800FC010800487047E40100207E
:104570000120C106064A096A914200D000204FF08E
:104580000061044A496A914200D00020704700004F
:10459000939D939B0899969700B5FFF7E9FF08B99B
:1045A000002000BD4FF00060806AFAE70148006813
:1045B00070470000D40100200148006870470000E7
:1045C000D801002000487047F003002000487047E1
:1045D000AE03002001200649064A096A914200D034
:1045E00000200349044A496A914200D000207047E4
:1045F00000C000088F9E939B0899969700B5FFF71F
:10460000E9FF08B9002000BD0148806AFBE700000F
:1046100000C0000800487047A10300200048704710
:10462000CF03002000487047700300200048704707
:10463000F903002000487047EE01002010B5FFF795
:104640005BFF054800F034FD00F00AFE00F05CFF5F
:1046500000F02EFF10BD00005003002010B5124CDA
:10466000207830B1622211A10020FEF75FFE022007
:1046700010BD002211461046FDF738F808B11D2084
:1046800010BD00206070A070E070A060E06020713C
:1046900020616061A0614FF480610648FBF72CFF48
:1046A00001202070002010BD600200202866696C87
:1046B00065290000940900202DE9F047DFF8C89033
:1046C00005462F4E99F800002E4F90468A46012845
:1046D00008D040F279122DA10020FEF727FE02201B
:1046E000BDE8F087B54201D3BD4201D32220F7E7F0
:1046F000FFF7AEF898B37C1B201F4146404501D917
:104700000A4600E0221F5146D9F81800FFF74AF880
:104710002049C9F818008D4208D21F49A81B084437
:1047200042465146FBF727FE0020D9E705EB08017A
:10473000B94222D10AEB04014C4611F8012C51F880
:10474000041C62F31F61884201D02620C8E752464C
:1047500041462846FFF796FD10B11F20C0E70CE048
:104760004FF480620C493046FFF748F80546FFF7E2
:10477000C3FE012060702846B2E72520B0E70000A4
:1047800000C0000800FC0108600200202866696C77
:104790006529000000C400089409002000F016FDFF
:1047A000FFF7CAFDFEF7C6FEFFF7BEFDA0B9FFF793
:1047B000B9FD88B90D4C206970B1C06801F0FAFCF0
:1047C00050B1FEF775FF38B92069094AC168116018
:1047D000C06803C8FBF7F8FC00F0BFF800221146E0
:1047E000044800F0D5F800F0BDF8FEE7426C000880
:1047F00008ED00E009480008024901220A704870EB
:1048000070470000F40100200126FEF751FF10B1AF
:10481000642000F09DF800F0B9F8434CA06000203F
:10482000FFF74CFE0020FFF73DFE3046FFF752FE3B
:10483000FFF704FF01F0BEFB012001F0B7FE0020EE
:1048400001F0B6FB0025E5700120E560A07001468F
:104850004FF00B082B462A46344800F09EF80321FF
:1048600000F0A0F84FF0FF3940F2032A4A46002139
:10487000504600F089F887B2B80501D5FDF7D6FAA1
:10488000F80737D05A2001F0A9FEE078012805D1B9
:10489000E06810B1401EE06000D1E570A07838B348
:1048A000012812D003281DD0042823D1E07808BBAA
:1048B000B8F1000F04D0A8F101005FEA000819D197
:1048C000002001F075FBA57014E0B8F1000F04D0D2
:1048D000A8F101005FEA00080CD1012001F068FB9B
:1048E000032003E001F05CFB20B10220A07001E096
:1048F000FCF79CFFB807B9D520780028B6D06078BF
:10490000012807D0022805D0012625703046FFF780
:10491000E1FDABE7012E05D001260128F6D1257077
:104920006570F3E70026F1E7F40100201558000850
:10493000FFF7EABA10B5044640F20111FBF7DCFDBF
:1049400000F02EFC00202070BDE81040FFF7DCBA1C
:1049500010B500F04FFF002010BD10B500F01AFF99
:10496000002010BD10B500F03BFF002010BD00205E
:104970007047002070470020704710B50C4608466D
:1049800000F0EAFE204610BD00F0F0BE01207047A6
:1049900010B500F01FFF012010BD10B500F014FF8E
:1049A000012010BD10B5084600F0EEFE002010BD3D
:1049B00070B590B00EA909A8FCF71EFA0D98B0F5D5
:1049C000005F05D0B0F5205F23D0B0F5405F22D066
:1049D00001202549274C00250968B1FBF0F0234947
:1049E000B0FBF1F62248C4E90005761EC4E9036570
:1049F0002148A5606561816941F400618161806938
:104A000000F4006008902046FCF7C7FD28B1522250
:104A100023E00220DDE70420DBE71648FCF7D9FDA0
:104A200008B1582219E07020CDE9010503950495DD
:104A300005950695002201A90E480795FCF745FD4E
:104A400008B1652209E0216870084863002109481F
:104A5000FCF7DCFD002804D06C2208A10020FEF742
:104A600065FC10B070BD0000D802002000127A0072
:104A7000002C01400C1B0020001002402866696CCD
:104A8000652900002DE9FF4F81B08946109C05463D
:104A900000EB0907DFF804A2002020609AF8030069
:104AA000934600281AD000207D4E8AF80300311D5D
:104AB00032780498FBF75FFC307804990144049144
:104AC000216808442060DAF80400B6F801106FF39A
:104AD0000F00084331780144CAF80410C3E0287875
:104AE0000A282ED00D28FCD03A281FD09AF80010A2
:104AF0005646002971D0FEF7A3FE00F00F01DFF843
:104B0000A0C170781CF8002011430CF80010401C64
:104B1000C1B271709CF800000090401D81425BD3CF
:104B20006346002219781046491D11E025215C4892
:104B3000FBF7E2FC00218AF800108AF801108AF8DD
:104B400002108FE013F80080401C4244D2B2C0B281
:104B50008142F7D80AB1042689E0B1780120002902
:104B60007CD16146B07031F8010FE04640BA088050
:104B7000887830B1012831D0022831D004286DD195
:104B800047E04749252201F12500FBF7F4FB706857
:104B9000B8F80130020C12041A43824204D00120FA
:104BA0008AF80300022662E008F10401009A0498E2
:104BB000FBF7E1FB98F80000049901440491216897
:104BC000084420607168B8F801206FF30F011143A9
:104BD00098F800201144716040E036E0012646E07C
:104BE00021680E98FF22411A0498FBF77DFC21688A
:104BF000DAF80420521A0F990A607A1B2849A9EBA7
:104C00000202CBF800200A794979120342EA011125
:104C100015E021680E98FF22411A0498FBF764FC06
:104C20002168DAF80420521A0F990A607A1B1C498D
:104C3000A9EB0202CBF80020898849BA09040220B6
:104C4000CAF8041005B0BDE8F08F7178252922D28A
:104C5000FEF7F6FD12497278000188543078D0B121
:104C6000002131706D1CBD427FF439AF00262168F0
:104C70000E98FF22411A0498FBF736FC2168DAF8F7
:104C80000400411A0F980160791BA9EB010130461D
:104C9000CBF80010D6E70121E3E700007C020020FA
:104CA000940D00202DE9F05FDFF800810446DFF865
:104CB000F89098F8000016468B46012805D0A222ED
:104CC0003BA10020FEF732FB3EE04FF48060B4FBD6
:104CD000F0F100FB1141022509B1AB222EE00146A3
:104CE0008E4204D3B6FBF1F300FB13620AB1B22289
:104CF00024E0B4FBF0F200FB12403044884201D9BA
:104D0000B9221BE098F8020078B998F8030050B176
:104D1000D8F80800844204D3D8F80C100844A04204
:104D200003D8C7220AE0C12208E098F8040070B155
:104D3000D8E904010844A04209D0CF221CA10020D8
:104D4000FEF7F4FA88F800500220BDE8F09F1A49F7
:104D5000A71901208C4207D2B7F1006F04D900BF18
:104D600088F800501F20F0E7824688F804A0C8E9C0
:104D70000446324659462046FFF79EFC252804D0BB
:104D80000028E2D088F80050DFE75A463146204636
:104D9000FFF778FA0028E3D14F4503D3FFF7ACFBC8
:104DA00088F801A00020D0E700FC01086002002084
:104DB0002866696C6529000000BC00084FF480601B
:104DC0007047000070B514460E46054620444FF467
:104DD0008061B1EB402F07D24FF419720AA1002075
:104DE000FEF7A4FA002070BD4FF400713046FBF7C7
:104DF00083FB35B906480749006942013046FBF795
:104E0000BAFA600270BD00002866696C652900006E
:104E10009C0200200C17002010B50B464FF40074C4
:104E200008B1002010BD224602491846FBF7A3FA3C
:104E3000204610BD4C1400202DE9F8430C460021FB
:104E40000E46009110B10020BDE8F883DFF8C8805D
:104E500098F80000012845D0022845D000272046B8
:104E60002EA101F059F9054660192FA101F054F95E
:104E7000054460192E4901F04FF9054460192DA130
:104E800001F04AF9054460192BA101F045F90544E8
:104E90006019B8F8021001F049F90544601925A11C
:104EA00001F03AF9054477B1601925A101F034F910
:104EB00005446019394601F02FF9054460191DA118
:104EC00001F02AF905446846FEF7DCFB070021D013
:104ED0000098F8B160191DA101F01EF905444FF4C6
:104EE000007811E01CA7BAE71EA7B8E7009850F8B1
:104EF0002610761CF6B2601901F0E6F80544601938
:104F00000CA101F009F90544BE4203D205F10A00E3
:104F10004045EBD3284697E7940200204173736520
:104F200072740D0A0000000046696C653A200000AA
:104F3000081200200D0A00004C696E653A2000003E
:104F4000536F757263653A2000000000486578640D
:104F5000756D70730D0A0000426F6F746C6F616441
:104F6000657200004170706C69636174696F6E00F6
:104F70000A4608B1002070474FF40071104600F057
:104F8000DBBD00002DE9F04707460C4601F006FBAB
:104F90000646FEF70DFD05463046FEF721FD0646A6
:104FA00017B10020BDE8F08720461C4901F0B4F895
:104FB0000746E019294601F0AFF8C519601918A194
:104FC00001F0AAF8154905446019C91F01F0A4F8B9
:104FD000054400274FF00108CEB1DFF8489007E004
:104FE000B8F1000F04D160190FA101F095F8054444
:104FF000F00707D059F82710601901F08DF8054423
:105000004FF000087F1C760801D0052FE8D3601907
:1050100003A101F081F82844C4E70000CF6D000827
:105020000D0A0000486F00082C20000070B508B180
:10503000002070BD0C464FF4007529462046FBF752
:105040005BFA0748FBF721F9024605492046FBF7C2
:1050500092F929462046BDE87040FEF7CBBC00001F
:10506000D76D00082DE9F041084D06460F46284649
:10507000FBF70BF9044616B10020BDE8F0810246AB
:1050800029463846FBF777F92046F6E7F47A000818
:1050900010B50B464FF4007408B1002010BD224635
:1050A00002491846FBF767F9204610BD4C12002054
:1050B00006490B68091D0A68091D09680360C0E9F3
:1050C00001214FF0A531C16070470000E8F7FF1FD4
:1050D00010B5084654022146FBF70EFA204610BDD3
:1050E00070B5214D6878A978884201D0012000E090
:1050F00000204FF4FC721DA1FEF718F96878022811
:1051000003D0C0B101281AD01DE01A484FF4FA7438
:1051100090F8200008B301280AD002281DD00328E7
:105120001BD040F20A2211A10020FEF7FFF814E084
:1051300044F6206411E0A87802280AD003E0A87899
:10514000022808D028B140F21A2208A10020FEF758
:10515000EDF8002401E040F6C414A868A04201D98B
:10516000012070BD002070BD840200202866696C9B
:1051700065290000E00F002070B5034600200246BC
:10518000012509E0DC0704D08E1A761E05FA06F424
:1051900020435B08521CD2B28A42F3D370BD000098
:1051A00010B525210748FBF7A7F90648252125302A
:1051B000FBF7A2F904480021416001704170817041
:1051C000C17010BD940D00207C02002030B58FB05E
:1051D00014210AA8FBF7B2F928216846FBF7AEF9BB
:1051E000FCF7CCFAFBF7CCFC01250024CDE90A54EE
:1051F00029460AA8FBF73CFD20B1402216A1002059
:10520000FEF794F84FF48030CDE900500225029467
:10521000CDE907504FF4E01009906846FBF750FEC7
:1052200020B14C220CA10020FEF780F80F20CDE920
:105230000A054FF48060CDE90C4002210AA80E94C3
:10524000FBF716FD002804D0572203A10020FEF72B
:105250006DF80FB030BD00002866696C652900004C
:1052600070B500250024FFF749F806464A4800219A
:105270000160017121214948FBF73EF9212148488D
:10528000FBF73AF909214748FBF758F94248002152
:105290000160017100BF00BF0AE0434A52F82510C7
:1052A0003E4A101900F010FF2044C4B2681CC5B279
:1052B000042DF2DB00222046611CCCB237490A548F
:1052C000002400250AE0394A52F82510344A101902
:1052D00000F0FAFE2044C4B2681CC5B2042DF2DB13
:1052E00000222046611CCCB22D490A5400242D49CD
:1052F00008192F49096800F0E7FE2044C4B220468F
:10530000611CCCB2274900220A54FEF7E9FF22496A
:1053100000680860002008710024300BFFF7E6F8F1
:10532000014624482246641C8154C6F30320FFF73B
:10533000DDF801461F482246641C8154C6F3031061
:10534000FFF7D4F801461B482246641C815406F03E
:105350000F00FFF7CBF8014616482246641C815423
:1053600000222146641C4254002413483022214666
:10537000641C425432222146641C42543522214688
:10538000641C425434222146641C425400222146AB
:10539000641C425470BD0000E4010020AE030020F4
:1053A000CF030020F0030020500300206003002002
:1053B000D0010020E9010020EE0100202DE9F0419C
:1053C000374C0746A0694169384688470646A069B8
:1053D000816938468847054636B12DB14FF480685B
:1053E00046450AD8012009E040F235122DA10020DF
:1053F000FDF79CFF0220BDE8F08100204FF49D7274
:1054000028A1FDF793FFB8FBF6F106FB118050B120
:105410005FF0000040F23B1222A1FDF787FFB5428A
:1054200003D3012002E00120F4E700204FF49E7234
:105430001CA1FDF77BFFB5FBF6F006FB1050C8B1D1
:105440005FF0000040F23D1216A1FDF76FFFB7FBC1
:10545000F5F005FB1070381AC4E903056060454596
:1054600000D34546A560A169096A29B188470500AE
:105470000AD101E00120E5E7207850B1A069C168B8
:10548000E0688847050004D0A06940688047284646
:10549000B1E7FF220548A168FBF726F80020AAE73C
:1054A000440200202866696C6529000094050020EC
:1054B00070B50025002400261148FAF7E6FEC6B2B2
:1054C000022000EB4600C2B20E482146641C425442
:1054D00003222146641C425400BF0EE00848611CB0
:1054E000425D2046CCB207490A5400222046611C86
:1054F000CCB204490A54681CC5B2B542EEDB70BD9B
:1055000070030020F903002010B531210948FBF792
:1055100015F809490748FAF722FF08490548FAF73C
:105520001EFF07490348FAF71AFF06490148FAF730
:1055300016FF10BD70030020E4010020E9010020E7
:10554000AE030020F003002010B5EFF3108111F03E
:10555000010F72B6084C094BDA6844F822004FF08C
:10556000070002F10102B2FBF0F400FB1420D86046
:1055700000D162B610BD0000EC200020C402002063
:1055800010B5094C207840B100F05EF86068C16841
:10559000064888470021217010BDC02204A10020C8
:1055A000FDF7C4FE022010BD0402002060040020AC
:1055B0002866696C6529000070B5134C0546207893
:1055C00008B1852202E0022D06D38B220FA1002014
:1055D000FDF7ACFE022070BDFFF7D8F9A0604FF4D4
:1055E00082710C48FAF7AAFF0120207006480C309F
:1055F00000EB051060604168064888470028EAD043
:105600000321217070BD0000040200202866696C2F
:1056100065290000600400202DE9F041094D0E4687
:105620000746002405EB04103146026838469047CF
:1056300010B12046BDE8F081641CE4B2022CF1D325
:105640000320F7E71002002010B5FFF79FF9064985
:105650008968884201D1012000E00020BDE81040A7
:10566000622202A1FDF762BE040200202866696C76
:105670006529000010B500F1080103220C4607A0BF
:10568000FAF722FE002806D00322214604A0FAF7EA
:105690001BFE08B1032010BD012010BD42494E0081
:1056A0004845580070B5154C06460D46207801282F
:1056B00006D0A42212A10020FDF738FE022070BD02
:1056C000FFF7C2FF60682A46314683680E48984754
:1056D0000546132806D0142D06D02DB103202070C6
:1056E000284670BD0220FAE72078012800D000206B
:1056F000B22203A1FDF71AFEF2E700000402002027
:105700002866696C652900006004002010B5FFF769
:105710003DF907494968884201D1012000E0002095
:10572000BDE810404FF4B47202A1FDF7FFBD0000C8
:10573000840200202866696C652900000248002167
:10574000C068FFF714B90000840200200148C06857
:10575000FFF711B98402002072B603494A68024378
:105760004A6062B670470000DC02002005494A68C2
:105770001042FCD0486872B64A6882434A6062B6FA
:1057800070470000DC0200200149086170470000FA
:10579000DC02002009490020086048608860C86079
:1057A000086148614FF0E021054A4A61054BF0224B
:1057B00083F8142D8861072008617047DC020020FF
:1057C0007EFC0A000FE000E00149C860704700005D
:1057D000DC0200200149486170470000DC02002023
:1057E00003484169002901D00020084770470000A4
:1057F000DC0200200249886088680028FCD17047DC
:10580000DC02002002480078012800D00020704708
:105810006002002010B50B4C0221A068FFF7ADF824
:1058200060680321B0FBF1F201FB1201401C6060D3
:10583000002905D1A068BDE810400121FFF79DB8FF
:1058400010BD0000F40100202DE9F0411E4C15466A
:105850000E4694F8230038B1BDE8F04140F2BF2273
:105860001A490020FDF762BDE80520D05FF0000076
:1058700040F2C3221549FDF759FD94F821004FF479
:1058800031721249FDF752FD29463046FFF70AFFF3
:105890000027012613280CD0142811D084F8247076
:1058A000616929446161BDE8F04100F087B80120D9
:1058B000DEE7FFF765FE84F8217084F8236000E0DE
:1058C000002084F82460EBE7E00F00203457000844
:1058D00070B51B4C06460D4694F8210088B1002097
:1058E0004FF421721749FDF721FD681C00D00120FB
:1058F00040F285221349FDF719FD6068401C02D073
:1059000002E00120ECE7656094F82700032801D14C
:1059100084F827606068A84203D194F82700B04259
:1059200001D0032008E03046FFF746FE20B944F8D6
:105930000C5F01216175A175BDE8704000F03EB8B3
:10594000E00F00203457000830B4194C94F8205070
:10595000032D02D025683DB107E030BC4FF40D7235
:1059600014A10020FDF7E2BC2060A068401C00D11B
:10597000A16094F82700032801D184F82730A0699A
:10598000904205D9E069904202D90AB103200CE0A7
:10599000481C02D0A0688842F8D1032B03D094F8A9
:1059A00027009842F2D10020A26130BC00F006B876
:1059B000E00F00202866696C652900002DE9F0479A
:1059C0000546132803D0142D01D0012000E000204B
:1059D0004FF4397243A1FDF7A9FC444C94F8200020
:1059E00003280CD0216891B1D4E9060282420ED37B
:1059F00068B1D4E90102904209D1012008E0BDE874
:105A0000F0474FF43A7237A10020FDF78FBC002019
:105A100084F8250094F8269019B994F827100329E2
:105A200001D0012100E00021884620B194F8241023
:105A300009B1012700E0002794F8231011B108B143
:105A4000012000E00020824620690026401C10D082
:105A50006068401C00D0012040F2063221A1FDF711
:105A600065FC61682069401A61694002814200D981
:105A7000012603201DB100BF84F820001DE0B9F10C
:105A8000000F09D00EB10625F6E7B8F1000FF3D0EC
:105A9000002FF1D10425EFE7BAF1000FECD10FB1DF
:105AA000022003E0B8F1000F03D0012084F82000A9
:105AB00012E094F8200003280BD194F8210030B1B3
:105AC000FFF75EFD002184F8211005B9054608485E
:105AD0000570B9F1000F03D1BDE8F04700F04CBDEF
