:020000040800F2
:10000000386400206D02000875020008111700080E
:10001000790200087B0200087D0200080000000051
:10002000939D939B08999697FE0000007F0200081D
:10003000810200085C6F000883020008A118000814
:10004000870200088702000887020008870200086C
:10005000870200088702000887020008870200085C
:10006000870200088702000887020008870200084C
:10007000870200088702000887020008870200083C
:10008000870200088702000887020008870200082C
:10009000870200088702000887020008870200081C
:1000A000870200088702000887020008870200080C
:1000B00087020008870200088702000887020008FC
:1000C00087020008870200088702000887020008EC
:1000D0008702000887020008F91B00088702000851
:1000E00087020008870200088702000887020008CC
:1000F00087020008870200088702000887020008BC
:1001000087020008870200088702000887020008AB
:10011000870200088702000887020008870200089B
:10012000870200088702000887020008870200088B
:10013000870200088702000887020008870200087B
:10014000870200088702000887020008870200086B
:10015000870200088702000887020008870200085B
:100160008702000887020008F1170008C517000879
:10017000870200081D180008870200080000000020
:10018000870200088702000800F002F800F05CF81F
:100190000AA090E8000C82448344AAF10107DA45E2
:1001A00001D100F051F8AFF2090EBAE80F0013F0D8
:1001B000010F18BFFB1A43F001031847A87D000088
:1001C000C87D00000A444FF0000C10F8013B13F00A
:1001D000070408BF10F8014B1D1108BF10F8015BA0
:1001E000641E05D010F8016B641E01F8016BF9D193
:1001F00013F0080F1EBF10F8014BAD1C0C1B09D1EA
:100200006D1E58BF01F801CBFAD505E014F8016B5B
:1002100001F8016B6D1EF9D59142D6D370470000ED
:100220000023002400250026103A28BF78C1FBD8FF
:10023000520728BF30C148BF0B6070471FB506F09A
:1002400084FE1FBD10B510BD00F093FA1146FFF7F4
:10025000F5FF04F03DFC00F0B1FA03B4FFF7F2FF44
:1002600003BC00F0B9FA00008546084709488047FA
:1002700009480047FEE7FEE7FEE7FEE7FEE7FEE788
:10028000FEE7FEE7FEE7FEE704480549054A064BA0
:10029000704700005119000889010008385E0020ED
:1002A00038640020386000203860002053EA020CD7
:1002B00000F069802DE9F04B4FF00006002B1FBFC6
:1002C000B3FA83F503FA05F424FA05F65E4012BF8B
:1002D0001643B2FA82F502FA05F4C5F120051EBFF5
:1002E00022FA05FC44EA0C04203556EA044C4FEA95
:1002F000144418BF641C4FF000084FF000099042EE
:1003000071EB030C39D3002919BFB1FA81F701FA57
:1003100007F6B0FA80F700FA07F6C7F120071EBF0C
:1003200020FA07FC46EA0C062037B6FBF4FCA7EBE4
:100330000507103F07F01F0BCBF120060CFA0BFB53
:100340002CFA06F644BFB3460026202FA4BF5E4613
:100350004FF0000B5BEA060C08BF4FF0010B19EBE6
:100360000B09ABFB027C48EB0608C01B06FB02CC6A
:100370000BFB03CC71EB0C01C1E70B460246414677
:100380004846BDE8F08B13B54FF000004FF0000178
:10039000AFF30080BDE81C40704740EA010310B590
:1003A0009B070FD1042A0DD310C808C9121F9C4205
:1003B000F8D020BA19BA884201D9012010BD4FF0F7
:1003C000FF3010BD1AB1D30703D0521C07E0002044
:1003D00010BD10F8013B11F8014B1B1B07D110F8A1
:1003E000013B11F8014B1B1B01D1921EF1D11846A4
:1003F00010BD10B5431C02E010F8011B71B181075C
:10040000FAD14FF0013202C88C1A8C4314EAC2119F
:10041000F9D0C01A0A0603D0C01E10BDC01A10BD04
:100420000A0401D0801E10BD0902FCD0401E10BD80
:1004300040EA010370B59B072ED14FF00136042A24
:100440002AD308C810C99D1B9D43121F15EAC61563
:1004500017D0D8B2E1B2401A50EA056110D198B273
:10046000A1B2401A50EA05410AD123F07F4024F09E
:100470007F41401A50EA052102D1180EA0EB14600A
:1004800070BDA342DBD018BA21BA884201D901203D
:1004900070BD4FF0FF3070BD0AB9002070BD10F87C
:1004A000013B11F8014B63B1A3420AD1521E08D09F
:1004B00010F8013B11F8014B1BB1A34201D1521EB0
:1004C000EDD1181B70BD421E12F8013F002BFBD16D
:1004D00011F8013B002B02F8013BF9D17047032AC8
:1004E00040F2308010F0030C00F0158011F8013B51
:1004F000BCF1020F624498BF11F801CB00F8013B38
:1005000038BF11F8013BA2F1040298BF00F801CBFB
:1005100038BF00F8013B11F0030300F06780083A90
:10052000C0F0088051F8043B083A51F804CBA0E829
:100530000810F5E7121D5CBF51F8043B40F8043B7E
:10054000AFF30080D20724BF11F8013B11F801CBB3
:1005500048BF11F8012B24BF00F8013B00F801CB84
:1005600048BF00F8012B7047431A28BF9A427FF614
:10057000B6AF032A1044114440F2268010F0030F56
:100580001EBF11F8013D521E00F8013D10F0030F8F
:100590007FF4F6AF11F0030300F0C180083AC0F019
:1005A0000B8051F8043D083A51F804CD40F8043D61
:1005B00040F804CDFFF7F3BF121D5CBF51F8043DB6
:1005C00040F8043DAFF30080D20724BF11F8013D8D
:1005D00011F801CD48BF11F8012C24BF00F8013DEE
:1005E00000F801CD48BF00F8012C704710B5203A43
:1005F000C0F00B80B1E81850203AA0E81850B1E8DC
:100600001850A0E81850BFF4F5AF5FEA027C24BF91
:10061000B1E81850A0E8185044BF18C918C0BDE888
:1006200010405FEA827C24BF51F8043B40F8043B51
:1006300008BF7047D20728BF31F8023B48BF11F806
:10064000012B28BF20F8023B48BF00F8012B704760
:1006500002F0FF0343EA032242EA024200F002B83A
:100660004FF000020429C0F0128010F0030C00F0DB
:100670001B80CCF1040CBCF1020F18BF00F8012B59
:10068000A8BF20F8022BA1EB0C0100F00DB85FEA27
:10069000C17C24BF00F8012B00F8012B48BF00F8F3
:1006A000012B70474FF0000200B513469446964662
:1006B000203922BFA0E80C50A0E80C50B1F1200175
:1006C000BFF4F7AF090728BFA0E80C5048BF0CC023
:1006D0005DF804EB890028BF40F8042B08BF704781
:1006E00048BF20F8022B11F0804F18BF00F8012BF3
:1006F0007047704770477047431A28BF9A427FF689
:1007000075AF104410F0030F11441EBF11F8013DE6
:10071000521E00F8013D10F0030F7FF4F6AF103ABF
:10072000C0F00A8010B531E91850103A20E918508D
:10073000BFF4F9AFBDE81040530724BF31E90810FA
:1007400020E9081044BF51F8043D40F8043D12F080
:10075000030F08BF7047D20728BF31F8023D48BFDA
:1007600011F8012C28BF20F8023D48BF00F8012CE9
:100770007047754600F02CF8AE46050069465346B2
:1007800020F00700854618B020B5FFF77DFDBDE8D5
:1007900020404FF000064FF000074FF000084FF0E8
:1007A000000B21F00701AC46ACE8C009ACE8C00979
:1007B000ACE8C009ACE8C0098D46704710B50446E6
:1007C000AFF300802046BDE81040FFF746BD0000B3
:1007D00000487047D45D002001491820ABBEFEE7F9
:1007E000260002007047000010B586B0002400F01B
:1007F00019FA14216846FFF755FF002000900948B8
:100800000069C06800F01CF902900120039005A95E
:10081000684600F073F900B1012400F0BBF906B09E
:10082000204610BD5C6F0008002229B101291AD0B2
:1008300002291BD04FF440720E490B6823F4407319
:100840000B600B6813430B600A6822F0F8020A6021
:100850000A68022303EBC00002430A60086840F400
:100860008030086070474FF48072E5E74FF4007203
:10087000E2E70000103C02401348016889050FD5EB
:10088000016821F400710160016841F400610160B8
:10089000016821F400610160016841F400710160A8
:1008A000016849050FD5016821F480610160016884
:1008B00041F480510160016821F4805101600168B8
:1008C00041F4806101607047003C024008490A68B9
:1008D00022F440720A600A6842F004020A600A6860
:1008E0004FF4803343EA002002430A60704700005F
:1008F000103C0240064A136823F4407313601368E7
:100900001360136843F00103136001707047000027
:10091000103C0240094910B50C6824F440740C6086
:100920000C6844F440740C600C6844F001040C60E2
:100930000260BFF36F8F436010BD0000103C0240A7
:10094000074A136823F440731360136843F48073F9
:100950001360136843F001031360018070470000C7
:10096000103C0240074A136823F440731360136875
:1009700043F400731360136843F0010313600160D4
:1009800070470000103C024017490868C20617482B
:1009900005D5C26942F01002C26110220A600A68DD
:1009A000920605D5C26942F00802C26120220A609F
:1009B0000A68520605D5C26942F00402C2614022AB
:1009C0000A600A68120605D5C26942F00202C261D5
:1009D00080220A600A68920705D5C26942F02002A7
:1009E000C2610220086070470C3C0240F85C0020A5
:1009F00070B5114904460020C86100F00BFA0646A4
:100A00000E4D09E0601C07D024B100F003FA801BF2
:100A1000A04201D9032070BD2868C003F2D4286821
:100A2000C00701D001202860286810F0F200F2D041
:100A3000FFF7AAFF012070BDF85C00200C3C0240CB
:100A40000021A0F100634FF4804293423FD321493B
:100A50000144914201D2012139E01F4901449142F0
:100A600001D2022133E01D490144914201D2032108
:100A70002DE01B490144B1F5803F01D2042126E05D
:100A8000184942184FF400318A4201D205211EE074
:100A9000154A02448A4201D2062118E0134A024450
:100AA0008A4201D2072112E0114A02448A4201D24D
:100AB00008210CE00F4A02448A4201D2092106E0D3
:100AC0000D4A1044884201D20A2100E00B21084659
:100AD0007047000000C0FFF70080FFF70040FFF7FD
:100AE0000000FFF70000FEF70000FCF70000FAF737
:100AF0000000F8F70000F6F70000F4F72DE9F047E2
:100B0000044622480F46017E01290AD00121804671
:100B100001764CF250394846FFF76AFF020003D0D5
:100B20002FE00220BDE8F0874FF0FF3038602068EA
:100B3000174D012801D0A6681CE0207C6168FFF7F2
:100B4000C5FE4846FFF754FF0246286820F004001F
:100B5000286014E0217C3046FFF766FE4846FFF728
:100B600047FF0200286820F0FA00286001D03E60AC
:100B700005E0761CD4E902100844B042EAD8FFF739
:100B80007BFE002188F818101046CBE7F85C0020A7
:100B9000103C02400348016841F000410160002020
:100BA00070470000103C02402DE9F0471B4E0546FF
:100BB0001446307E1F468946012808D00120307631
:100BC0004CF250384046FFF713FF18B114E00220F2
:100BD000BDE8F0879DB1012D16D0022D19D0224617
:100BE0003B464846FFF796FE4046FFF701FF0C499B
:100BF0000A6822F001020A6000213176E8E7E1B2DA
:100C00004846FFF777FEEFE7A1B24846FFF798FEA8
:100C1000EAE721464846FFF7A5FEE5E7F85C002035
:100C2000103C0240074900200A68002A09DA054AF8
:100C3000054B0C3A1360054B13600968002900DA74
:100C400001207047103C024023016745AB89EFCD7E
:100C50002DE9F84F00224FF0010803254FF00F0E49
:100C60000B6808FA02F42340A3426ED14E68012EAD
:100C700005D0022E03D0112E01D0122E12D186687B
:100C80004FEA420C05FA0CF7BE43CF6807FA0CF79F
:100C9000374387604668A6430C79C4F30014944038
:100CA00034434460C668570005FA07FC8C6826EA9E
:100CB0000C06BC403443C4604C68022C01D0122C9A
:100CC00013D1D40800EB8404A346D4F82090540731
:100CD0004FEAD46A0EFA0AF629EA06090E6906FAFC
:100CE0000AF646EA0906CBF8206006680C7926EA7F
:100CF0000C0604F00304BC40344304604C68E40078
:100D000065D5364C266846F480462660246822F075
:100D1000030604F480440094314C3444A446D4F8CF
:100D200008489607370F0EFA07F6B4432D4EB04227
:100D300001D1002624E02C4EB04201D101261FE053
:100D40002A4EB04202D102261AE040E0284EB042BC
:100D500001D1032614E0274EB04201D104260FE052
:100D6000254EB04201D105260AE0244EB04201D101
:100D7000062605E0224EB04201D1072600E00826F3
:100D8000BE402643CCF808681E4E34684F689C432A
:100D9000FF0300D51C4334601A4C241D26684F689D
:100DA0009E43BF0300D51E432660164E08363468A6
:100DB0004F689C43FF0200D51C433460114E0C3633
:100DC00034684F689C43BF0200D51C433460521CFA
:100DD000102AFFF445AFBDE8F88F00004438024008
:100DE00000300140000002400004024000080240C0
:100DF000000C0240001002400014024000180240A3
:100E0000001C0240003C01400AB1816170470904A6
:100E1000FBE70000EFF3108010F0010F72B60748F7
:100E20000068406A064A1368C3EB9000C0F30D00E7
:100E30001844106000D162B670470000505700207F
:100E4000B40200200B4810B5016841F40071016044
:100E5000016841F480610160016841F480710160C2
:100E6000032000F09BF80F2000F006F800F056F881
:100E7000002010BD003C024010B588B006A901A8B2
:100E800000F038F90498B0F5805F08D0B0F5A05FA5
:100E900035D0B0F5C05F34D0B0F5E05F33D001207D
:100EA0001A494FF0804200240968B1FBF0F04FF47A
:100EB0007A61B0FBF1F11648491E02604FF6FF72ED
:100EC000C0E90324C0E9011444611248016841F0FB
:100ED00001010160006800F0010000900C4800F082
:100EE00009FB002809D10C480460094800F01EFBEA
:100EF000002802D1064800F036FB08B010BD0220E1
:100F0000CEE70420CCE70820CAE70000D00200208A
:100F10005057002040380240B4020020704700289B
:100F20000DDB00F01F02012191404009800000F11B
:100F3000E020C0F88011BFF34F8FBFF36F8F704771
:100F4000002809DB00F01F020121914040098000C8
:100F500000F1E020C0F8001170470000F0B40E4B23
:100F60001B680C46C3F30223C3F10705042D00D907
:100F70000425191D072901D2002300E0DB1E0126EC
:100F800006FA05F1491E214099409E40761E164002
:100F90003143F0BC02F066BB0CED00E0064900F006
:100FA000070208684FF6FF03184040EA0220034A90
:100FB00010430860704700000CED00E00000FA05E7
:100FC0002DE9F0470E46050065D0DFF81481D8F80A
:100FD0000000F7B200F00F00B04207D288F80070AE
:100FE000D8F8000000F00F00B04254D128683D4C02
:100FF000810712D5400703D5206840F4E0502060F7
:101000002878000703D5206840F4604020602068FD
:10101000A96820F0F000084320602878C0072DD090
:10102000304968680839012812D0022813D00328F3
:1010300011D00968890700292DDA216821F0030100
:1010400001432160FFF7E6FE814641F2883A0EE057
:1010500009688903EFE709688901ECE7FFF7DAFE21
:10106000A0EB0901514502D90320BDE8F0872068B3
:10107000696800F00C00B0EB810FEFD1D8F80010D8
:10108000404601F00F01B14207D90770006800F037
:101090000F00B04201D00120E7E72878400705D5CE
:1010A0002068E96820F4E0500843206028780007B1
:1010B00006D52068296920F4604040EAC10020601C
:1010C00000F038F82168084AC1F30311515CC840A8
:1010D0000649086006480068FFF7CEFE0020C4E716
:1010E000003C024008380240C0750008D0020020D1
:1010F000C80200200F2202600C4A136803F00303A9
:101100004360136803F0F0038360136803F4E05353
:10111000C36012684FF4E05303EAD202026104484C
:10112000006800F00F0008607047000008380240B7
:10113000003C0240154810B5006810F00C0214483D
:1011400013D01449042A0FD0082A0ED10F4C241FA3
:101150002268236802F03F025B0207D52068C0F3D3
:101160008810A0FB010106E0084610BD2168C1F30C
:101170008811A1FB00010023FFF798F82168C1F353
:101180000141491C4900B0FBF1F010BD0838024094
:101190000024F40040787D012DE9F84F040076D05A
:1011A0002078DFF838A3CE4DC00749D0DAF8001018
:1011B0005046C1F38101012908D00068C0F38100C5
:1011C00002280AD1281D0068400206D5286880033D
:1011D00036D560680028E2D032E06068B0F5803F24
:1011E00010D0B0F5A02F286810D020F480302860EF
:1011F000286820F4802028606068A0B1FFF70AFE0C
:1012000006460CE0286840F48030F4E740F4802083
:101210002860F7E7FFF7FEFD801B642873D8286875
:101220008003F7D50CE0FFF7F5FD064605E000BFAB
:10123000FFF7F0FD801B6428F0D828688003F7D4FE
:101240002078DFF8A08280074FF000093ED5DAF859
:101250000010504611F00C0F09D00068C0F3810057
:1012600002280BD19D48001F0068400206D4286860
:10127000800715D5E068012809D111E0E068B8B110
:101280000120C8F80000FFF7C5FD064605E020E193
:10129000FFF7C0FD801B0228C0D828688007F7D55B
:1012A0002868216920F0F80040EAC10028600DE0BC
:1012B000C8F80090FFF7AEFD064604E0FFF7AAFD70
:1012C000801B02281FD828688007F7D420780007E1
:1012D00022D5824E844861696C3671B1012101606A
:1012E000FFF798FD074604E0FFF794FDC01B0228B6
:1012F00009D830688007F7D50EE0C0F80090FFF7F6
:1013000089FD074605E082E0FFF784FDC01B022847
:101310007DD830688007F7D42078400768D5DFF89B
:10132000BCB100270BF1380BDBF80000C0000BD478
:10133000DBF8001041F08051CBF80010DBF8000022
:10134000012700F080500090684E3068C00510D42E
:10135000306840F480703060FFF75CFD009005E07D
:10136000FFF758FD0099401A022850D83068C00590
:10137000F6D55A4EA068683601280FD00528306887
:1013800010D020F001003060306820F004003060A0
:10139000A068B8B1FFF73EFD00900FE0306840F064
:1013A0000100F4E740F004003060F7E7FFF732FD9A
:1013B0000099411A41F28830814266D8306880072E
:1013C000F4D50EE0FFF726FD009007E0FFF722FDC1
:1013D0000099411A41F28830814256D8306880071E
:1013E000F4D42FB1DBF8001021F08051CBF80010BD
:1013F000A069D0B3DAF800205146C2F38102022A74
:101400004AD00228484607D0C8F8600000E03CE017
:10141000FFF700FD04463BE04746C8F86000FFF7D1
:10142000F9FC064605E000BFFFF7F4FC801B02282C
:101430002BD828688001F7D4D4E907010843A16AB2
:101440002B4A490802EB0141626A41EA82110843D2
:1014500094F82C1040EA01612048001F016001202F
:101460003866FFF7D7FC044605E034E0FFF7D2FC0E
:10147000001B022809D828688001F7D52BE000BF9F
:10148000FFF7C8FC001B022802D90320BDE8F88F33
:1014900028688001F4D41EE00128F7D00868E269CA
:1014A00000F48001914214D1226A00F03F01914280
:1014B0000FD147F6C071626A0140914209D1A26A18
:1014C00000F44031914204D1E16A00F0706088423A
:1014D00001D00120DAE70020D8E7000008380240F8
:1014E0000038024000004742800E47420070004032
:1014F0000000FFFF10B50446022084F83D0020687C
:10150000016A41F21112114207D1016A921011428F
:1015100003D1016821F001010160204600F021F8AB
:10152000002084F83D0084F83C0010BD10B5040094
:1015300003D094F83D0010B107E0012010BD002059
:1015400084F83C00204600F00DF8022084F83D00AD
:10155000211D206800F01CFA012084F83D000020C5
:1015600010BD70477047022180F83D1001688A68FD
:1015700002F00702062A03D00A6842F001020A605C
:10158000012180F83D100020704770B5044690F8A6
:101590003C000D4601280DD0012684F83C60022055
:1015A00084F83D0042B1042A18D0082A2AD00C2A17
:1015B0004DD139E0022070BD206800F05BFA206850
:1015C000816941F0080181612068816921F004018D
:1015D0008161206881692A69114311E0206800F067
:1015E00079FA2068816941F400618161206881692C
:1015F00021F480618161206881692A6941EA0221C0
:10160000816124E0206800F09BFA2068C16941F004
:101610000801C1612068C16921F00401C16120682D
:10162000C1692A69114311E0206800F0BDFA206801
:10163000C16941F40061C1612068C16921F4806120
:10164000C1612068C1692A6941EA0221C16184F847
:101650003D60002084F83C0070BD10B504460220B7
:1016600084F83D002068016A41F21112114207D14D
:10167000016A9210114203D1016821F00101016059
:10168000204600F021F8002084F83D0084F83C005A
:1016900010BD10B5040003D094F83D0010B107E070
:1016A000012010BD002084F83C00204600F00DF819
:1016B000022084F83D00211D206800F069F9012016
:1016C00084F83D00002010BD7047704710B50446F7
:1016D0000068012200F0C0F90B492068884202D05E
:1016E0000A49884203D1416C41F4004141642068B9
:1016F000816801F00701062903D0016841F001016A
:101700000160002010BD0000000001400004014005
:10171000EFF308840EF00F000D2801D1EFF30984D8
:10172000A08B04F12005800500D52D1D5FEACE6059
:1017300000D44835704602F0F5F8EFF3098002F066
:10174000F1F8EFF3088002F0EDF8EFF3148002F007
:10175000E9F8284602F0E6F8606902F0E3F8A069CB
:1017600002F0E0F8E06902F0DDF81248006802F0EB
:10177000D9F81048001F006802F0D4F80D48001D89
:10178000006802F0CFF80B481030006802F0CAF889
:1017900008480830006802F0C5F806480C300068B8
:1017A00002F0C0F84A2204A1002001F06BFF00F013
:1017B000DDF8FEE72CED00E02866696C6529000085
:1017C00000207047084810B54069084908604A2061
:1017D000FFF7A5FB4B20FFF7A2FB4D20FFF79FFB78
:1017E000BDE8104001F0E4BE00000440D402002037
:1017F000084810B54069084908604A20FFF78FFB88
:101800004B20FFF78CFB4D20FFF789FBBDE8104014
:1018100001F0CEBE00000440D4020020084810B5FC
:101820004069084908604A20FFF779FB4B20FFF721
:1018300076FB4D20FFF773FBBDE8104001F0B8BE0A
:1018400000000440D40200202DE9F04117460D4667
:1018500080460026FFF7E6F9A80706D000209C2264
:101860000DA101F00FFF00240EE00120F7E700BFFB
:1018700057F8242008EB840100230220FFF794F995
:1018800008B1012603E0641CB4EB950FF0D3FFF719
:1018900081F93046BDE8F0812866696C6529000051
:1018A00010B50B4CE16849B1206938B12268B2FB30
:1018B000F0F300FB132008B9002088472068401C83
:1018C0002060A068002802D0A068401EA06010BD63
:1018D000E002002070B5194C2068194A10F00C0184
:1018E000184804D0184D042903D0082903D00260F9
:1018F0001BE0056019E01149091F0B68C3F380560E
:101900000B6803F03F0316B1B5FBF3F201E0B2FB45
:10191000F3F20B680968C3F388135A43C1F301411A
:10192000491C4900B2FBF1F101602168074AC1F38B
:101930000311515C0268CA40026070BD0838024061
:101940000024F400D002002040787D01C07500081A
:101950000548016841F47001016003494FF00060DF
:10196000803908607047000088ED00E0BFF34F8FBA
:1019700005480168054A01F4E06111430160BFF3C5
:101980004F8F00BFFDE700000CED00E00400FA05FA
:10199000F0B50268254C264D264E274F274B4FF0B9
:1019A000804CA04209D0604507D0A84205D0B04283
:1019B00003D0B84201D0984204D122F0700E4A6898
:1019C00042EA0E02A0421BD0604519D0A84217D0AF
:1019D000B04215D0B84213D0984211D0184DA84249
:1019E0000ED0184DA8420BD0174DA84208D0174D65
:1019F000A84205D0164DA84202D0164DA84203D1E8
:101A000022F44075CA682A434D6922F080022A43B5
:101A100002608A68C2620A688262A04201D098426B
:101A200001D10969016301214161F0BD000001405C
:101A30000004004000080040000C00400004014089
:101A400000400140004401400048014000180040AF
:101A5000001C00400020004010B501F01F030121D0
:101A6000046A99408C430462016A9A4011430162FE
:101A700010BD0000F0B5026A22F001020262036AA2
:101A800042688469124E24F073050C682C4323F0DD
:101A900002058B682B430D4DA84201D0B04205D101
:101AA00023F00807CB683B4323F00403A84201D08E
:101AB000B04205D14D6922F4407215438A692A4328
:101AC00042608461496841630362F0BD00000140E7
:101AD00000040140F0B5026A22F010020262026ABC
:101AE000436884690D6824F4E64444EA05248D685B
:101AF00022F0200242EA05120F4D104EA84201D0FA
:101B0000B04206D1CF6822F0800242EA071222F0EA
:101B10004002A84201D0B04207D14D6923F440638E
:101B200043EA85038D6943EA85034360846149681C
:101B300081630262F0BD000000000140000401402A
:101B4000F0B5026A22F480720262026A4368C469D4
:101B500022F4007224F073050C68124E2C438D6839
:101B600042EA05220E4DA84201D0B04206D1CF680C
:101B700022F4006242EA072222F48062A84201D0E5
:101B8000B04207D14D6923F4405343EA05138D69F0
:101B900043EA05134360C4614968C1630262F0BD52
:101BA000000001400004014030B5026A22F4805276
:101BB0000262046A4268C3690D6823F4E64343EA9B
:101BC00005238D6824F4005444EA0534084DA842E6
:101BD00002D0084DA84204D14D6922F4804242EA65
:101BE00085124260C36149680164046230BD00002F
:101BF000000001400004014070B515480468154D0F
:101C0000A00612D52868C6B2134801F09BFD132820
:101C100004D93146104801F0E9FD06E005D14FF046
:101C200013020EA10C4801F011FE200607D5104842
:101C300001F099FD20B10E4801F0A8FD286070BDAB
:101C40000448083001680B4A1140016070BD000073
:101C50000044004004440040A05900203C4441504E
:101C60004C696E6B3A4F766572666C6F773E0A0010
:101C7000905700207FFFFFEF00F00F00202141EA86
:101C800080110348016101698906FCD47047000096
:101C9000000004400A494FEA0073020601EBD351E9
:101CA00006D5D1F8002922F40012C1F8002905E078
:101CB000D1F8002B22F40012C1F8002B01F02ABC4D
:101CC00000000440F0B58278C578848802F00F03E4
:101CD00015F0030506D0012D06D0022D06D0032DE8
:101CE00007D105E0002104E0012102E0022100E02B
:101CF000032117068078194A4FF0010500F00F0004
:101D000005FA00F5164E10680DD5ADB228431060E7
:101D1000C4F30A0040EA814006EB431140EA8350D5
:101D2000C1F80009F0BD40EA05401060C4F30A00A4
:101D300040EA814106EB4310C0F8001BD0F8001BBD
:101D4000C1F30A0141F00051C0F8101BD0F8001B8C
:101D500041F00441C0F8001BF0BD00001C08044025
:101D6000000004407047000002494FF404108863EB
:101D7000704700000000044010B50B4C0B49A088D0
:101D80000A78904200D802461AB90749002014394F
:101D900008718020216801F025FC21680144216040
:101DA000A188081AA08010BD44030020EB7400082D
:101DB00010B5064C0020A288216801F09FF8216828
:101DC00001442160A188081AA08010BD44030020AE
:101DD0007047000002060A494FEA007001EBD0503C
:101DE00006D5D0F8001921F40041C0F80019704759
:101DF000D0F8001B21F40041C0F8001B7047000020
:101E00000000044002060A494FEA007001EBD0507E
:101E100006D5D0F8001941F40041C0F80019704708
:101E2000D0F8001B41F40041C0F8001B70470000CF
:101E3000000004402DE9F0476F4C074680074FF043
:101E40000009A4F10805A4F11C0623D501F0A8FBA4
:101E50002078C009FFF7BCFFE088A8802078C0F395
:101E6000411121B101295CD0022971D167E061786B
:101E7000DFF888810C296BD2DFE801F0060D6A15C6
:101E80006A1A296A2D333A4801F016F921E000BF99
:101E9000FFF772FF68E0002006E000BF01F090FB52
:101EA000D8F8000039E0012001F044F9C0B3F5E7AB
:101EB00010F01F0F4CD1A078012140F0800030704D
:101EC00000F07F0001F042FB01F07AFB4CE001F0F2
:101ED0003BF828B3DCE710F01F0F39D146481B3818
:101EE00012E001F077F9D8B101F06AFB444813E041
:101EF00000F01F0001282BD1707888B12079B178CB
:101F0000884225D23F4908442860C1E701F02CFAF5
:101F100030B101F055FB3C48006828B3804723E00E
:101F200016E010F01F0013D0012811D100F074F852
:101F3000D0B900F073F8B8B900F06CF807E010F011
:101F40001F0F05D100F098F870B900F097F858B954
:101F50002078000603D4E08808B1002000E080204B
:101F600001F006FBA5F80490780721D5207800063B
:101F70001CD4A888E0B1FFF71BFFA888C0B920785F
:101F8000C0F3411161B101290AD110F01F0007D03F
:101F9000012805D100F03CF850B900F037F838B905
:101FA000802001F0E5FAA5F8049001E001F00EFBB5
:101FB000380712D52078000606D5A888317908435D
:101FC0000BD0FFF7D9FE08E03078010605D500F008
:101FD0007F003070002101F0B9FA780602D50020A8
:101FE000FFF758FE380604D5BDE8F0478020FFF71C
:101FF00051BEBDE8F08700004C0300204C7500087E
:1020000044750008C202002048750008002070478F
:1020100000207047002070470020704710B512481C
:10202000124A0179127891421CD1014642784888BF
:10203000C988FE2A09D0FF2A14D198B991B900F0B5
:10204000AFFE78B101F0BCFA0AE058B9012909D114
:1020500000F0D0FB30B1074905480860FFF78CFE5F
:10206000012010BD002010BD4C030020C102002043
:10207000785C002044030020002070470020704757
:102080002DE9F047694D6A4C2878000707D5694863
:10209000006800B18047606940F00800606128680E
:1020A000410503D5616941F480616161002807DA67
:1020B0006148006800B18047606940F0004060619D
:1020C000288800050AD55D4E306818B18047306811
:1020D00000B18047606940F4006060612878584E24
:1020E000C00622D5206A6860C0F3434200F00F01A9
:1020F000022A02D0062A0ED017E047F6F0721042EC
:1021000013D0A26922F01002A261A86056F8211033
:1021100059B1042008E0A26922F01002A261A8606F
:1021200056F8211009B1022088472888C00407D535
:1021300001F0B2F904F02EF94248006800B180477E
:102140002F68B8040BD5606940F4005060613E49C7
:10215000402008603D48016841F0004101603C4B6F
:10216000380303F1040C4FF0010932D5196800223D
:10217000DCF800004FF0005A0840010C27E0C807C7
:1021800023D004EB4210D0F8088B314D2D1F2D6861
:1021900005EA08055FEA05780BD54FF00808C0F896
:1021A000088BC0F810ABD0F8008B48F00448C0F89A
:1021B000008BED0709D0C0F8089BC0F810ABD0F831
:1021C000005B45F00445C0F8005B4908521C00293B
:1021D000D5D178031FD518680027DCF80050DFF848
:1021E00070800540A8F1080813E0E8070FD004EB61
:1021F0004710D0F80829D8F800101140C90706D0B8
:10220000C0F8089956F8271009B1082088476D08CA
:102210007F1C002DE9D14A20FEF792FE4B20FEF7ED
:102220008FFEBDE8F0474D20FEF78ABED4020020A5
:102230000000044000750008FC740008F8740008F1
:1022400004750008F474000810090440000B0440F1
:10225000180804402648016841F002010160254940
:102260000A6822F070420A600A6842F020420A605E
:10227000091D0A6822F440420A60091D0A6842F0FA
:1022800070420A60091D0A6822F070420A6019490A
:1022900024310A6822F07F420A600A6842F04C4208
:1022A0000A60016841F00051016013480F2181600C
:1022B0001249C160124A032111608169114A1268F2
:1022C000002A01D04FF0080241EA020102D04FF487
:1022D000806201E04FF000020B4B42EA030241EA48
:1022E000020181614FF0FF31416100F00FB8000041
:1022F0003038024000040240000004404018004012
:10230000000804400075000810380C8010B5002249
:1023100011464A20FEF722FE4A20FEF711FE002257
:1023200011464B20FEF71AFE4B20FEF709FE002255
:1023300011464D20FEF712FEBDE810404D20FEF77D
:10234000FFBD000070B500F0F5F800281CD00F4864
:1023500002220F4D027042700E4C03202A63287037
:10236000A068022803D9A4F11F008260A2600A4875
:102370000649007840F0800001F034F9A068296B2C
:10238000401AA0600120207370BD0000B85C0020DE
:10239000F8020020C55D0020EC740008114810B55B
:1023A0000178022908D0032910D0042912D0052968
:1023B00001D10021017010BD0B48C07B282801D03D
:1023C000A828F8D1BDE8104000F058BABDE8104088
:1023D00000F01CBD0548007840F0800000F02EFDA4
:1023E000F4E70000F8020020A65D0020EC7400086D
:1023F0001F4910B50A78B2B3012A0ED01D48052A2C
:1024000000781BD0072A29D000F018FD1A490220B5
:102410000873BDE8104000F0F9BC17481F38C07BB6
:102420002A2803D02F2805D0AA2820D1BDE81040A3
:1024300000F0F8BABDE8104000F08ABA01218140EE
:102440000E480068014201D0012000E00020BDE8F4
:10245000104040F23F420AA101F014B90020087078
:10246000086B1F2803D1BDE8104000F0C7B810BDAD
:10247000F8020020ED740008C55D00203C03002038
:102480002866696C65290000104810B54168C16074
:1024900009B1012010BD0E4901F11F048A687AB10B
:1024A000097B090604D50B48007840F0800005E060
:1024B000A168006B814203D00748007800F0BEFCA1
:1024C0000120207300F0A2FC002010BDF8020020C3
:1024D000A65D0020EC740008ED7400081048007937
:1024E00000F08F02100605D502F00F004FF4803186
:1024F000814001E0012191400A48007840F08000CD
:1025000090420CD1084A12680A4208D00749084A8A
:102510000968914203D10D22044901F063B8704764
:102520004C030020EC7400083C030020C55D002033
:102530005553425370B50A48022400F11F058168C3
:1025400031B1007B000608D40648007800F076FC24
:102550002C7300F05BFC002070BD012070BD0000FA
:10256000A65D0020ED74000810B50E480E4C806882
:10257000216B884202D82063032000E004202070F1
:102580000A480B49226B007840F0800001F02AF8DD
:102590000448226B1F308168891A81600021017311
:1025A00010BD0000A65D0020F8020020EC740008B9
:1025B000B85C0020064810B5028807480549007835
:1025C00000F09CFC05490863BDE81040FFF710BF10
:1025D000F2740008B85C0020ED740008F8020020D6
:1025E00010B50446400702D50020FFF7E3FF20079F
:1025F00003D5BDE81040FFF7D1BE10BD2DE9F0476F
:10260000754E764C316B1F2902D20A46002005E038
:102610001F220020724B1B5C2354401C9042F9D3B4
:10262000714FDFF8C0A14FF0010838781F2940F042
:1026300080007CD121686D4A914278D1674D6168F4
:102640001F356960A168A960617B19B9A17B09B1D7
:10265000102902D985F80C808CE0E17B4FF002094B
:102660002A293ED022DC1A2950D00FDC0429F1D0CF
:1026700006DCE9B30329EDD1BDE8F04700F04EBB1D
:102680001229E7D1BDE8F04700F0BCB8232945D0B6
:1026900007DC1B2936D01E29DCD1BDE8F04700F04D
:1026A000DFB825293ED02829D4D149E09E2943D03E
:1026B0000FDC5529CED004DC2F2956D03529C9D1BD
:1026C00003E05A2926D09129C4D1BDE8F04700F093
:1026D000E5BBA1292AD0A32960D0A82930D0AA29F6
:1026E000B8D100F06BFA002806D0207B000600E08D
:1026F00004E04FD486F80080BDE8F087BDE8F047DD
:1027000000F0D4BBBDE8F04700F0AEBBBDE8F04739
:1027100000F02CBABDE8F04700F0FCB9BDE8F04786
:1027200000F0C6BABDE8F04700F09ABA00E038E021
:10273000BDE8F047FFF706BEBDE8F04700F040BB3C
:1027400000F03CFA0028D7D0207B000605D586F89B
:102750000090BDE8F04700F091B89AF8000000BF83
:1027600000F06CFB85F80C9004E0207C800705D419
:1027700000202873BDE8F04700F048BB00F01EFAC7
:102780000028B9D0207B000604D486F80080C6F863
:102790002080B1E7387840F08000E1E700F04EFBA0
:1027A00058E700F04BFB3878114C00F00F014FF464
:1027B0008030884021685546084320609AF8000020
:1027C00000F03CFB297808FA01F0216808432060FA
:1027D0000620307090E70000F8020020A65D00207F
:1027E000B85C0020ED740008EC74000855534243B7
:1027F00040030020024900200870012070470000BB
:10280000785C002010B5FFF795FE002820D0114815
:10281000002180220170427002228270C270202347
:10282000037141718171C1710B490A6808211478E3
:1028300014B14454521C00E04354491CC9B2242929
:10284000F5D3064924200863BDE81040FFF78CBE8D
:1028500010BD0000B85C0020BC020020F80200207F
:102860000548C07CC107044800F11F0000D00121C9
:10287000017300F0CBBA0000A65D00202DE9F04105
:102880002E4C2F4F0026A169606ADFF8B88088427D
:102890000AD33878002540F0800000F0CFFA88F89D
:1028A0000C6000F0B3FA08E028492748E56A097887
:1028B00030F81100A84200D20546FFF7E5FD00B947
:1028C0000025A06A48B375B1A16AE0692A460144AF
:1028D000387840F0800000F085FEA06A2844A062AD
:1028E000E06A401BE062D4E90410A26A41439142CD
:1028F00003D1A662616A08446062D8F808104046B5
:10290000491BC8F80810002D05D0E16A002902D142
:10291000032121700673BDE8F081002DE3D0E16A48
:1029200020690144491EB1FBF0F26069824200D97E
:102930000246E169606A03F0E5FCC5E7F8020020A1
:10294000EC740008C55D0020EE740008330300201D
:102950002DE9F0412F4C00252F4EA169606A884275
:1029600007D32E482563007800F068FA357300F02D
:102970004DFAFFF789FD20B1206B08B3A06A10B1B2
:102980000FE0256320E0E16A20690144491EB1FBA4
:10299000F0F26069824200D90246E169606A03F0A0
:1029A000B1FC00201E4BA26A216B0BE0D4F81CC0C6
:1029B00017181CF8077013F800C0674501D025628E
:1029C00002E0401C8842F1D3A16A206B0B18A3627D
:1029D000E16A0A1AE262D4E904714F439F4203D1CB
:1029E000A562636A19446162B168091AB16000287E
:1029F0000DD012B12078052809D1206A28B1002015
:102A00003073BDE8F04100F001BA0120F8E7BDE8FD
:102A1000F0810000F8020020C55D0020ED74000880
:102A2000B85C00202DE9F041344C0025344FA169F9
:102A3000606A884207D333482563007800F0FEF9C6
:102A40003D7300F0E3F9FFF71FFD00B92563A26AAB
:102A5000216B23695018984206D9BDE8F041FE2247
:102A600029A1002000F00EBE0020294EE36906E0F7
:102A700016F800C002EB000E401C03F80EC088429E
:102A8000F6D3216BA06A0844A062E26A521AE2629D
:102A900009B392B988B121690844401EB0FBF1F630
:102AA0006069864200D906463246E169606A03F0F1
:102AB00043FCA562606A30440CE0D4E9041251433F
:102AC000814208D1E169606A03F036FCA562616960
:102AD000606A08446062B968206B091AB96000280E
:102AE00009D0E06A10B12078052804D13D73BDE813
:102AF000F04100F08BB9BDE8F0810000F802002041
:102B0000C55D0020ED7400082866696C6529000029
:102B1000B85C002010B5FFF70DFD00281FD0FFF7AF
:102B2000B3FC00281BD00E48002106220170427021
:102B30000C4A8170137ADB01C3700171417181719C
:102B4000C1710949082010638A68082A03D9A1F1D4
:102B50001F0290608860BDE81040FFF705BD10BD02
:102B6000B85C0020F8020020C55D002010B5FFF71A
:102B7000E1FC00281BD0FFF787FC002817D00C4889
:102B80000321002201700B4942700B7ADB01837034
:102B9000C2700420086308498A68042A03D9A1F195
:102BA0001F0290608860BDE81040FFF7DDBC10BDDB
:102BB000B85C0020F8020020C55D002070B5244CF0
:102BC000244DD4F81100217D00BA20F0FF00084305
:102BD0000021C5E90901E17B2F290AD004DC28295D
:102BE0000BD02A2917D104E0A8290DD0AA2912D187
:102BF00006E0FFF749FC002827D0E08A40BA0AE047
:102C0000FFF742FC002820D0D4F81500217E00BA3E
:102C100020F0FF00084329690D4E4843E862A1688F
:102C200001251F3669B1814210D0207B000604D5F2
:102C30000948007840F0800001E00848007800F082
:102C4000FDF8357300F0E2F8002070BD012070BD82
:102C5000A65D0020F8020020EC740008ED74000866
:102C600010B5FFF767FC00281CD0FFF70DFC00280B
:102C700018D00D4A0D489169491E0B0E03700B0CBC
:102C800043700B0A8370C17011690B0E03710B0C3A
:102C900043710B0A8371C17108201063BDE81040B5
:102CA000FFF762BC10BD0000F8020020B85C0020F5
:102CB00010B5FFF73FFC002829D0FFF7E5FB0028FF
:102CC00025D013480021134A0170417081700821FA
:102CD000C17091690B0E03710B0C43710B0A837168
:102CE000C1710221017211690B0C43720B0A8372CC
:102CF000C17209490C2010638A680C2A03D9A1F11A
:102D00001F0290608860BDE81040FFF72DBC10BD29
:102D1000B85C0020F8020020C55D002010B5FFF768
:102D200009FC002835D01B4870211B4A0170002186
:102D30004170D468536833EA040406D006248470D2
:102D4000282404734173D36008E0DBB1134B1B7B71
:102D5000E3B105238370202303734173C1700171B4
:102D6000417181710A23C371017241728172C17212
:102D70008173C1730174417412201063BDE8104067
:102D8000FFF7F2BB022383703A23E5E781700173FA
:102D9000E3E710BDB85C0020F8020020C55D00200C
:102DA00004490020086004490860044907200870AD
:102DB0000120704740030020C55D0020F80200207C
:102DC00010B5FFF7B7FB002817D00C4820220021D0
:102DD000027041700A4CC1770320226320700948B9
:102DE0000649007840F0800000F0FCFB0648226BAA
:102DF0008168891A81600121017310BDB85C0020CF
:102E0000F8020020EC740008C55D0020084910B5E8
:102E10000648086007480D22007840F0800000F066
:102E2000E1FB05490520087010BD000055534253D1
:102E3000C55D0020EC740008F802002010B50446BF
:102E400000F096FB200605D504F00F004FF480310A
:102E5000814001E00121A140024802681143016064
:102E600010BD00003C0300200A4810B5817C00F131
:102E70001F0429B101202073BDE81040FFF7C6BF31
:102E8000C07C054900F00100486003F053FA0020BF
:102E9000F1E70000A65D0020F802002002490020B2
:102EA0000873FFF7B3BF0000C55D00200F4810B5E1
:102EB000816800F11F0469B1007B000604D50C484D
:102EC000007840F0800001E00A480078FFF7B6FF84
:102ED000012004E0FFF7D8FA002805D00020207375
:102EE000BDE81040FFF792BF10BD0000A65D0020B6
:102EF000EC740008ED7400087047000070B51046CF
:102F00000D4A9388C3F30A13834202D21089C0F397
:102F10000A10C21C93080022084C04E0256801EB4B
:102F20008206521C35609A42F8D305498A6942F0FC
:102F300010028A6170BD0000D4020020001004401D
:102F400000000440FFF7CABA2DE9FC414E48A0F149
:102F50001C050178A0F1080411F01F0102D001291D
:102F60006DD179E0494AC77849491378464A494EB4
:102F70001C3A062FD27810D006DC012F09D0022F80
:102F800014D0032F7ED141E0072F2AD00F2F79D103
:102F900056E04148206012205CE0002B72D01AB14C
:102FA0003E4820600A2055E03D48FAE70BB9012A67
:102FB00068D0022322B1009673700021827809E064
:102FC00000914B70F9E70098037813B143881844D7
:102FD0000090491C8A42F6D10098017879B32060AC
:102FE00037E063B3072322B100914B700021827850
:102FF00009E000967370F9E70098037813B14388ED
:1030000018440090491C8A42F6D1E5E72549009111
:103010008178032901D0002108E001F0A1FC0BE038
:10302000009B1A780AB11A440092491C82788A429D
:10303000F6D10098017811B1206000780AE021E013
:103040001948007800281BD01848009020600178AB
:10305000C1B14088019005E001A9684600F02AF856
:1030600000280DD0A1880198814208D9104980B26A
:10307000A0800978491E084201D101202871012051
:10308000BDE8FC810020FBE74C030020E974000848
:10309000B05B0020C0020020507500086375000876
:1030A0006275000866750008EA7400086475000817
:1030B000EB7400080020704770B51C481B4D007869
:1030C000A5F1080510F01F040AD01848A5F1140155
:1030D000174B4A780079012C06D0022C24D109E044
:1030E0001248163828601DE0F2B1897888421BD258
:1030F000002015E000F08F04200605D504F00F062F
:103100004FF48030B04001E00120A0400AB922070E
:103110000AD18A68024207D0C9680142E8D001207A
:1031200018802B60012070BD002070BD4C03002072
:10313000785C002070B5264A0146A2F11C04107884
:1031400010F01F031046408804D0012B28D0022B1A
:1031500026D110E0012823D129B100F041FAE088FE
:1031600040F0020005E0002000F03AFAE08820F08C
:103170000200E08029E0127902F08F06320605D5C0
:1031800006F00F024FF48035954001E00125B5406F
:1031900062782AB1320703D0A2682A4200D008B16F
:1031A000002070BD29B1304600F0E2F9E068284304
:1031B0000AE02069284208D13046FEF76BFD304610
:1031C000FFF7C0FEE068A843E060012070BD00008A
:1031D0004C0300202DE9F84F5D4F00200090387817
:1031E00010F01F0F71D1B8784FF000094FF0010BAC
:1031F0004FF4803AA7F11C0600287CD0554801788E
:103200003046C07809B901285FD008B1524C6EE051
:10321000524C6CE06078022805D0042846D005287E
:1032200047D0072861D16179B87881423CD170706C
:1032300020794C49B0700020494A098803E000BF5A
:1032400002F80090401C8842FAD301254FEA060894
:103250000BFA05F0D8F80810084202D02846FEF70D
:10326000B9FDD8F808100AFA05F0084203D045F075
:103270008000FEF7AFFD6D1C102DE9D34FF001105B
:10328000C8E902090120C8F81090FEF76BFDE0794B
:103290004006B8F8060002D540F0010001E020F039
:1032A0000100A8F8060020E060881FE0E0780090A8
:1032B0001BE00098C8B9A07800F08F05280606D555
:1032C00005F00F010AFA01F003E03BE013E00BFA0E
:1032D00005F0B16801432046B160FEF7F3FC2846D3
:1032E000FEF790FD284600F015F920780444207878
:1032F00000288FD122E04D4686F801900124D8465F
:103300004FEA0A09B16808FA04F0084202D02046E0
:10331000FEF760FDB16809FA04F0084203D044F0FA
:103320008000FEF757FD641C102CEBD34FF001100A
:10333000C6E9020500203561FEF714FDB878717802
:10334000884202D00020BDE8F88F0120FBE7000092
:103350004C030020E9740008C0020020B05B00208C
:10336000C2020020B80200202DE9FC5F454E002774
:103370003D463078BB4600F01F00B84601287ED19C
:10338000A6F11C014878002876D03F48BA4602785A
:103390000846C0780AB9012871D0894608B13B4C6B
:1033A00066E03B4C64E06078022805D004280AD02F
:1033B000052819D0072859D1617999F8010081426F
:1033C00054D0608853E0A7783079E5784FF0000852
:1033D000B8424BD1B078A84248D12E484FF0010AEC
:1033E00010F807B0C55541E03079B8423ED1A07819
:1033F00000F08F000190000605D5019800F00F0144
:103400004FF4803001E00199012088400090B078AD
:10341000A84217D1D9F80810009A20461143C9F8DC
:103420000810D9F80C109143C9F80C10FEF74AFCAB
:103430000198FEF7E7FC019800F06CF8009948EA63
:10344000010813E05D4511D1009918EA010F0DD173
:10345000D9F80810009A9143C9F80810D9F80C104F
:103460009143C9F80C100198FEF7B4FC207804448D
:103470002078002897D15046BDE8FC9FFFE7002048
:10348000FAE700004C030020E9740008C0020020A5
:10349000B05B0020C20200201948416941F480510C
:1034A000416100215FEA402200EB4113C3F8002B89
:1034B000491C0529F8D3134A4FF001111160114A34
:1034C0000921083A1160121F1160511541620E491D
:1034D00081620D494031C0F804110B498031C0F8B8
:1034E00008110949C031C0F80C110849C0F8101181
:1034F00006494031C0F8141105495006086070476C
:10350000000004401C08044000024000000340008A
:10351000100B044000B50246FEF7AEFB11060A4848
:103520004FEA027200EBD25006D5D0F8001941F0F4
:103530008051C0F8001900BDD0F8001B41F0805147
:10354000C0F8001B00BD00000000044000290BD0A3
:1035500006490A6822F4FE620A600A684FF4FE63B4
:1035600003EA001002430A607047000000080440AC
:1035700002060A494FEA007001EBD05006D5D0F898
:10358000001941F40011C0F800197047D0F8001B71
:1035900041F40011C0F8001B704700000000044017
:1035A000082202490020FFF7A9BC00004C030020BC
:1035B00002484FF40071806801F079BBF4010020EB
:1035C00000221146802000F00DB800000248034997
:1035D00002780020FFF792BCEB740008785C0020B2
:1035E0007047000030B500F00F041A4800EB441398
:1035F000D3F81009184D2840C3F81009D3F8100962
:1036000040F40020C3F81009D3F810096FF312003A
:10361000C3F81009D3F810091043C3F81009D3F800
:10362000000940F00440C3F800098AB1D01C8508A5
:10363000D3F81809A842FBD300202303074C2344E6
:1036400004E000BF51F820401C60401CA842F9D3A0
:10365000104630BD00000440FFFF07E000100440AA
:10366000002070470907090E002804DB00F1E02064
:1036700080F80014704700F00F0000F1E02080F89F
:10368000141D70472DE9F04116460F4600281BD146
:10369000EFF3108000F0010472B600231A461946B9
:1036A000184600F05FF9050003D13146384600F0B6
:1036B000BDF904B962B6002D06D100BFEFF3038057
:1036C000C00601D103F0E0F8BDE8F08110B5282272
:1036D0000D490E48FCF78AFF03F09AF90C4803F0F5
:1036E00091F902F0FBFF0B490B4A0C4B08604FF4B9
:1036F0000071B0FBF1F01160094901221A60086005
:1037000009490848086010BDBC700008E44B00205F
:10371000813E00082C030020080300200C03002039
:1037200010030020E44900201403002004484178DD
:103730008078814201D0012070470020704700004E
:103740008402002030B50546EFF3108000F001043C
:1037500072B6284600F007F8A968081A401E002C27
:1037600000D162B630BDEFF3108101F0010172B6F5
:10377000D0E90023934201D3981A02E080681844EC
:10378000801A002900D162B67047000070B5044667
:10379000EFF3108000F0010572B6D4E90001884211
:1037A00001D0012000E0002042220EA1FFF76AFFB5
:1037B000E16820680E5C401C2060A16888420CD340
:1037C00002D14FF0010001E04FF000004FF047023E
:1037D00004A1FFF757FF0020206005B962B630460C
:1037E00070BD00002866696C6529000070B504464C
:1037F000EFF3108000F0010572B66268E068815452
:103800006068401C6060A16888420CD302D14FF010
:10381000010001E04FF000004FF0300209A1FFF776
:1038200031FF00206060D4E90001884201D001200E
:1038300000E00020352203A1FFF724FF002D00D176
:1038400062B670BD2866696C652900002DE9F041FB
:1038500017460D460646FFF775FF874200D3074619
:10386000002404E0295D3046FFF7C0FF641CBC4221
:10387000F8D33846BDE8F08100F0ECBB00F0EABBBD
:103880000020704701207047002070472DE9F0416B
:103890008E212148FCF7E4FE204C214F8E25206824
:1038A0001D4EB84210D1A5888E2D01D22A4601E0C6
:1038B0004FF08E0201D84FF08E0518491648FCF7DC
:1038C0000EFE002086F847008E211448FCF7C8FE43
:1038D0002760A58041223546F11DE01DFCF7FFFD64
:1038E00035F8480F24F8480FA878A070E878E07001
:1038F0008200094909484C314C30FCF7F0FD95F83D
:10390000440084F8440095F8450084F84500BDE87B
:10391000F04100F0C7B80000185D0020003F012012
:10392000646C766B074991F84B20102A01D3002074
:10393000704701EB8202D06411F84B0F401CC0B2FB
:1039400008707047003F012010B5054C4121E01D73
:10395000FCF786FE002024F8480FE07010BD000040
:10396000003F01202DE9F047184C81461E461746BE
:103970008846E01DFCF73DFD451CB9F1000002D072
:103980004146FCF76DFE002007B1388006B130706B
:10399000E079002818D0454502D8E11D2A4604E008
:1039A000A5EB080001194246C91DB9F1000F02D06C
:1039B000B4F84800388017B14846FCF790FD16B1BE
:1039C00094F84A0030700120BDE8F087003F0120E4
:1039D000014890F88C007047003F0120054991F89C
:1039E0004B202AB101F14C02026091F84B00704764
:1039F00000207047003F012002488079002800D055
:103A000001207047003F012002488079002800D043
:103A100001207047185D0020034890F88D000028B1
:103A200000D0012070470000003F01202DE9F04147
:103A300088460646FCF7DDFC104D441C41273946FC
:103A4000E81DFCF70DFE412C02D83146224602E06B
:103A5000413CA1193A46E81DFCF741FDA5F8488014
:103A600000F0A0F808B1012003E000F09DF800B1DB
:103A7000022085F84A00BDE8F0810000003F0120E7
:103A8000014981F88C007047003F0120014988718D
:103A900070470000003F0120014981F88D00704708
:103AA000003F012070477047704770472DE9F04193
:103AB0000F4606464FF0FF340025DFF83C8012E049
:103AC000705D082101F0F2FC84EA006408204146A0
:103AD000002C02DA81EA440400E06400401E10F089
:103AE000FF00F5D16D1CBD42EADB2021204601F02C
:103AF000DDFCC043BDE8F081B71DC1042DE9F041F4
:103B00000E4617462021C04301F0D0FC0446002594
:103B1000DFF83C8012E0705D082101F0C7FC84EA08
:103B2000006408204146002C02DA81EA440400E0E7
:103B30006400401E10F0FF00F5D16D1CBD42EADBB1
:103B40002021204601F0B2FCC043BDE8F081000016
:103B5000B71DC10470B514460D460646B2F5806F18
:103B600007D240F2DD120AA10020FFF78BFD0220F0
:103B700070BD00F027FC08B1102070BD2A46214618
:103B8000304600F02BFD0028F7D01F2070BD00004C
:103B90002866696C65290000C10600F00F0000D49A
:103BA00009307047012070470020704710B500238E
:103BB0001A4600F071FA002800D0012010BD10B59F
:103BC00002F0B8FC012800D0002010BD2DE9F04122
:103BD000164D144C144E2878012806D040F23712A6
:103BE00013A10020FFF74EFD09E0A878022748B195
:103BF00040F23D120EA10020FFF744FD2F7002207D
:103C0000BDE8F081204600F017F810B12F70212098
:103C1000F6E704F58044B442F4D30120A8700020F4
:103C2000EEE700000000010800000208600200202A
:103C30002866696C652900002DE9F0412A4C05468B
:103C40002078012805D0FF2228A10020FFF71AFDC7
:103C500018E04FF48040B5FBF0F100FB1151022752
:103C600011B140F2071208E0E17871B1D4E9021213
:103C70001144A94209D04FF487721CA10020FFF71C
:103C800001FD27700220BDE8F0811A49B5F1006FEF
:103C900004D38D4202D227702020F4E70121E17085
:103CA000C4E90250144E1548B54201D3854201D3F0
:103CB000222010E0FFF778FF78B1304685420CD122
:103CC0004FF480623146FFF745FF0028DBD02528FE
:103CD00003D00028D7D02770D5E7284600F072FB24
:103CE0000028D8D1CFE70000600200202866696C68
:103CF0006529000000C0000800000108000002085B
:103D00004FF480407047000010B5272804D20649C0
:103D100051F82000002805D1EC2204A10020FFF773
:103D2000B1FC04A010BD0000D86F00082866696CC3
:103D300065290000000000000121272801D2024966
:103D4000095C084670470000A80100202DE9F047F3
:103D500089460446064600E0641C2078402802D0CC
:103D60000028F9D163E06078622847D012DC52283D
:103D700053D008DC422841D0442848D0482840D0BD
:103D80004D2817D118E054283ED0552817D0562872
:103D900010D13FE0722840D006DC642837D0682874
:103DA0002FD06D2806D107E074282DD0752806D0B5
:103DB00076282FD01FA004E000F0C6FD01E000F03F
:103DC000CBFD80462046FCF714FB05464046FCF739
:103DD00010FB0746E019411906EB0902891E9142C2
:103DE00024D2AA1EA11CFCF7BFFB3A46414620463E
:103DF000FCF775FB20780028AFD118E000F04EFDED
:103E0000DFE700F07DFDDCE700F0A2FDD9E700F080
:103E100073FDD6E700F0A8FDD3E7084890F82A0024
:103E200010B106482A30CCE705A0CAE72C44A01BF5
:103E3000BDE8F0874552524F520000005C6F000809
:103E400068747470733A2F2F6D6265642E6F726799
:103E50002F6465766963652F3F636F64653D4055E8
:103E60003F76657273696F6E3D40563F746172674D
:103E700065745F69643D40540000000070470000B5
:103E80002DE9F0411E4615460C46074602F06EFE2F
:103E90002C4890F8201003290FD0022C0FD004B327
:103EA000012C0AD10168A94207D190F82210A9B3C8
:103EB00000214A1E016082608161BDE8F0810068D6
:103EC000A842FAD1304602F0EFFB0446304602F039
:103ED000EDFB0646384601F051FD034622463146C9
:103EE00017E0384601F04AFD0328E6D0304602F0DC
:103EF000D9FB8007E1D4384601F040FD0746304643
:103F000002F0D2FB0446304602F0D0FB01463B46AD
:103F100022462846BDE8F04101F09ABE28220A490F
:103F20000848FCF763FB01F08DFD08488178012902
:103F300003D14178022900D18170BDE8F04101F040
:103F400089BD0000E44B0020BC7000088402002002
:103F50002DE9F0411D4C0546174694F8220088468D
:103F6000560260B93146404601F0DAFC032802D01F
:103F7000294601F031FE94F8220000280FD0606835
:103F8000A8420CD8E068A8420BD008D92069401C90
:103F900000D125612069A84200D205462561BDE80F
:103FA000F081E06932461044E061E819E06094F87D
:103FB000230020B1BDE8F041002001F083BE41465E
:103FC0002846BDE8F04101F0C3BD0000E44B0020ED
:103FD000F0B51BA185B0096804910278002104ABFB
:103FE0005C5C944229D0491C0329F9D315A1002215
:103FF000D1E90243D1E900756E46815CCDE9024307
:10400000CDE90075A1F1610CBCF1190F15D920297A
:1040100001D2052911D14FF0000C00BF16F80CE0B9
:104020008E450AD00CF1010CBCF1100FF6D3521CD6
:104030000B2AE2D3012005B0F0BD0020FBE7000011
:10404000E5002000222A2B2C2E2F3A3B3C3D3E3F00
:104050005B5C5D7C70B50D4C0020257875B100214E
:104060002170A17809B100F085FA022D05D06178A0
:10407000032902D0002800D1242070BD40F2431251
:1040800003A10020FFF7FEFA022070BD30020020DD
:104090002866696C6529000070B51C460646302903
:1040A00001D3012000E00020412212A1FFF7EAFA2B
:1040B000316A706A114D0CB900222A71104A90427F
:1040C0000AD11048814201D1022070BD0D48FC3850
:1040D00081420CD1012070BD304602F0EFF918B1D9
:1040E0001CB90120287100E00CB1032070BD002034
:1040F00070BD00002866696C652900003002002050
:10410000089996978F9E939B2DE9FF5F4FF00004CF
:10411000DDF838905FEA030893460746264613D039
:104120005FEA090010D00020C8F800000546C9F871
:104130000000FFF737FDDFF8ACA078B12A48022F66
:1041400004D0032F1CD033E06B2245E0BBF1000FFD
:1041500016D00199814213D01B242AE0FFF724FDD9
:1041600030B3012F02D0032F0ED021E04FF00060BA
:10417000BBF1000F04D00199814201D01A2418E04C
:104180000546DAF8006014E01848006980B10C3088
:1041900003E08168012909D0143001680029F8D1B1
:1041A00041680029F5D11248066802E00568FAE77F
:1041B0001C24FFF767FB08B9012F04D02CB120465F
:1041C00004B0BDE8F09F1C24F9E726B1C8F8005000
:1041D000C9F80060F3E7AD2206A10020FFF752FA0C
:1041E0000220EDE7B8700008000001085C6F0008CD
:1041F000907000082866696C65290000144910B5A4
:104200004B78012B04D0022B04D0032B1ED103E0EA
:1042100010490FE010490DE00979B9B10F4909695A
:10422000A1B10C310CE0834209D84B68834206D31C
:10423000496859B11044884208D3012010BD143197
:104240000B68002BEFD14C68002CECD1002010BD86
:104250003002002000C00008000002085C6F000867
:1042600010B50C4C207830B1BC220BA10020FFF718
:1042700009FA022010BDFF2230210948FCF7E8F9B5
:104280000120207000206070A060E0602061A070BC
:10429000E07010BD300200202866696C65290000BE
:1042A000680500202DE9FE4F424C064689462078DD
:1042B0001746012807D0D1223FA10020FFF7E2F9DD
:1042C0000220BDE8FE8FE0784FF0010A18B9E660E1
:1042D000266184F803A0A0784FF00308002854D189
:1042E00021698E4201D1012000E000203944216182
:1042F00030B3A068C0F13005BD4200D91546304941
:104300002A4608444946FCF7EAF8A0687F1B28447F
:10431000A9442E44A06030281ED302D14FF00100E2
:1043200001E04FF000004FF0F30223A1FFF7AAF9DC
:10433000D4E9021201232248FFF7AEFE607001E0CB
:1043400084F8018001A8009002AB01226078E16846
:10435000FFF7DAFEF8B902E0A07870B91EE0A078A5
:104360004FF4867280F0010013A1FFF78BF90198DA
:1043700000F0B6F878B984F802A0D4E90220104918
:1043800000F02CF838B9A07840B13A46494630469A
:1043900000F024F810B184F8008092E73A464946CC
:1043A0003046FFF72BFF00288BD00220207013200F
:1043B00087E70000300200202866696C652900004C
:1043C0006805002010B5EFF3108101F0010472B60A
:1043D000FCF70AFA002C00D162B610BD2DE9F047B7
:1043E0003B4D06460024687817468A46012807D0C8
:1043F0007B2238A10020FFF745F90220BDE8F087B5
:10440000E8784FF0020858B9304601F077F9040017
:1044100003D000BF85F8018058E00120E8706E618C
:10442000A868B6FBF0F100FB1161721A6969B1FB73
:10443000F0F300FB1310081A824204D0304600F05B
:10444000D9F80400E6D12869B6FBF0F100FB116150
:10445000721A6969B1FBF0F300FB1310081A82426B
:1044600004D0304601F04AF90400D3D1D5E9010166
:104470000844B04204D8304600F0BCF80400C9D16A
:104480001FB3D5E903010844B04204D8304601F017
:1044900035F90400BED16868A968301A091A8F423C
:1044A00000D2394689460D494A4608445146FCF730
:1044B00016F8B9F1000F06D00020A8704E44CA4487
:1044C000A7EB0907D2E70120F7E76E61204695E7E1
:1044D000440200202866696C6529000098050020C8
:1044E0002DE9F0411F4C0546607808B1472225E0D0
:1044F000002615B3686800B3A868F0B1E868E0B1B9
:104500002869D0B16869C0B1A869B0B1E869A0B143
:104510000127FF22B9021448FCF79AF8A770E67049
:104520006660A660E6602661C4E905652868804784
:10453000050008D1207840B111E04D220BA10020E8
:10454000FFF7A0F80220BDE8F081A069006980476C
:10455000050004D0A069406880472846F3E76770EB
:10456000FBE7000044020020980500202866696CE3
:104570006529000070B5154C0025607810B1012840
:1045800007D00AE0CC2212A10020FFF77BF802201E
:1045900070BD002000F02EF80546A06940688047F5
:1045A0000646FF224FF480610B48FCF751F80120CA
:1045B000A0700021E1706160A160E1602161616132
:1045C00061700EB1304670BD284670BD44020020B7
:1045D0002866696C652900009805002010B5EFF386
:1045E000108303F0010472B6FDF72EF9002C00D100
:1045F00062B610BD70B50E4C06460025A07840B9D5
:10460000A0690C498368D4E9010298470546012056
:10461000A070FF220748A168FCF71AF8A068B6FB53
:10462000F0F100FB1160301A6060284670BD000098
:1046300044020020980500200548016929B101695C
:10464000D1F89C1109B108467047001D7047000061
:104650005C6F00080449086920B10869B0F8A0013E
:10466000002800D1488870475C6F0008034601228B
:1046700001490020184700000C4C00200020704722
:104680000248006840F30000401C704710040240DC
:104690002DE9F0474D4886B04FF0000A016841F01F
:1046A00001010160016801F001010591016841F01B
:1046B00002010160016801F002010591016841F009
:1046C00004010160016801F004010591016841F0F5
:1046D00008010160016801F008010591016841F0DD
:1046E000010101600068DFF8E88000F0010005903A
:1046F0004FF000414046C8F818100F0C0125CDE9D5
:104700000075022469460394FCF7A2FA01225602BE
:1047100031464046FCF778FBCDE9006569464046E6
:104720000394FCF795FADFF8AC900122402148464B
:10473000FCF76AFB4020CDE9000569460394484632
:10474000FCF786FA012231464046FCF75DFBCDE9D5
:104750000065694640460394FCF77AFA0122314627
:104760004046FCF751FBCDE900656946404603949D
:10477000FCF76EFA012211464846FCF745FB112072
:10478000CDE90050694648460295FCF761FA0022DF
:1047900039464846FCF738FBCDE90075694648467E
:1047A0000394FCF755FACDE9034AE001CDE9000492
:1047B00069464046FCF74CFA00F094FA064805902A
:1047C000401E0590FCD106B0BDE8F08730380240AD
:1047D000000002400004024040420F0028B10022C5
:1047E0004FF400710248FCF70FBB0122F8E700000C
:1047F0000000024028B100224FF400710248FCF78B
:1048000003BB0122F8E700000000024028B10022AB
:104810004FF400710248FCF7F7BA0122F8E70000F4
:1048200000000240092800D927303030C0B270475C
:1048300010B5134900200860124908601249086049
:10484000124908604BF6FC714FF00060FFF72EF93B
:104850000B4908604FF6FC710D48FFF727F909492D
:1048600008604FF480410B48FFF720F906490860C3
:104870004FF400310848FFF719F90449086010BDEA
:10488000D4010020D8010020DC010020E00100203C
:104890000000010800C0000800000208004870473E
:1048A000E40100200120C106064A096A914200D0B5
:1048B00000204FF00061044A496A914200D0002074
:1048C00070470000939D939B0899969700B5FFF75A
:1048D000E9FF08B9002000BD4FF00060806AFAE7E8
:1048E0000148006870470000D401002001480068BA
:1048F00070470000D801002000487047F4030020F2
:1049000000487047B203002001200649064A096AA0
:10491000914200D000200349044A496A914200D0E4
:1049200000207047000001088F9E939B089996977E
:1049300000B5FFF7E9FF08B9002000BD0148806A13
:10494000FBE700000000010800487047A5030020B5
:1049500000487047D30300200048704774030020CC
:1049600000487047FD03002000487047EE0100201A
:1049700010B5FFF75DFF054800F034FD00F010FEB4
:1049800000F062FF00F034FF10BD0000540300206F
:1049900010B5124C207830B1622211A10020FEF730
:1049A00071FE022010BD002211461046FCF708FFE0
:1049B00008B11D2010BD00206070A070E070A060E4
:1049C000E060207120616061A0614FF48041064881
:1049D000FBF746FE01202070002010BD6002002081
:1049E0002866696C65290000980900202DE9F047C8
:1049F000DFF8C89005462F4E99F800002E4F9046DC
:104A00008A46012808D040F279122DA10020FEF735
:104A100039FE0220BDE8F087B54201D3BD4201D383
:104A20002220F7E7FFF7C0F898B37C1B201F414610
:104A3000404501D90A4600E0221F5146D9F8180026
:104A4000FFF75CF82049C9F818008D4208D21F49C9
:104A5000A81B084442465146FBF741FD0020D9E718
:104A600005EB0801B94222D10AEB04014C4611F8CA
:104A7000012C51F8041C62F31F61884201D02620EA
:104A8000C8E7524641462846FFF7A8FD10B11F204F
:104A9000C0E70CE04FF480420C493046FFF75AF86B
:104AA0000546FFF7C5FE012060702846B2E72520C5
:104AB000B0E70000000001080000020860020020CA
:104AC0002866696C652900000040010898090020EB
:104AD00000F016FDFFF7DCFDFEF7D8FEFFF7D0FD76
:104AE000A0B9FFF7CBFD88B90D4C206970B1C06843
:104AF00001F0E4FC50B1FEF787FF38B92069094A9C
:104B0000C1681160C06803C8FBF7AEFB00F0BFF8D6
:104B100000221146044800F0D5F800F0BDF8FEE789
:104B20005C6F000808ED00E03D4B000802490122DF
:104B30000A70487070470000F40100200126FEF75B
:104B400063FF10B1642000F09DF800F0B9F8434C09
:104B5000A0600020FFF74EFE0020FFF73FFE30462A
:104B6000FFF754FEFFF704FF01F0A8FB012001F05E
:104B7000A5FE002001F0A0FB0025E5700120E56006
:104B8000A07001464FF00B082B462A46344800F02F
:104B90009EF8032100F0A0F84FF0FF3940F2032AFD
:104BA0004A460021504600F089F887B2B80501D581
:104BB000FDF766FAF80737D05A2001F097FEE07843
:104BC000012805D1E06810B1401EE06000D1E57019
:104BD000A07838B3012812D003281DD0042823D18F
:104BE000E07808BBB8F1000F04D0A8F101005FEA3B
:104BF000000819D1002001F05FFBA57014E0B8F1A6
:104C0000000F04D0A8F101005FEA00080CD10120D8
:104C100001F052FB032003E001F046FB20B102202B
:104C2000A07001E0FCF7A2FEB807B9D520780028F3
:104C3000B6D06078012807D0022805D0012625705B
:104C40003046FFF7E3FDABE7012E05D00126012832
:104C5000F6D125706570F3E70026F1E7F401002036
:104C60001D5B0008FFF7FCBA10B5044640F20111C5
:104C7000FBF7F6FC00F02EFC00202070BDE8104091
:104C8000FFF7EEBA10B500F039FF002010BD10B5E7
:104C900000F004FF002010BD10B500F025FF00203B
:104CA00010BD00207047002070470020704710B5ED
:104CB0000C46084600F0D4FE204610BD00F0DABED7
:104CC0000120704710B500F009FF012010BD10B59C
:104CD00000F0FEFE012010BD10B5084600F0D8FE21
:104CE000002010BD70B590B00EA909A8FCF702FA1B
:104CF0000D98B0F5004F05D0B0F5204F23D0B0F59A
:104D0000404F22D001202549274C00250968B1FBDE
:104D1000F0F02349B0FBF1F62248C4E90005761E05
:104D2000C4E903652148A5606561016841F001019E
:104D30000160006800F0010008902046FCF78DFC3F
:104D400028B1522223E00220DDE70420DBE71648E9
:104D5000FCF79FFC08B1582219E07020CDE901054D
:104D60000395049505950695002201A90E4807951F
:104D7000FCF70BFC08B1652209E021687008486364
:104D800000210948FCF7A2FC002804D06C2208A1ED
:104D90000020FEF777FC10B070BD0000D0020020AC
:104DA00000127A00000001401057002044380240F1
:104DB0002866696C652900002DE9FF4F81B089469E
:104DC000109C054600EB0907DFF804A200202060D4
:104DD0009AF80300934600281AD000207D4E8AF8E6
:104DE0000300311D32780498FBF779FB3078049981
:104DF00001440491216808442060DAF80400B6F800
:104E000001106FF30F00084331780144CAF8041011
:104E1000C3E028780A282ED00D28FCD03A281FD0CD
:104E20009AF800105646002971D0FEF7B5FE00F042
:104E30000F01DFF8A0C170781CF8002011430CF8B6
:104E40000010401CC1B271709CF800000090401D21
:104E500081425BD36346002219781046491D11E058
:104E600025215C48FBF7FCFB00218AF800108AF83A
:104E700001108AF802108FE013F80080401C4244B1
:104E8000D2B2C0B28142F7D80AB1042689E0B17823
:104E9000012000297CD16146B07031F8010FE04655
:104EA00040BA0880887830B1012831D0022831D04A
:104EB00004286DD147E04749252201F12500FBF781
:104EC0000EFB7068B8F80130020C12041A438242DB
:104ED00004D001208AF80300022662E008F10401F0
:104EE000009A0498FBF7FBFA98F800000499014433
:104EF00004912168084420607168B8F801206FF3BC
:104F00000F01114398F800201144716040E036E031
:104F1000012646E021680E98FF22411A0498FBF70B
:104F200097FB2168DAF80420521A0F990A607A1B5D
:104F30002849A9EB0202CBF800200A79497912032B
:104F400042EA011115E021680E98FF22411A0498E7
:104F5000FBF77EFB2168DAF80420521A0F990A60E9
:104F60007A1B1C49A9EB0202CBF80020898849BAB8
:104F700009040220CAF8041005B0BDE8F08F71786A
:104F8000252922D2FEF708FE1249727800018854C2
:104F90003078D0B1002131706D1CBD427FF439AF43
:104FA000002621680E98FF22411A0498FBF750FB57
:104FB0002168DAF80400411A0F980160791BA9EB07
:104FC00001013046CBF80010D6E70121E3E70000ED
:104FD0007C020020984900202DE9F05FDFF8008175
:104FE0000446DFF8F89098F8000016468B46012832
:104FF00005D0A2223BA10020FEF744FB3EE04FF487
:105000008060B4FBF0F2010100FB124202250AB1FC
:10501000AB222DE0864204D3B6FBF0F200FB126017
:1050200008B1B22224E0B4FBF1F201FB124030449B
:10503000884201D9B9221BE098F8020078B998F8A3
:10504000030050B1D8F80800844204D3D8F80C10FB
:105050000844A04203D8C7220AE0C12208E098F819
:10506000040070B1D8E904010844A04209D0CF225D
:105070001CA10020FEF706FB88F800500220BDE8C6
:10508000F09F1A49A71901208C4207D2B7F1006F8F
:1050900004D900BF88F800501F20F0E7824688F846
:1050A00004A0C8E90446324659462046FFF79EFC54
:1050B000252804D00028E2D088F80050DFE75A46BF
:1050C00031462046FFF78AFA0028E3D14F4503D343
:1050D000FFF7AEFB88F801A00020D0E7000002082F
:1050E000600200202866696C6529000000C0000885
:1050F0004FF480607047000070B514460E460546B8
:1051000020444FF48061B1EB402F07D24FF4197265
:105110000AA10020FEF7B6FA002070BD4FF400711E
:105120003046FBF79DFA35B9064807490069420148
:105130003046FBF7D4F9600270BD00002866696C48
:10514000652900009C0200201053002010B50B467A
:105150004FF4007408B1002010BD224602491846E1
:10516000FBF7BDF9204610BD505000202DE9F84353
:105170000C4600210E46009110B10020BDE8F883D6
:10518000DFF8C88098F80000012845D0022845D0F3
:10519000002720462EA101F043F9054660192FA1F2
:1051A00001F03EF9054460192E4901F039F9054432
:1051B00060192DA101F034F9054460192BA101F00B
:1051C0002FF905446019B8F8021001F033F90544CD
:1051D000601925A101F024F9054477B1601925A1D2
:1051E00001F01EF905446019394601F019F905442A
:1051F00060191DA101F014F905446846FEF7EEFBA5
:10520000070021D00098F8B160191DA101F008F93C
:1052100005444FF4007811E01CA7BAE71EA7B8E7D1
:10522000009850F82610761CF6B2601901F0D0F8FC
:10523000054460190CA101F0F3F80544BE4203D205
:1052400005F10A004045EBD3284697E79402002079
:105250004173736572740D0A0000000046696C6545
:105260003A2000000C4E00200D0A00004C696E65CB
:105270003A200000536F757263653A200000000009
:1052800048657864756D70730D0A0000426F6F7425
:105290006C6F6164657200004170706C6963617469
:1052A000696F6E000A4608B1002070474FF4007124
:1052B000104600F0C5BD00002DE9F04707460C463A
:1052C00001F0F4FA0646FEF71FFD05463046FEF7EC
:1052D00033FD064617B10020BDE8F08720461C4983
:1052E00001F09EF80746E019294601F099F8C51922
:1052F000601918A101F094F8154905446019C91FF7
:1053000001F08EF8054400274FF00108CEB1DFF818
:10531000489007E0B8F1000F04D160190FA101F027
:105320007FF80544F00707D059F82710601901F0FD
:1053300077F805444FF000087F1C760801D0052F50
:10534000E8D3601903A101F06BF82844C4E700001A
:10535000EB7000080D0A0000647200082C200000A9
:1053600070B508B1002070BD0C464FF40075294699
:105370002046FBF775F90748FBF73BF8024605495D
:105380002046FBF7ACF829462046BDE87040FEF702
:10539000DDBC0000F37000082DE9F041084D064621
:1053A0000F462846FBF725F8044616B10020BDE855
:1053B000F081024629463846FBF791F82046F6E789
:1053C0000C7E000810B50B464FF4007408B10020A5
:1053D00010BD224602491846FBF781F8204610BD51
:1053E000504E002006490B68091D0A68091D09680E
:1053F0000360C0E901214FF0A531C1607047000092
:10540000E8F7FF1F10B5084654022146FBF728F9BC
:10541000204610BD70B5214D6878A978884201D02A
:10542000012000E000204FF4FC721DA1FEF72AF9D4
:105430006878022803D0C0B101281AD01DE01A48AC
:105440004FF4FA7490F8200008B301280AD002281B
:105450001DD003281BD040F20A2211A10020FEF724
:1054600011F914E044F6206411E0A87802280AD06B
:1054700003E0A878022808D028B140F21A2208A137
:105480000020FEF7FFF8002401E040F6C414A868ED
:10549000A04201D9012070BD002070BD840200200F
:1054A0002866696C65290000E44B002070B503464E
:1054B00000200246012509E0DC0704D08E1A761E82
:1054C00005FA06F420435B08521CD2B28A42F3D399
:1054D00070BD000010B525210748FBF7C1F806484C
:1054E00025212530FBF7BCF80448002141600170FC
:1054F00041708170C17010BD984900207C0200206D
:1055000030B591B014210CA8FBF7CCF830216846D7
:10551000FBF7C8F8FCF7DEF9FBF794FC0124002543
:1055200021460CA8CDE90C45FBF74AFD20B14022ED
:1055300019A10020FEF7A6F84FF48030CDE9004015
:1055400002248001CDE9064004200890A820CDE97E
:10555000090407200B906846FBF71EFE20B14F227E
:105560000DA10020FEF78EF80CA90F2081E8310074
:105570004FF4A0500F904FF48050109005210CA8CC
:10558000FBF71EFD002804D05D2203A10020FEF7DA
:1055900079F811B030BD00002866696C65290000FB
:1055A00070B500250024FFF755F806464A4800214B
:1055B0000160017121214948FBF752F82121484837
:1055C000FBF74EF809214748FBF76CF842480021E9
:1055D0000160017100BF00BF0AE0434A52F8251084
:1055E0003E4A101900F0F4FE2044C4B2681CC5B253
:1055F000042DF2DB00222046611CCCB237490A544C
:10560000002400250AE0394A52F82510344A1019BE
:1056100000F0DEFE2044C4B2681CC5B2042DF2DBEB
:1056200000222046611CCCB22D490A5400242D4989
:1056300008192F49096800F0CBFE2044C4B2204667
:10564000611CCCB2274900220A54FEF7F5FF22491B
:1056500000680860002008710024300BFFF7E2F8B2
:10566000014624482246641C8154C6F30320FFF7F8
:10567000D9F801461F482246641C8154C6F3031022
:10568000FFF7D0F801461B482246641C815406F0FF
:105690000F00FFF7C7F8014616482246641C8154E4
:1056A00000222146641C4254002413483022214623
:1056B000641C425432222146641C42543522214645
:1056C000641C425434222146641C42540022214668
:1056D000641C425470BD0000E4010020B2030020AD
:1056E000D3030020F40300205403002064030020AF
:1056F000D0010020E9010020EE0100202DE9F04159
:10570000374C0746A0694169384688470646A06974
:10571000816938468847054636B12DB14FF4806817
:1057200046450AD8012009E040F235122DA100209B
:10573000FDF7A8FF0220BDE8F08100204FF49D7224
:1057400028A1FDF79FFFB8FBF6F106FB118050B1D1
:105750005FF0000040F23B1222A1FDF793FFB5423B
:1057600003D3012002E00120F4E700204FF49E72F1
:105770001CA1FDF787FFB5FBF6F006FB1050C8B182
:105780005FF0000040F23D1216A1FDF77BFFB7FB72
:10579000F5F005FB1070381AC4E903056060454553
:1057A00000D34546A560A169096A29B1884705006B
:1057B0000AD101E00120E5E7207850B1A069C16875
:1057C000E0688847050004D0A06940688047284603
:1057D000B1E7FF220548A168FAF73AFF0020AAE7DF
:1057E000440200202866696C6529000098050020A5
:1057F00070B50025002400261148FAF7FAFDC6B25C
:10580000022000EB4600C2B20E482146641C4254FE
:1058100003222146641C425400BF0EE00848611C6C
:10582000425D2046CCB207490A5400222046611C42
:10583000CCB204490A54681CC5B2B542EEDB70BD57
:1058400074030020FD03002010B531210948FAF748
:1058500029FF09490748FAF736FE08490548FAF7CB
:1058600032FE07490348FAF72EFE06490148FAF7C7
:105870002AFE10BD74030020E4010020E90100208D
:10588000B2030020F403002010B5094C207840B189
:1058900000F05EF86068C168064888470021217002
:1058A00010BDC02204A10020FDF7ECFE022010BDB7
:1058B00004020020640400202866696C6529000049
:1058C00070B5134C0546207808B1852202E0022D00
:1058D00006D38B220FA10020FDF7D4FE022070BD5D
:1058E000FFF7EEF9A0604FF482710C48FAF7DAFE88
:1058F0000120207006480C3000EB05106060416804
:10590000064888470028EAD00321217070BD0000B6
:10591000040200202866696C6529000064040020E8
:105920002DE9F041094D0E460746002405EB041011
:10593000314602683846904710B12046BDE8F081F4
:10594000641CE4B2022CF1D30320F7E7100200201C
:1059500010B5FFF7B5F906498968884201D10120E1
:1059600000E00020BDE81040622202A1FDF78ABEDF
:10597000040200202866696C6529000010B500F15A
:10598000080103220C4607A0FAF752FD002806D0B2
:105990000322214604A0FAF74BFD08B1032010BDF5
:1059A000012010BD42494E004845580070B5154CC5
:1059B00006460D462078012806D0A42212A1002018
:1059C000FDF760FE022070BDFFF7C2FF60682A4647
:1059D000314683680E4898470546132806D0142D93
:1059E00006D02DB103202070284670BD0220FAE7B2
:1059F0002078012800D00020B22203A1FDF742FE4A
:105A0000F2E70000040200202866696C65290000A6
:105A10006404002010B5FFF753F90749496888422C
:105A200001D1012000E00020BDE810404FF4B47225
:105A300002A1FDF727BE0000840200202866696CE1
:105A40006529000002480021C068FFF72AB900005C
:105A5000840200200148C068FFF727B984020020B3
:105A600072B603494A6802434A6062B67047000052
:105A7000E002002005494A681042FCD0486872B62E
:105A80004A6882434A6062B670470000E002002024
:105A90000149086170470000E00200200949002028
:105AA000086048608860C860086148614FF0E02184
:105AB000054A4A61054BF02283F8142D88610720BE
:105AC00008617047E00200207EFC0A000FE000E061
:105AD0000149C86070470000E002002001494861A8
